{
  "_format": "hh-sol-artifact-1",
  "contractName": "LilaPosition",
  "sourceName": "contracts/LilaPosition.sol",
  "abi": [
    {
      "inputs": [],
      "stateMutability": "nonpayable",
      "type": "constructor"
    },
    {
      "anonymous": false,
      "inputs": [
        {
          "indexed": true,
          "internalType": "address",
          "name": "owner",
          "type": "address"
        },
        {
          "indexed": true,
          "internalType": "address",
          "name": "approved",
          "type": "address"
        },
        {
          "indexed": true,
          "internalType": "uint256",
          "name": "tokenId",
          "type": "uint256"
        }
      ],
      "name": "Approval",
      "type": "event"
    },
    {
      "anonymous": false,
      "inputs": [
        {
          "indexed": true,
          "internalType": "address",
          "name": "owner",
          "type": "address"
        },
        {
          "indexed": true,
          "internalType": "address",
          "name": "operator",
          "type": "address"
        },
        {
          "indexed": false,
          "internalType": "bool",
          "name": "approved",
          "type": "bool"
        }
      ],
      "name": "ApprovalForAll",
      "type": "event"
    },
    {
      "anonymous": false,
      "inputs": [
        {
          "indexed": true,
          "internalType": "address",
          "name": "previousOwner",
          "type": "address"
        },
        {
          "indexed": true,
          "internalType": "address",
          "name": "newOwner",
          "type": "address"
        }
      ],
      "name": "OwnershipTransferred",
      "type": "event"
    },
    {
      "anonymous": false,
      "inputs": [
        {
          "indexed": true,
          "internalType": "address",
          "name": "from",
          "type": "address"
        },
        {
          "indexed": true,
          "internalType": "address",
          "name": "to",
          "type": "address"
        },
        {
          "indexed": true,
          "internalType": "uint256",
          "name": "tokenId",
          "type": "uint256"
        }
      ],
      "name": "Transfer",
      "type": "event"
    },
    {
      "inputs": [
        {
          "internalType": "address",
          "name": "to",
          "type": "address"
        },
        {
          "internalType": "uint256",
          "name": "tokenId",
          "type": "uint256"
        }
      ],
      "name": "approve",
      "outputs": [],
      "stateMutability": "nonpayable",
      "type": "function"
    },
    {
      "inputs": [
        {
          "internalType": "address",
          "name": "owner",
          "type": "address"
        }
      ],
      "name": "balanceOf",
      "outputs": [
        {
          "internalType": "uint256",
          "name": "",
          "type": "uint256"
        }
      ],
      "stateMutability": "view",
      "type": "function"
    },
    {
      "inputs": [
        {
          "internalType": "uint256",
          "name": "tokenId",
          "type": "uint256"
        }
      ],
      "name": "getApproved",
      "outputs": [
        {
          "internalType": "address",
          "name": "",
          "type": "address"
        }
      ],
      "stateMutability": "view",
      "type": "function"
    },
    {
      "inputs": [
        {
          "internalType": "address",
          "name": "owner",
          "type": "address"
        },
        {
          "internalType": "address",
          "name": "operator",
          "type": "address"
        }
      ],
      "name": "isApprovedForAll",
      "outputs": [
        {
          "internalType": "bool",
          "name": "",
          "type": "bool"
        }
      ],
      "stateMutability": "view",
      "type": "function"
    },
    {
      "inputs": [
        {
          "internalType": "uint256",
          "name": "",
          "type": "uint256"
        }
      ],
      "name": "lilaPool",
      "outputs": [
        {
          "internalType": "address",
          "name": "",
          "type": "address"
        }
      ],
      "stateMutability": "view",
      "type": "function"
    },
    {
      "inputs": [
        {
          "internalType": "address",
          "name": "to",
          "type": "address"
        },
        {
          "internalType": "uint256",
          "name": "tokenId",
          "type": "uint256"
        }
      ],
      "name": "mint",
      "outputs": [],
      "stateMutability": "nonpayable",
      "type": "function"
    },
    {
      "inputs": [],
      "name": "name",
      "outputs": [
        {
          "internalType": "string",
          "name": "",
          "type": "string"
        }
      ],
      "stateMutability": "view",
      "type": "function"
    },
    {
      "inputs": [],
      "name": "owner",
      "outputs": [
        {
          "internalType": "address",
          "name": "",
          "type": "address"
        }
      ],
      "stateMutability": "view",
      "type": "function"
    },
    {
      "inputs": [
        {
          "internalType": "uint256",
          "name": "tokenId",
          "type": "uint256"
        }
      ],
      "name": "ownerOf",
      "outputs": [
        {
          "internalType": "address",
          "name": "",
          "type": "address"
        }
      ],
      "stateMutability": "view",
      "type": "function"
    },
    {
      "inputs": [],
      "name": "renounceOwnership",
      "outputs": [],
      "stateMutability": "nonpayable",
      "type": "function"
    },
    {
      "inputs": [
        {
          "internalType": "address",
          "name": "from",
          "type": "address"
        },
        {
          "internalType": "address",
          "name": "to",
          "type": "address"
        },
        {
          "internalType": "uint256",
          "name": "tokenId",
          "type": "uint256"
        }
      ],
      "name": "safeTransferFrom",
      "outputs": [],
      "stateMutability": "nonpayable",
      "type": "function"
    },
    {
      "inputs": [
        {
          "internalType": "address",
          "name": "from",
          "type": "address"
        },
        {
          "internalType": "address",
          "name": "to",
          "type": "address"
        },
        {
          "internalType": "uint256",
          "name": "tokenId",
          "type": "uint256"
        },
        {
          "internalType": "bytes",
          "name": "data",
          "type": "bytes"
        }
      ],
      "name": "safeTransferFrom",
      "outputs": [],
      "stateMutability": "nonpayable",
      "type": "function"
    },
    {
      "inputs": [
        {
          "internalType": "address",
          "name": "operator",
          "type": "address"
        },
        {
          "internalType": "bool",
          "name": "approved",
          "type": "bool"
        }
      ],
      "name": "setApprovalForAll",
      "outputs": [],
      "stateMutability": "nonpayable",
      "type": "function"
    },
    {
      "inputs": [
        {
          "internalType": "uint256",
          "name": "tokenId",
          "type": "uint256"
        },
        {
          "internalType": "address",
          "name": "pool",
          "type": "address"
        }
      ],
      "name": "setLilaPoolValue",
      "outputs": [],
      "stateMutability": "nonpayable",
      "type": "function"
    },
    {
      "inputs": [
        {
          "internalType": "bytes4",
          "name": "interfaceId",
          "type": "bytes4"
        }
      ],
      "name": "supportsInterface",
      "outputs": [
        {
          "internalType": "bool",
          "name": "",
          "type": "bool"
        }
      ],
      "stateMutability": "view",
      "type": "function"
    },
    {
      "inputs": [],
      "name": "symbol",
      "outputs": [
        {
          "internalType": "string",
          "name": "",
          "type": "string"
        }
      ],
      "stateMutability": "view",
      "type": "function"
    },
    {
      "inputs": [
        {
          "internalType": "uint256",
          "name": "tokenId",
          "type": "uint256"
        }
      ],
      "name": "tokenURI",
      "outputs": [
        {
          "internalType": "string",
          "name": "",
          "type": "string"
        }
      ],
      "stateMutability": "view",
      "type": "function"
    },
    {
      "inputs": [],
      "name": "totalSupply",
      "outputs": [
        {
          "internalType": "uint256",
          "name": "",
          "type": "uint256"
        }
      ],
      "stateMutability": "view",
      "type": "function"
    },
    {
      "inputs": [
        {
          "internalType": "address",
          "name": "from",
          "type": "address"
        },
        {
          "internalType": "address",
          "name": "to",
          "type": "address"
        },
        {
          "internalType": "uint256",
          "name": "tokenId",
          "type": "uint256"
        }
      ],
      "name": "transferFrom",
      "outputs": [],
      "stateMutability": "nonpayable",
      "type": "function"
    },
    {
      "inputs": [
        {
          "internalType": "address",
          "name": "newOwner",
          "type": "address"
        }
      ],
      "name": "transferOwnership",
      "outputs": [],
      "stateMutability": "nonpayable",
      "type": "function"
    }
  ],
  "bytecode": "0x60806040523480156200001157600080fd5b506040518060400160405280600c81526020017f4c696c61506f736974696f6e00000000000000000000000000000000000000008152506040518060400160405280600481526020017f4c494c410000000000000000000000000000000000000000000000000000000081525081600090816200008f919062000412565b508060019081620000a1919062000412565b505050620000c4620000b8620000ca60201b60201c565b620000d260201b60201c565b620004f9565b600033905090565b6000600660009054906101000a900473ffffffffffffffffffffffffffffffffffffffff16905081600660006101000a81548173ffffffffffffffffffffffffffffffffffffffff021916908373ffffffffffffffffffffffffffffffffffffffff1602179055508173ffffffffffffffffffffffffffffffffffffffff168173ffffffffffffffffffffffffffffffffffffffff167f8be0079c531659141344cd1fd0a4f28419497f9722a3daafe3b4186f6b6457e060405160405180910390a35050565b600081519050919050565b7f4e487b7100000000000000000000000000000000000000000000000000000000600052604160045260246000fd5b7f4e487b7100000000000000000000000000000000000000000000000000000000600052602260045260246000fd5b600060028204905060018216806200021a57607f821691505b60208210810362000230576200022f620001d2565b5b50919050565b60008190508160005260206000209050919050565b60006020601f8301049050919050565b600082821b905092915050565b6000600883026200029a7fffffffffffffffffffffffffffffffffffffffffffffffffffffffffffffffff826200025b565b620002a686836200025b565b95508019841693508086168417925050509392505050565b6000819050919050565b6000819050919050565b6000620002f3620002ed620002e784620002be565b620002c8565b620002be565b9050919050565b6000819050919050565b6200030f83620002d2565b620003276200031e82620002fa565b84845462000268565b825550505050565b600090565b6200033e6200032f565b6200034b81848462000304565b505050565b5b8181101562000373576200036760008262000334565b60018101905062000351565b5050565b601f821115620003c2576200038c8162000236565b62000397846200024b565b81016020851015620003a7578190505b620003bf620003b6856200024b565b83018262000350565b50505b505050565b600082821c905092915050565b6000620003e760001984600802620003c7565b1980831691505092915050565b6000620004028383620003d4565b9150826002028217905092915050565b6200041d8262000198565b67ffffffffffffffff811115620004395762000438620001a3565b5b62000445825462000201565b6200045282828562000377565b600060209050601f8311600181146200048a576000841562000475578287015190505b620004818582620003f4565b865550620004f1565b601f1984166200049a8662000236565b60005b82811015620004c4578489015182556001820191506020850194506020810190506200049d565b86831015620004e45784890151620004e0601f891682620003d4565b8355505b6001600288020188555050505b505050505050565b61299980620005096000396000f3fe608060405234801561001057600080fd5b506004361061012c5760003560e01c806370a08231116100ad578063a22cb46511610071578063a22cb4651461032f578063b88d4fde1461034b578063c87b56dd14610367578063e985e9c514610397578063f2fde38b146103c75761012c565b806370a082311461029d578063715018a6146102cd5780637a472fee146102d75780638da5cb5b146102f357806395d89b41146103115761012c565b806318160ddd116100f457806318160ddd146101fb57806323b872dd1461021957806340c10f191461023557806342842e0e146102515780636352211e1461026d5761012c565b806301ffc9a71461013157806306fdde0314610161578063081812fc1461017f578063095ea7b3146101af5780630fa9ce61146101cb575b600080fd5b61014b60048036038101906101469190611af4565b6103e3565b6040516101589190611b3c565b60405180910390f35b6101696104c5565b6040516101769190611be7565b60405180910390f35b61019960048036038101906101949190611c3f565b610557565b6040516101a69190611cad565b60405180910390f35b6101c960048036038101906101c49190611cf4565b61059d565b005b6101e560048036038101906101e09190611c3f565b6106b4565b6040516101f29190611cad565b60405180910390f35b6102036106e7565b6040516102109190611d43565b60405180910390f35b610233600480360381019061022e9190611d5e565b6106ed565b005b61024f600480360381019061024a9190611cf4565b61074d565b005b61026b60048036038101906102669190611d5e565b610775565b005b61028760048036038101906102829190611c3f565b610795565b6040516102949190611cad565b60405180910390f35b6102b760048036038101906102b29190611db1565b61081b565b6040516102c49190611d43565b60405180910390f35b6102d56108d2565b005b6102f160048036038101906102ec9190611dde565b6108e6565b005b6102fb61093c565b6040516103089190611cad565b60405180910390f35b610319610966565b6040516103269190611be7565b60405180910390f35b61034960048036038101906103449190611e4a565b6109f8565b005b61036560048036038101906103609190611fbf565b610a0e565b005b610381600480360381019061037c9190611c3f565b610a70565b60405161038e9190611be7565b60405180910390f35b6103b160048036038101906103ac9190612042565b610ad8565b6040516103be9190611b3c565b60405180910390f35b6103e160048036038101906103dc9190611db1565b610b6c565b005b60007f80ac58cd000000000000000000000000000000000000000000000000000000007bffffffffffffffffffffffffffffffffffffffffffffffffffffffff1916827bffffffffffffffffffffffffffffffffffffffffffffffffffffffff191614806104ae57507f5b5e139f000000000000000000000000000000000000000000000000000000007bffffffffffffffffffffffffffffffffffffffffffffffffffffffff1916827bffffffffffffffffffffffffffffffffffffffffffffffffffffffff1916145b806104be57506104bd82610bef565b5b9050919050565b6060600080546104d4906120b1565b80601f0160208091040260200160405190810160405280929190818152602001828054610500906120b1565b801561054d5780601f106105225761010080835404028352916020019161054d565b820191906000526020600020905b81548152906001019060200180831161053057829003601f168201915b5050505050905090565b600061056282610c59565b6004600083815260200190815260200160002060009054906101000a900473ffffffffffffffffffffffffffffffffffffffff169050919050565b60006105a882610795565b90508073ffffffffffffffffffffffffffffffffffffffff168373ffffffffffffffffffffffffffffffffffffffff1603610618576040517f08c379a000000000000000000000000000000000000000000000000000000000815260040161060f90612154565b60405180910390fd5b8073ffffffffffffffffffffffffffffffffffffffff16610637610ca4565b73ffffffffffffffffffffffffffffffffffffffff161480610666575061066581610660610ca4565b610ad8565b5b6106a5576040517f08c379a000000000000000000000000000000000000000000000000000000000815260040161069c906121e6565b60405180910390fd5b6106af8383610cac565b505050565b60086020528060005260406000206000915054906101000a900473ffffffffffffffffffffffffffffffffffffffff1681565b60075481565b6106fe6106f8610ca4565b82610d65565b61073d576040517f08c379a000000000000000000000000000000000000000000000000000000000815260040161073490612278565b60405180910390fd5b610748838383610dfa565b505050565b61075782826110f3565b60016007600082825461076a91906122c7565b925050819055505050565b61079083838360405180602001604052806000815250610a0e565b505050565b6000806107a183611310565b9050600073ffffffffffffffffffffffffffffffffffffffff168173ffffffffffffffffffffffffffffffffffffffff1603610812576040517f08c379a000000000000000000000000000000000000000000000000000000000815260040161080990612347565b60405180910390fd5b80915050919050565b60008073ffffffffffffffffffffffffffffffffffffffff168273ffffffffffffffffffffffffffffffffffffffff160361088b576040517f08c379a0000000000000000000000000000000000000000000000000000000008152600401610882906123d9565b60405180910390fd5b600360008373ffffffffffffffffffffffffffffffffffffffff1673ffffffffffffffffffffffffffffffffffffffff168152602001908152602001600020549050919050565b6108da61134d565b6108e460006113cb565b565b806008600084815260200190815260200160002060006101000a81548173ffffffffffffffffffffffffffffffffffffffff021916908373ffffffffffffffffffffffffffffffffffffffff1602179055505050565b6000600660009054906101000a900473ffffffffffffffffffffffffffffffffffffffff16905090565b606060018054610975906120b1565b80601f01602080910402602001604051908101604052809291908181526020018280546109a1906120b1565b80156109ee5780601f106109c3576101008083540402835291602001916109ee565b820191906000526020600020905b8154815290600101906020018083116109d157829003601f168201915b5050505050905090565b610a0a610a03610ca4565b8383611491565b5050565b610a1f610a19610ca4565b83610d65565b610a5e576040517f08c379a0000000000000000000000000000000000000000000000000000000008152600401610a5590612278565b60405180910390fd5b610a6a848484846115fd565b50505050565b6060610a7b82610c59565b6000610a85611659565b90506000815111610aa55760405180602001604052806000815250610ad0565b80610aaf84611670565b604051602001610ac0929190612435565b6040516020818303038152906040525b915050919050565b6000600560008473ffffffffffffffffffffffffffffffffffffffff1673ffffffffffffffffffffffffffffffffffffffff16815260200190815260200160002060008373ffffffffffffffffffffffffffffffffffffffff1673ffffffffffffffffffffffffffffffffffffffff16815260200190815260200160002060009054906101000a900460ff16905092915050565b610b7461134d565b600073ffffffffffffffffffffffffffffffffffffffff168173ffffffffffffffffffffffffffffffffffffffff1603610be3576040517f08c379a0000000000000000000000000000000000000000000000000000000008152600401610bda906124cb565b60405180910390fd5b610bec816113cb565b50565b60007f01ffc9a7000000000000000000000000000000000000000000000000000000007bffffffffffffffffffffffffffffffffffffffffffffffffffffffff1916827bffffffffffffffffffffffffffffffffffffffffffffffffffffffff1916149050919050565b610c628161173e565b610ca1576040517f08c379a0000000000000000000000000000000000000000000000000000000008152600401610c9890612347565b60405180910390fd5b50565b600033905090565b816004600083815260200190815260200160002060006101000a81548173ffffffffffffffffffffffffffffffffffffffff021916908373ffffffffffffffffffffffffffffffffffffffff160217905550808273ffffffffffffffffffffffffffffffffffffffff16610d1f83610795565b73ffffffffffffffffffffffffffffffffffffffff167f8c5be1e5ebec7d5bd14f71427d1e84f3dd0314c0f7b2291e5b200ac8c7c3b92560405160405180910390a45050565b600080610d7183610795565b90508073ffffffffffffffffffffffffffffffffffffffff168473ffffffffffffffffffffffffffffffffffffffff161480610db35750610db28185610ad8565b5b80610df157508373ffffffffffffffffffffffffffffffffffffffff16610dd984610557565b73ffffffffffffffffffffffffffffffffffffffff16145b91505092915050565b8273ffffffffffffffffffffffffffffffffffffffff16610e1a82610795565b73ffffffffffffffffffffffffffffffffffffffff1614610e70576040517f08c379a0000000000000000000000000000000000000000000000000000000008152600401610e679061255d565b60405180910390fd5b600073ffffffffffffffffffffffffffffffffffffffff168273ffffffffffffffffffffffffffffffffffffffff1603610edf576040517f08c379a0000000000000000000000000000000000000000000000000000000008152600401610ed6906125ef565b60405180910390fd5b610eec838383600161177f565b8273ffffffffffffffffffffffffffffffffffffffff16610f0c82610795565b73ffffffffffffffffffffffffffffffffffffffff1614610f62576040517f08c379a0000000000000000000000000000000000000000000000000000000008152600401610f599061255d565b60405180910390fd5b6004600082815260200190815260200160002060006101000a81549073ffffffffffffffffffffffffffffffffffffffff02191690556001600360008573ffffffffffffffffffffffffffffffffffffffff1673ffffffffffffffffffffffffffffffffffffffff168152602001908152602001600020600082825403925050819055506001600360008473ffffffffffffffffffffffffffffffffffffffff1673ffffffffffffffffffffffffffffffffffffffff16815260200190815260200160002060008282540192505081905550816002600083815260200190815260200160002060006101000a81548173ffffffffffffffffffffffffffffffffffffffff021916908373ffffffffffffffffffffffffffffffffffffffff160217905550808273ffffffffffffffffffffffffffffffffffffffff168473ffffffffffffffffffffffffffffffffffffffff167fddf252ad1be2c89b69c2b068fc378daa952ba7f163c4a11628f55a4df523b3ef60405160405180910390a46110ee8383836001611785565b505050565b600073ffffffffffffffffffffffffffffffffffffffff168273ffffffffffffffffffffffffffffffffffffffff1603611162576040517f08c379a00000000000000000000000000000000000000000000000000000000081526004016111599061265b565b60405180910390fd5b61116b8161173e565b156111ab576040517f08c379a00000000000000000000000000000000000000000000000000000000081526004016111a2906126c7565b60405180910390fd5b6111b960008383600161177f565b6111c28161173e565b15611202576040517f08c379a00000000000000000000000000000000000000000000000000000000081526004016111f9906126c7565b60405180910390fd5b6001600360008473ffffffffffffffffffffffffffffffffffffffff1673ffffffffffffffffffffffffffffffffffffffff16815260200190815260200160002060008282540192505081905550816002600083815260200190815260200160002060006101000a81548173ffffffffffffffffffffffffffffffffffffffff021916908373ffffffffffffffffffffffffffffffffffffffff160217905550808273ffffffffffffffffffffffffffffffffffffffff16600073ffffffffffffffffffffffffffffffffffffffff167fddf252ad1be2c89b69c2b068fc378daa952ba7f163c4a11628f55a4df523b3ef60405160405180910390a461130c600083836001611785565b5050565b60006002600083815260200190815260200160002060009054906101000a900473ffffffffffffffffffffffffffffffffffffffff169050919050565b611355610ca4565b73ffffffffffffffffffffffffffffffffffffffff1661137361093c565b73ffffffffffffffffffffffffffffffffffffffff16146113c9576040517f08c379a00000000000000000000000000000000000000000000000000000000081526004016113c090612733565b60405180910390fd5b565b6000600660009054906101000a900473ffffffffffffffffffffffffffffffffffffffff16905081600660006101000a81548173ffffffffffffffffffffffffffffffffffffffff021916908373ffffffffffffffffffffffffffffffffffffffff1602179055508173ffffffffffffffffffffffffffffffffffffffff168173ffffffffffffffffffffffffffffffffffffffff167f8be0079c531659141344cd1fd0a4f28419497f9722a3daafe3b4186f6b6457e060405160405180910390a35050565b8173ffffffffffffffffffffffffffffffffffffffff168373ffffffffffffffffffffffffffffffffffffffff16036114ff576040517f08c379a00000000000000000000000000000000000000000000000000000000081526004016114f69061279f565b60405180910390fd5b80600560008573ffffffffffffffffffffffffffffffffffffffff1673ffffffffffffffffffffffffffffffffffffffff16815260200190815260200160002060008473ffffffffffffffffffffffffffffffffffffffff1673ffffffffffffffffffffffffffffffffffffffff16815260200190815260200160002060006101000a81548160ff0219169083151502179055508173ffffffffffffffffffffffffffffffffffffffff168373ffffffffffffffffffffffffffffffffffffffff167f17307eab39ab6107e8899845ad3d59bd9653f200f220920489ca2b5937696c31836040516115f09190611b3c565b60405180910390a3505050565b611608848484610dfa565b6116148484848461178b565b611653576040517f08c379a000000000000000000000000000000000000000000000000000000000815260040161164a90612831565b60405180910390fd5b50505050565b606060405180602001604052806000815250905090565b60606000600161167f84611912565b01905060008167ffffffffffffffff81111561169e5761169d611e94565b5b6040519080825280601f01601f1916602001820160405280156116d05781602001600182028036833780820191505090505b509050600082602001820190505b600115611733578080600190039150507f3031323334353637383961626364656600000000000000000000000000000000600a86061a8153600a858161172757611726612851565b5b049450600085036116de575b819350505050919050565b60008073ffffffffffffffffffffffffffffffffffffffff1661176083611310565b73ffffffffffffffffffffffffffffffffffffffff1614159050919050565b50505050565b50505050565b60006117ac8473ffffffffffffffffffffffffffffffffffffffff16611a65565b15611905578373ffffffffffffffffffffffffffffffffffffffff1663150b7a026117d5610ca4565b8786866040518563ffffffff1660e01b81526004016117f794939291906128d5565b6020604051808303816000875af192505050801561183357506040513d601f19601f820116820180604052508101906118309190612936565b60015b6118b5573d8060008114611863576040519150601f19603f3d011682016040523d82523d6000602084013e611868565b606091505b5060008151036118ad576040517f08c379a00000000000000000000000000000000000000000000000000000000081526004016118a490612831565b60405180910390fd5b805181602001fd5b63150b7a0260e01b7bffffffffffffffffffffffffffffffffffffffffffffffffffffffff1916817bffffffffffffffffffffffffffffffffffffffffffffffffffffffff19161491505061190a565b600190505b949350505050565b600080600090507a184f03e93ff9f4daa797ed6e38ed64bf6a1f0100000000000000008310611970577a184f03e93ff9f4daa797ed6e38ed64bf6a1f010000000000000000838161196657611965612851565b5b0492506040810190505b6d04ee2d6d415b85acef810000000083106119ad576d04ee2d6d415b85acef810000000083816119a3576119a2612851565b5b0492506020810190505b662386f26fc1000083106119dc57662386f26fc1000083816119d2576119d1612851565b5b0492506010810190505b6305f5e1008310611a05576305f5e10083816119fb576119fa612851565b5b0492506008810190505b6127108310611a2a576127108381611a2057611a1f612851565b5b0492506004810190505b60648310611a4d5760648381611a4357611a42612851565b5b0492506002810190505b600a8310611a5c576001810190505b80915050919050565b6000808273ffffffffffffffffffffffffffffffffffffffff163b119050919050565b6000604051905090565b600080fd5b600080fd5b60007fffffffff0000000000000000000000000000000000000000000000000000000082169050919050565b611ad181611a9c565b8114611adc57600080fd5b50565b600081359050611aee81611ac8565b92915050565b600060208284031215611b0a57611b09611a92565b5b6000611b1884828501611adf565b91505092915050565b60008115159050919050565b611b3681611b21565b82525050565b6000602082019050611b516000830184611b2d565b92915050565b600081519050919050565b600082825260208201905092915050565b60005b83811015611b91578082015181840152602081019050611b76565b60008484015250505050565b6000601f19601f8301169050919050565b6000611bb982611b57565b611bc38185611b62565b9350611bd3818560208601611b73565b611bdc81611b9d565b840191505092915050565b60006020820190508181036000830152611c018184611bae565b905092915050565b6000819050919050565b611c1c81611c09565b8114611c2757600080fd5b50565b600081359050611c3981611c13565b92915050565b600060208284031215611c5557611c54611a92565b5b6000611c6384828501611c2a565b91505092915050565b600073ffffffffffffffffffffffffffffffffffffffff82169050919050565b6000611c9782611c6c565b9050919050565b611ca781611c8c565b82525050565b6000602082019050611cc26000830184611c9e565b92915050565b611cd181611c8c565b8114611cdc57600080fd5b50565b600081359050611cee81611cc8565b92915050565b60008060408385031215611d0b57611d0a611a92565b5b6000611d1985828601611cdf565b9250506020611d2a85828601611c2a565b9150509250929050565b611d3d81611c09565b82525050565b6000602082019050611d586000830184611d34565b92915050565b600080600060608486031215611d7757611d76611a92565b5b6000611d8586828701611cdf565b9350506020611d9686828701611cdf565b9250506040611da786828701611c2a565b9150509250925092565b600060208284031215611dc757611dc6611a92565b5b6000611dd584828501611cdf565b91505092915050565b60008060408385031215611df557611df4611a92565b5b6000611e0385828601611c2a565b9250506020611e1485828601611cdf565b9150509250929050565b611e2781611b21565b8114611e3257600080fd5b50565b600081359050611e4481611e1e565b92915050565b60008060408385031215611e6157611e60611a92565b5b6000611e6f85828601611cdf565b9250506020611e8085828601611e35565b9150509250929050565b600080fd5b600080fd5b7f4e487b7100000000000000000000000000000000000000000000000000000000600052604160045260246000fd5b611ecc82611b9d565b810181811067ffffffffffffffff82111715611eeb57611eea611e94565b5b80604052505050565b6000611efe611a88565b9050611f0a8282611ec3565b919050565b600067ffffffffffffffff821115611f2a57611f29611e94565b5b611f3382611b9d565b9050602081019050919050565b82818337600083830152505050565b6000611f62611f5d84611f0f565b611ef4565b905082815260208101848484011115611f7e57611f7d611e8f565b5b611f89848285611f40565b509392505050565b600082601f830112611fa657611fa5611e8a565b5b8135611fb6848260208601611f4f565b91505092915050565b60008060008060808587031215611fd957611fd8611a92565b5b6000611fe787828801611cdf565b9450506020611ff887828801611cdf565b935050604061200987828801611c2a565b925050606085013567ffffffffffffffff81111561202a57612029611a97565b5b61203687828801611f91565b91505092959194509250565b6000806040838503121561205957612058611a92565b5b600061206785828601611cdf565b925050602061207885828601611cdf565b9150509250929050565b7f4e487b7100000000000000000000000000000000000000000000000000000000600052602260045260246000fd5b600060028204905060018216806120c957607f821691505b6020821081036120dc576120db612082565b5b50919050565b7f4552433732313a20617070726f76616c20746f2063757272656e74206f776e6560008201527f7200000000000000000000000000000000000000000000000000000000000000602082015250565b600061213e602183611b62565b9150612149826120e2565b604082019050919050565b6000602082019050818103600083015261216d81612131565b9050919050565b7f4552433732313a20617070726f76652063616c6c6572206973206e6f7420746f60008201527f6b656e206f776e6572206f7220617070726f76656420666f7220616c6c000000602082015250565b60006121d0603d83611b62565b91506121db82612174565b604082019050919050565b600060208201905081810360008301526121ff816121c3565b9050919050565b7f4552433732313a2063616c6c6572206973206e6f7420746f6b656e206f776e6560008201527f72206f7220617070726f76656400000000000000000000000000000000000000602082015250565b6000612262602d83611b62565b915061226d82612206565b604082019050919050565b6000602082019050818103600083015261229181612255565b9050919050565b7f4e487b7100000000000000000000000000000000000000000000000000000000600052601160045260246000fd5b60006122d282611c09565b91506122dd83611c09565b92508282019050808211156122f5576122f4612298565b5b92915050565b7f4552433732313a20696e76616c696420746f6b656e2049440000000000000000600082015250565b6000612331601883611b62565b915061233c826122fb565b602082019050919050565b6000602082019050818103600083015261236081612324565b9050919050565b7f4552433732313a2061646472657373207a65726f206973206e6f74206120766160008201527f6c6964206f776e65720000000000000000000000000000000000000000000000602082015250565b60006123c3602983611b62565b91506123ce82612367565b604082019050919050565b600060208201905081810360008301526123f2816123b6565b9050919050565b600081905092915050565b600061240f82611b57565b61241981856123f9565b9350612429818560208601611b73565b80840191505092915050565b60006124418285612404565b915061244d8284612404565b91508190509392505050565b7f4f776e61626c653a206e6577206f776e657220697320746865207a65726f206160008201527f6464726573730000000000000000000000000000000000000000000000000000602082015250565b60006124b5602683611b62565b91506124c082612459565b604082019050919050565b600060208201905081810360008301526124e4816124a8565b9050919050565b7f4552433732313a207472616e736665722066726f6d20696e636f72726563742060008201527f6f776e6572000000000000000000000000000000000000000000000000000000602082015250565b6000612547602583611b62565b9150612552826124eb565b604082019050919050565b600060208201905081810360008301526125768161253a565b9050919050565b7f4552433732313a207472616e7366657220746f20746865207a65726f2061646460008201527f7265737300000000000000000000000000000000000000000000000000000000602082015250565b60006125d9602483611b62565b91506125e48261257d565b604082019050919050565b60006020820190508181036000830152612608816125cc565b9050919050565b7f4552433732313a206d696e7420746f20746865207a65726f2061646472657373600082015250565b6000612645602083611b62565b91506126508261260f565b602082019050919050565b6000602082019050818103600083015261267481612638565b9050919050565b7f4552433732313a20746f6b656e20616c7265616479206d696e74656400000000600082015250565b60006126b1601c83611b62565b91506126bc8261267b565b602082019050919050565b600060208201905081810360008301526126e0816126a4565b9050919050565b7f4f776e61626c653a2063616c6c6572206973206e6f7420746865206f776e6572600082015250565b600061271d602083611b62565b9150612728826126e7565b602082019050919050565b6000602082019050818103600083015261274c81612710565b9050919050565b7f4552433732313a20617070726f766520746f2063616c6c657200000000000000600082015250565b6000612789601983611b62565b915061279482612753565b602082019050919050565b600060208201905081810360008301526127b88161277c565b9050919050565b7f4552433732313a207472616e7366657220746f206e6f6e20455243373231526560008201527f63656976657220696d706c656d656e7465720000000000000000000000000000602082015250565b600061281b603283611b62565b9150612826826127bf565b604082019050919050565b6000602082019050818103600083015261284a8161280e565b9050919050565b7f4e487b7100000000000000000000000000000000000000000000000000000000600052601260045260246000fd5b600081519050919050565b600082825260208201905092915050565b60006128a782612880565b6128b1818561288b565b93506128c1818560208601611b73565b6128ca81611b9d565b840191505092915050565b60006080820190506128ea6000830187611c9e565b6128f76020830186611c9e565b6129046040830185611d34565b8181036060830152612916818461289c565b905095945050505050565b60008151905061293081611ac8565b92915050565b60006020828403121561294c5761294b611a92565b5b600061295a84828501612921565b9150509291505056fea2646970667358221220775a83bf1e60a99a09874a3dea81326b7d253b47c59d2ac1d89bd9a2bcf9b63164736f6c63430008140033",
  "linkReferences": {},
  "deployedLinkReferences": {}
}