{
  "_format": "hh-sol-artifact-1",
  "contractName": "LilaPoolAddressProvider",
  "sourceName": "contracts/LilaPoolAddressProvider.sol",
  "abi": [
    {
      "inputs": [
        {
          "internalType": "contract ILilaPosition",
          "name": "_position",
          "type": "address"
        }
      ],
      "stateMutability": "nonpayable",
      "type": "constructor"
    },
    {
      "inputs": [
        {
          "internalType": "contract LilaPool",
          "name": "local",
          "type": "address"
        }
      ],
      "name": "closePool",
      "outputs": [],
      "stateMutability": "nonpayable",
      "type": "function"
    },
    {
      "inputs": [
        {
          "internalType": "contract LilaPool",
          "name": "indenifier",
          "type": "address"
        },
        {
          "internalType": "address",
          "name": "to",
          "type": "address"
        },
        {
          "internalType": "uint256",
          "name": "tokenID",
          "type": "uint256"
        }
      ],
      "name": "mintPosition",
      "outputs": [],
      "stateMutability": "nonpayable",
      "type": "function"
    },
    {
      "inputs": [
        {
          "internalType": "uint256",
          "name": "",
          "type": "uint256"
        }
      ],
      "name": "openPools",
      "outputs": [
        {
          "internalType": "contract LilaPool",
          "name": "",
          "type": "address"
        }
      ],
      "stateMutability": "view",
      "type": "function"
    },
    {
      "inputs": [],
      "name": "openPoolsLength",
      "outputs": [
        {
          "internalType": "uint256",
          "name": "",
          "type": "uint256"
        }
      ],
      "stateMutability": "view",
      "type": "function"
    },
    {
      "inputs": [],
      "name": "position",
      "outputs": [
        {
          "internalType": "contract ILilaPosition",
          "name": "",
          "type": "address"
        }
      ],
      "stateMutability": "view",
      "type": "function"
    },
    {
      "inputs": [
        {
          "internalType": "uint256",
          "name": "_openPools",
          "type": "uint256"
        }
      ],
      "name": "setOpenPools",
      "outputs": [],
      "stateMutability": "nonpayable",
      "type": "function"
    },
    {
      "inputs": [
        {
          "internalType": "uint256",
          "name": "id",
          "type": "uint256"
        },
        {
          "internalType": "contract LilaPool",
          "name": "pool",
          "type": "address"
        }
      ],
      "name": "setPool",
      "outputs": [],
      "stateMutability": "nonpayable",
      "type": "function"
    }
  ],
  "bytecode": "0x60a06040523480156200001157600080fd5b5060405162005fcc38038062005fcc833981810160405281019062000037919062000130565b8073ffffffffffffffffffffffffffffffffffffffff1660808173ffffffffffffffffffffffffffffffffffffffff1681525050336000806101000a81548173ffffffffffffffffffffffffffffffffffffffff021916908373ffffffffffffffffffffffffffffffffffffffff1602179055505062000162565b600080fd5b600073ffffffffffffffffffffffffffffffffffffffff82169050919050565b6000620000e482620000b7565b9050919050565b6000620000f882620000d7565b9050919050565b6200010a81620000eb565b81146200011657600080fd5b50565b6000815190506200012a81620000ff565b92915050565b600060208284031215620001495762000148620000b2565b5b6000620001598482850162000119565b91505092915050565b608051615e406200018c60003960008181610189015281816108ce015261095f0152615e406000f3fe60806040523480156200001157600080fd5b5060043610620000885760003560e01c80632eaed10111620000635780632eaed10114620000f157806331e7eb8f1462000111578063a694cf321462000147578063f3a6ee4014620001675762000088565b806309218e91146200008d578063117492d914620000af57806329d0cdf414620000d1575b600080fd5b6200009762000187565b604051620000a6919062000cf3565b60405180910390f35b620000b9620001ab565b604051620000c8919062000d2b565b60405180910390f35b620000ef6004803603810190620000e9919062000da6565b620001b1565b005b6200010f600480360381019062000109919062000e3a565b6200085b565b005b6200012f600480360381019062000129919062000e96565b620009f3565b6040516200013e919062000eed565b60405180910390f35b6200016560048036038101906200015f919062000e96565b62000a26565b005b6200018560048036038101906200017f919062000f0a565b62000af8565b005b7f000000000000000000000000000000000000000000000000000000000000000081565b60035481565b8073ffffffffffffffffffffffffffffffffffffffff163373ffffffffffffffffffffffffffffffffffffffff161462000222576040517f08c379a0000000000000000000000000000000000000000000000000000000008152600401620002199062000fb2565b60405180910390fd5b308173ffffffffffffffffffffffffffffffffffffffff1663ec5568896040518163ffffffff1660e01b8152600401602060405180830381865afa1580156200026f573d6000803e3d6000fd5b505050506040513d601f19601f8201168201806040525081019062000295919062001019565b73ffffffffffffffffffffffffffffffffffffffff1663fc0c546a6040518163ffffffff1660e01b8152600401602060405180830381865afa158015620002e0573d6000803e3d6000fd5b505050506040513d601f19601f8201168201806040525081019062000306919062001090565b8273ffffffffffffffffffffffffffffffffffffffff1663ec5568896040518163ffffffff1660e01b8152600401602060405180830381865afa15801562000352573d6000803e3d6000fd5b505050506040513d601f19601f8201168201806040525081019062000378919062001019565b73ffffffffffffffffffffffffffffffffffffffff166316f0115b6040518163ffffffff1660e01b8152600401602060405180830381865afa158015620003c3573d6000803e3d6000fd5b505050506040513d601f19601f82011682018060405250810190620003e9919062001107565b8373ffffffffffffffffffffffffffffffffffffffff1663ec5568896040518163ffffffff1660e01b8152600401602060405180830381865afa15801562000435573d6000803e3d6000fd5b505050506040513d601f19601f820116820180604052508101906200045b919062001019565b73ffffffffffffffffffffffffffffffffffffffff1663a0c1f15e6040518163ffffffff1660e01b8152600401602060405180830381865afa158015620004a6573d6000803e3d6000fd5b505050506040513d601f19601f82011682018060405250810190620004cc919062001090565b8473ffffffffffffffffffffffffffffffffffffffff1663d955c5196040518163ffffffff1660e01b8152600401602060405180830381865afa15801562000518573d6000803e3d6000fd5b505050506040513d601f19601f820116820180604052508101906200053e919062001150565b8573ffffffffffffffffffffffffffffffffffffffff16633f49d3276040518163ffffffff1660e01b8152600401602060405180830381865afa1580156200058a573d6000803e3d6000fd5b505050506040513d601f19601f82011682018060405250810190620005b0919062001150565b8673ffffffffffffffffffffffffffffffffffffffff1663bd06f3f16040518163ffffffff1660e01b8152600401602060405180830381865afa158015620005fc573d6000803e3d6000fd5b505050506040513d601f19601f8201168201806040525081019062000622919062001150565b8773ffffffffffffffffffffffffffffffffffffffff1663578318096040518163ffffffff1660e01b8152600401602060405180830381865afa1580156200066e573d6000803e3d6000fd5b505050506040513d601f19601f8201168201806040525081019062000694919062001150565b604051620006a29062000c5a565b620006b5989796959493929190620011f1565b604051809103906000f080158015620006d2573d6000803e3d6000fd5b5060016000600260008573ffffffffffffffffffffffffffffffffffffffff1673ffffffffffffffffffffffffffffffffffffffff16815260200190815260200160002054815260200190815260200160002060006101000a81548173ffffffffffffffffffffffffffffffffffffffff021916908373ffffffffffffffffffffffffffffffffffffffff160217905550600260008273ffffffffffffffffffffffffffffffffffffffff1673ffffffffffffffffffffffffffffffffffffffff168152602001908152602001600020546002600060016000600260008773ffffffffffffffffffffffffffffffffffffffff1673ffffffffffffffffffffffffffffffffffffffff16815260200190815260200160002054815260200190815260200160002060009054906101000a900473ffffffffffffffffffffffffffffffffffffffff1673ffffffffffffffffffffffffffffffffffffffff1673ffffffffffffffffffffffffffffffffffffffff1681526020019081526020016000208190555050565b8273ffffffffffffffffffffffffffffffffffffffff163373ffffffffffffffffffffffffffffffffffffffff1614620008cc576040517f08c379a0000000000000000000000000000000000000000000000000000000008152600401620008c39062000fb2565b60405180910390fd5b7f000000000000000000000000000000000000000000000000000000000000000073ffffffffffffffffffffffffffffffffffffffff166340c10f1983836040518363ffffffff1660e01b81526004016200092992919062001290565b600060405180830381600087803b1580156200094457600080fd5b505af115801562000959573d6000803e3d6000fd5b505050507f000000000000000000000000000000000000000000000000000000000000000073ffffffffffffffffffffffffffffffffffffffff16637a472fee82856040518363ffffffff1660e01b8152600401620009ba929190620012bd565b600060405180830381600087803b158015620009d557600080fd5b505af1158015620009ea573d6000803e3d6000fd5b50505050505050565b60016020528060005260406000206000915054906101000a900473ffffffffffffffffffffffffffffffffffffffff1681565b60008054906101000a900473ffffffffffffffffffffffffffffffffffffffff1673ffffffffffffffffffffffffffffffffffffffff163373ffffffffffffffffffffffffffffffffffffffff16148062000aac57503073ffffffffffffffffffffffffffffffffffffffff163373ffffffffffffffffffffffffffffffffffffffff16145b62000aee576040517f08c379a000000000000000000000000000000000000000000000000000000000815260040162000ae5906200133a565b60405180910390fd5b8060038190555050565b60008054906101000a900473ffffffffffffffffffffffffffffffffffffffff1673ffffffffffffffffffffffffffffffffffffffff163373ffffffffffffffffffffffffffffffffffffffff16148062000b7e57503073ffffffffffffffffffffffffffffffffffffffff163373ffffffffffffffffffffffffffffffffffffffff16145b62000bc0576040517f08c379a000000000000000000000000000000000000000000000000000000000815260040162000bb7906200133a565b60405180910390fd5b806001600084815260200190815260200160002060006101000a81548173ffffffffffffffffffffffffffffffffffffffff021916908373ffffffffffffffffffffffffffffffffffffffff16021790555081600260008373ffffffffffffffffffffffffffffffffffffffff1673ffffffffffffffffffffffffffffffffffffffff168152602001908152602001600020819055505050565b614aae806200135d83390190565b600073ffffffffffffffffffffffffffffffffffffffff82169050919050565b6000819050919050565b600062000cb362000cad62000ca78462000c68565b62000c88565b62000c68565b9050919050565b600062000cc78262000c92565b9050919050565b600062000cdb8262000cba565b9050919050565b62000ced8162000cce565b82525050565b600060208201905062000d0a600083018462000ce2565b92915050565b6000819050919050565b62000d258162000d10565b82525050565b600060208201905062000d42600083018462000d1a565b92915050565b600080fd5b600062000d5a8262000c68565b9050919050565b600062000d6e8262000d4d565b9050919050565b62000d808162000d61565b811462000d8c57600080fd5b50565b60008135905062000da08162000d75565b92915050565b60006020828403121562000dbf5762000dbe62000d48565b5b600062000dcf8482850162000d8f565b91505092915050565b62000de38162000d4d565b811462000def57600080fd5b50565b60008135905062000e038162000dd8565b92915050565b62000e148162000d10565b811462000e2057600080fd5b50565b60008135905062000e348162000e09565b92915050565b60008060006060848603121562000e565762000e5562000d48565b5b600062000e668682870162000d8f565b935050602062000e798682870162000df2565b925050604062000e8c8682870162000e23565b9150509250925092565b60006020828403121562000eaf5762000eae62000d48565b5b600062000ebf8482850162000e23565b91505092915050565b600062000ed58262000cba565b9050919050565b62000ee78162000ec8565b82525050565b600060208201905062000f04600083018462000edc565b92915050565b6000806040838503121562000f245762000f2362000d48565b5b600062000f348582860162000e23565b925050602062000f478582860162000d8f565b9150509250929050565b600082825260208201905092915050565b7f596f7520617265206e6f74206120706f6f6c0000000000000000000000000000600082015250565b600062000f9a60128362000f51565b915062000fa78262000f62565b602082019050919050565b6000602082019050818103600083015262000fcd8162000f8b565b9050919050565b600062000fe18262000d4d565b9050919050565b62000ff38162000fd4565b811462000fff57600080fd5b50565b600081519050620010138162000fe8565b92915050565b60006020828403121562001032576200103162000d48565b5b6000620010428482850162001002565b91505092915050565b6000620010588262000d4d565b9050919050565b6200106a816200104b565b81146200107657600080fd5b50565b6000815190506200108a816200105f565b92915050565b600060208284031215620010a957620010a862000d48565b5b6000620010b98482850162001079565b91505092915050565b6000620010cf8262000d4d565b9050919050565b620010e181620010c2565b8114620010ed57600080fd5b50565b6000815190506200110181620010d6565b92915050565b60006020828403121562001120576200111f62000d48565b5b60006200113084828501620010f0565b91505092915050565b6000815190506200114a8162000e09565b92915050565b60006020828403121562001169576200116862000d48565b5b6000620011798482850162001139565b91505092915050565b60006200118f8262000cba565b9050919050565b620011a18162001182565b82525050565b6000620011b48262000cba565b9050919050565b620011c681620011a7565b82525050565b6000620011d98262000cba565b9050919050565b620011eb81620011cc565b82525050565b60006101008201905062001209600083018b62001196565b62001218602083018a620011bb565b620012276040830189620011e0565b620012366060830188620011bb565b62001245608083018762000d1a565b6200125460a083018662000d1a565b6200126360c083018562000d1a565b6200127260e083018462000d1a565b9998505050505050505050565b6200128a8162000d4d565b82525050565b6000604082019050620012a760008301856200127f565b620012b6602083018462000d1a565b9392505050565b6000604082019050620012d4600083018562000d1a565b620012e360208301846200127f565b9392505050565b7f4e6f74206d616e61676572206f72206f776e6572000000000000000000000000600082015250565b60006200132260148362000f51565b91506200132f82620012ea565b602082019050919050565b60006020820190508181036000830152620013558162001313565b905091905056fe6101206040523480156200001257600080fd5b5060405162004aae38038062004aae833981810160405281019062000038919062000387565b600160008190555087600160006101000a81548173ffffffffffffffffffffffffffffffffffffffff021916908373ffffffffffffffffffffffffffffffffffffffff1602179055506001600460006101000a81548160ff021916908315150217905550868686604051620000ad9062000236565b620000bb93929190620004e0565b604051809103906000f080158015620000d8573d6000803e3d6000fd5b5073ffffffffffffffffffffffffffffffffffffffff1660808173ffffffffffffffffffffffffffffffffffffffff16815250508360a081815250508260c081815250508160e0818152505080610100818152505060805173ffffffffffffffffffffffffffffffffffffffff1663fc0c546a6040518163ffffffff1660e01b8152600401602060405180830381865afa1580156200017b573d6000803e3d6000fd5b505050506040513d601f19601f82011682018060405250810190620001a191906200051d565b73ffffffffffffffffffffffffffffffffffffffff1663095ea7b360805160a0516040518363ffffffff1660e01b8152600401620001e192919062000571565b6020604051808303816000875af115801562000201573d6000803e3d6000fd5b505050506040513d601f19601f82011682018060405250810190620002279190620005db565b5050505050505050506200060d565b611ea78062002c0783390190565b600080fd5b600073ffffffffffffffffffffffffffffffffffffffff82169050919050565b6000620002768262000249565b9050919050565b60006200028a8262000269565b9050919050565b6200029c816200027d565b8114620002a857600080fd5b50565b600081519050620002bc8162000291565b92915050565b6000620002cf8262000269565b9050919050565b620002e181620002c2565b8114620002ed57600080fd5b50565b6000815190506200030181620002d6565b92915050565b6000620003148262000269565b9050919050565b620003268162000307565b81146200033257600080fd5b50565b60008151905062000346816200031b565b92915050565b6000819050919050565b62000361816200034c565b81146200036d57600080fd5b50565b600081519050620003818162000356565b92915050565b600080600080600080600080610100898b031215620003ab57620003aa62000244565b5b6000620003bb8b828c01620002ab565b9850506020620003ce8b828c01620002f0565b9750506040620003e18b828c0162000335565b9650506060620003f48b828c01620002f0565b9550506080620004078b828c0162000370565b94505060a06200041a8b828c0162000370565b93505060c06200042d8b828c0162000370565b92505060e0620004408b828c0162000370565b9150509295985092959890939650565b6000819050919050565b60006200047b620004756200046f8462000249565b62000450565b62000249565b9050919050565b60006200048f826200045a565b9050919050565b6000620004a38262000482565b9050919050565b620004b58162000496565b82525050565b6000620004c88262000482565b9050919050565b620004da81620004bb565b82525050565b6000606082019050620004f76000830186620004aa565b620005066020830185620004cf565b620005156040830184620004aa565b949350505050565b60006020828403121562000536576200053562000244565b5b60006200054684828501620002f0565b91505092915050565b6200055a8162000269565b82525050565b6200056b816200034c565b82525050565b60006040820190506200058860008301856200054f565b62000597602083018462000560565b9392505050565b60008115159050919050565b620005b5816200059e565b8114620005c157600080fd5b50565b600081519050620005d581620005aa565b92915050565b600060208284031215620005f457620005f362000244565b5b60006200060484828501620005c4565b91505092915050565b60805160a05160c05160e0516101005161250662000701600039600081816104af015281816105ba015281816106460152818161073f01528181610767015281816107cc0152610cf0015260008181610667015281816108250152818161146d015261154001526000818161094401528181610ccc01528181610e0e015281816111e901526112dd01526000818161097c01528181610d80015281816111c8015281816112b1015281816113f001528181611491015261169a0152600081816109f101528181610b3a01528181610e95015281816113b4015281816114bb015281816115be015261165e01526125066000f3fe608060405234801561001057600080fd5b50600436106100a95760003560e01c80636c0023f9116100715780636c0023f9146101585780639a40832114610176578063bd06f3f114610192578063d955c519146101b0578063e30bed41146101ce578063ec556889146101ec576100a9565b80630f32001c146100ae5780632e1a7d4d146100e25780633f49d327146100fe578063578318091461011c5780635f96dc111461013a575b600080fd5b6100c860048036038101906100c3919061174f565b61020a565b6040516100d99594939291906117a6565b60405180910390f35b6100fc60048036038101906100f7919061174f565b61025a565b005b610106610cca565b60405161011391906117f9565b60405180910390f35b610124610cee565b60405161013191906117f9565b60405180910390f35b610142610d12565b60405161014f91906117f9565b60405180910390f35b610160610d18565b60405161016d91906117f9565b60405180910390f35b610190600480360381019061018b9190611840565b610d1e565b005b61019a61146b565b6040516101a791906117f9565b60405180910390f35b6101b861148f565b6040516101c591906117f9565b60405180910390f35b6101d66114b3565b6040516101e391906117f9565b60405180910390f35b6101f46114b9565b60405161020191906118ff565b60405180910390f35b60086020528060005260406000206000915090508060000154908060010154908060020154908060030160009054906101000a900460ff16908060030160019054906101000a900460ff16905085565b6102626114dd565b600460009054906101000a900460ff16156102b2576040517f08c379a00000000000000000000000000000000000000000000000000000000081526004016102a990611977565b60405180910390fd5b3373ffffffffffffffffffffffffffffffffffffffff16600160009054906101000a900473ffffffffffffffffffffffffffffffffffffffff1673ffffffffffffffffffffffffffffffffffffffff166309218e916040518163ffffffff1660e01b8152600401602060405180830381865afa158015610336573d6000803e3d6000fd5b505050506040513d601f19601f8201168201806040525081019061035a91906119e7565b73ffffffffffffffffffffffffffffffffffffffff16636352211e836040518263ffffffff1660e01b815260040161039291906117f9565b602060405180830381865afa1580156103af573d6000803e3d6000fd5b505050506040513d601f19601f820116820180604052508101906103d39190611a40565b73ffffffffffffffffffffffffffffffffffffffff1614610429576040517f08c379a000000000000000000000000000000000000000000000000000000000815260040161042090611adf565b60405180910390fd5b6000600860008381526020019081526020016000206000015411610482576040517f08c379a000000000000000000000000000000000000000000000000000000000815260040161047990611b4b565b60405180910390fd5b60006008600083815260200190815260200160002060030160019054906101000a900460ff1615610823577f00000000000000000000000000000000000000000000000000000000000000006008600084815260200190815260200160002060020154036105b857600660009054906101000a900460ff166105075761050661152c565b5b6008600083815260200190815260200160002060030160009054906101000a900460ff161561056b576040517f08c379a000000000000000000000000000000000000000000000000000000000815260040161056290611bdd565b60405180910390fd5b6008600083815260200190815260200160002060000154905060016008600084815260200190815260200160002060030160006101000a81548160ff02191690831515021790555061081e565b7f0000000000000000000000000000000000000000000000000000000000000000600860008481526020019081526020016000206002015410610630576040517f08c379a000000000000000000000000000000000000000000000000000000000815260040161062790611c6f565b60405180910390fd5b6000600554426106409190611cbe565b905060007f00000000000000000000000000000000000000000000000000000000000000007f00000000000000000000000000000000000000000000000000000000000000006106909190611d21565b9050600081836106a09190611d21565b9050600081116106e5576040517f08c379a00000000000000000000000000000000000000000000000000000000081526004016106dc90611d9e565b60405180910390fd5b6008600086815260200190815260200160002060020154811161073d576040517f08c379a000000000000000000000000000000000000000000000000000000000815260040161073490611e30565b60405180910390fd5b7f0000000000000000000000000000000000000000000000000000000000000000811115610789577f000000000000000000000000000000000000000000000000000000000000000090505b60006008600087815260200190815260200160002060020154826107ad9190611cbe565b90508160086000888152602001908152602001600020600201819055507f000000000000000000000000000000000000000000000000000000000000000060086000888152602001908152602001600020600101548261080d9190611e50565b6108179190611d21565b9450505050505b6109ee565b7f00000000000000000000000000000000000000000000000000000000000000006005546108519190611e92565b421015610893576040517f08c379a000000000000000000000000000000000000000000000000000000000815260040161088a90611f12565b60405180910390fd5b6008600083815260200190815260200160002060030160009054906101000a900460ff16156108f7576040517f08c379a00000000000000000000000000000000000000000000000000000000081526004016108ee90611f7e565b60405180910390fd5b600660009054906101000a900460ff166109145761091361152c565b5b600160086000848152602001908152602001600020600201600082825461093b9190611e92565b925050819055507f000000000000000000000000000000000000000000000000000000000000000060086000848152602001908152602001600020600001547f00000000000000000000000000000000000000000000000000000000000000006007546109a89190611cbe565b6109b29190611e50565b6109bc9190611d21565b905060016008600084815260200190815260200160002060030160006101000a81548160ff0219169083151502179055505b807f000000000000000000000000000000000000000000000000000000000000000073ffffffffffffffffffffffffffffffffffffffff1663fc0c546a6040518163ffffffff1660e01b8152600401602060405180830381865afa158015610a5a573d6000803e3d6000fd5b505050506040513d601f19601f82011682018060405250810190610a7e9190611fdc565b73ffffffffffffffffffffffffffffffffffffffff166370a08231306040518263ffffffff1660e01b8152600401610ab69190612018565b602060405180830381865afa158015610ad3573d6000803e3d6000fd5b505050506040513d601f19601f82011682018060405250810190610af79190612048565b1015610b38576040517f08c379a0000000000000000000000000000000000000000000000000000000008152600401610b2f906120c1565b60405180910390fd5b7f000000000000000000000000000000000000000000000000000000000000000073ffffffffffffffffffffffffffffffffffffffff1663fc0c546a6040518163ffffffff1660e01b8152600401602060405180830381865afa158015610ba3573d6000803e3d6000fd5b505050506040513d601f19601f82011682018060405250810190610bc79190611fdc565b73ffffffffffffffffffffffffffffffffffffffff1663a9059cbb33836040518363ffffffff1660e01b8152600401610c019291906120e1565b6020604051808303816000875af1158015610c20573d6000803e3d6000fd5b505050506040513d601f19601f82011682018060405250810190610c44919061211f565b610c83576040517f08c379a0000000000000000000000000000000000000000000000000000000008152600401610c7a90612198565b60405180910390fd5b7f4de79efceb38f14026173a22fb2113555409a7a88343c2a780064d2ce0a00a87818342604051610cb6939291906121b8565b60405180910390a150610cc761170a565b50565b7f000000000000000000000000000000000000000000000000000000000000000081565b7f000000000000000000000000000000000000000000000000000000000000000081565b60055481565b60035481565b610d266114dd565b600460009054906101000a900460ff16610d75576040517f08c379a0000000000000000000000000000000000000000000000000000000008152600401610d6c9061223b565b60405180910390fd5b8015610e09576002547f0000000000000000000000000000000000000000000000000000000000000000610da99190611cbe565b821115610deb576040517f08c379a0000000000000000000000000000000000000000000000000000000008152600401610de2906122a7565b60405180910390fd5b8160026000828254610dfd9190611e92565b92505081905550610e93565b6003547f0000000000000000000000000000000000000000000000000000000000000000610e379190611cbe565b821115610e79576040517f08c379a0000000000000000000000000000000000000000000000000000000008152600401610e70906122a7565b60405180910390fd5b8160036000828254610e8b9190611e92565b925050819055505b7f000000000000000000000000000000000000000000000000000000000000000073ffffffffffffffffffffffffffffffffffffffff1663fc0c546a6040518163ffffffff1660e01b8152600401602060405180830381865afa158015610efe573d6000803e3d6000fd5b505050506040513d601f19601f82011682018060405250810190610f229190611fdc565b73ffffffffffffffffffffffffffffffffffffffff166323b872dd3330856040518463ffffffff1660e01b8152600401610f5e939291906122c7565b6020604051808303816000875af1158015610f7d573d6000803e3d6000fd5b505050506040513d601f19601f82011682018060405250810190610fa1919061211f565b610fe0576040517f08c379a0000000000000000000000000000000000000000000000000000000008152600401610fd790612198565b60405180910390fd5b6000600160009054906101000a900473ffffffffffffffffffffffffffffffffffffffff1673ffffffffffffffffffffffffffffffffffffffff166309218e916040518163ffffffff1660e01b8152600401602060405180830381865afa15801561104f573d6000803e3d6000fd5b505050506040513d601f19601f8201168201806040525081019061107391906119e7565b73ffffffffffffffffffffffffffffffffffffffff166318160ddd6040518163ffffffff1660e01b8152600401602060405180830381865afa1580156110bd573d6000803e3d6000fd5b505050506040513d601f19601f820116820180604052508101906110e19190612048565b9050600160009054906101000a900473ffffffffffffffffffffffffffffffffffffffff1673ffffffffffffffffffffffffffffffffffffffff16632eaed1013033846040518463ffffffff1660e01b81526004016111429392919061231f565b600060405180830381600087803b15801561115c57600080fd5b505af1158015611170573d6000803e3d6000fd5b505050507f776df1c3410284df4434e1c3fab8f3b42ae44ac82f46062c8c1d711a8acc016e8383833033426040516111ad96959493929190612356565b60405180910390a16040518060a001604052808481526020017f00000000000000000000000000000000000000000000000000000000000000007f0000000000000000000000000000000000000000000000000000000000000000866112139190611e50565b61121d9190611d21565b8152602001600081526020016000151581526020018315158152506008600083815260200190815260200160002060008201518160000155602082015181600101556040820151816002015560608201518160030160006101000a81548160ff02191690831515021790555060808201518160030160016101000a81548160ff0219169083151502179055509050506002547f00000000000000000000000000000000000000000000000000000000000000001480156112fe57506003547f0000000000000000000000000000000000000000000000000000000000000000145b1561145e576000600460006101000a81548160ff02191690831515021790555042600581905550600160009054906101000a900473ffffffffffffffffffffffffffffffffffffffff1673ffffffffffffffffffffffffffffffffffffffff166329d0cdf4306040518263ffffffff1660e01b815260040161138091906123b7565b600060405180830381600087803b15801561139a57600080fd5b505af11580156113ae573d6000803e3d6000fd5b505050507f000000000000000000000000000000000000000000000000000000000000000073ffffffffffffffffffffffffffffffffffffffff1663b6b55f257f00000000000000000000000000000000000000000000000000000000000000006040518263ffffffff1660e01b815260040161142b91906117f9565b600060405180830381600087803b15801561144557600080fd5b505af1158015611459573d6000803e3d6000fd5b505050505b5061146761170a565b5050565b7f000000000000000000000000000000000000000000000000000000000000000081565b7f000000000000000000000000000000000000000000000000000000000000000081565b60025481565b7f000000000000000000000000000000000000000000000000000000000000000081565b600260005403611522576040517f08c379a00000000000000000000000000000000000000000000000000000000081526004016115199061241e565b60405180910390fd5b6002600081905550565b60006005544261153c9190611cbe565b90507f00000000000000000000000000000000000000000000000000000000000000008110156115a1576040517f08c379a0000000000000000000000000000000000000000000000000000000008152600401611598906124b0565b60405180910390fd5b6001600660006101000a81548160ff0219169083151502179055507f000000000000000000000000000000000000000000000000000000000000000073ffffffffffffffffffffffffffffffffffffffff166391b24b58306040518263ffffffff1660e01b81526004016116159190612018565b602060405180830381865afa158015611632573d6000803e3d6000fd5b505050506040513d601f19601f820116820180604052508101906116569190612048565b6007819055507f000000000000000000000000000000000000000000000000000000000000000073ffffffffffffffffffffffffffffffffffffffff16632e1a7d4d7f00000000000000000000000000000000000000000000000000000000000000006040518263ffffffff1660e01b81526004016116d591906117f9565b600060405180830381600087803b1580156116ef57600080fd5b505af1158015611703573d6000803e3d6000fd5b5050505050565b6001600081905550565b600080fd5b6000819050919050565b61172c81611719565b811461173757600080fd5b50565b60008135905061174981611723565b92915050565b60006020828403121561176557611764611714565b5b60006117738482850161173a565b91505092915050565b61178581611719565b82525050565b60008115159050919050565b6117a08161178b565b82525050565b600060a0820190506117bb600083018861177c565b6117c8602083018761177c565b6117d5604083018661177c565b6117e26060830185611797565b6117ef6080830184611797565b9695505050505050565b600060208201905061180e600083018461177c565b92915050565b61181d8161178b565b811461182857600080fd5b50565b60008135905061183a81611814565b92915050565b6000806040838503121561185757611856611714565b5b60006118658582860161173a565b92505060206118768582860161182b565b9150509250929050565b600073ffffffffffffffffffffffffffffffffffffffff82169050919050565b6000819050919050565b60006118c56118c06118bb84611880565b6118a0565b611880565b9050919050565b60006118d7826118aa565b9050919050565b60006118e9826118cc565b9050919050565b6118f9816118de565b82525050565b600060208201905061191460008301846118f0565b92915050565b600082825260208201905092915050565b7f506f6f6c206973204f70656e2100000000000000000000000000000000000000600082015250565b6000611961600d8361191a565b915061196c8261192b565b602082019050919050565b6000602082019050818103600083015261199081611954565b9050919050565b60006119a282611880565b9050919050565b60006119b482611997565b9050919050565b6119c4816119a9565b81146119cf57600080fd5b50565b6000815190506119e1816119bb565b92915050565b6000602082840312156119fd576119fc611714565b5b6000611a0b848285016119d2565b91505092915050565b611a1d81611997565b8114611a2857600080fd5b50565b600081519050611a3a81611a14565b92915050565b600060208284031215611a5657611a55611714565b5b6000611a6484828501611a2b565b91505092915050565b7f596f7520646f206e6f7420686176652061636365737320746f2077697468647260008201527f61772077697468207468697320546f6b656e4944000000000000000000000000602082015250565b6000611ac960348361191a565b9150611ad482611a6d565b604082019050919050565b60006020820190508181036000830152611af881611abc565b9050919050565b7f596f752068617665206e6f2076616c7565000000000000000000000000000000600082015250565b6000611b3560118361191a565b9150611b4082611aff565b602082019050919050565b60006020820190508181036000830152611b6481611b28565b9050919050565b7f596f75206861766520616c72656164792072656365696576656420796f75722060008201527f7072696e636970616c2100000000000000000000000000000000000000000000602082015250565b6000611bc7602a8361191a565b9150611bd282611b6b565b604082019050919050565b60006020820190508181036000830152611bf681611bba565b9050919050565b7f596f75206861766520616c726561647920636f6c6c656374656420616c6c207960008201527f6f7572207061796d656e74732100000000000000000000000000000000000000602082015250565b6000611c59602d8361191a565b9150611c6482611bfd565b604082019050919050565b60006020820190508181036000830152611c8881611c4c565b9050919050565b7f4e487b7100000000000000000000000000000000000000000000000000000000600052601160045260246000fd5b6000611cc982611719565b9150611cd483611719565b9250828203905081811115611cec57611ceb611c8f565b5b92915050565b7f4e487b7100000000000000000000000000000000000000000000000000000000600052601260045260246000fd5b6000611d2c82611719565b9150611d3783611719565b925082611d4757611d46611cf2565b5b828204905092915050565b7f546f6f204561726c792100000000000000000000000000000000000000000000600082015250565b6000611d88600a8361191a565b9150611d9382611d52565b602082019050919050565b60006020820190508181036000830152611db781611d7b565b9050919050565b7f596f75206861766520616c726561647920636f6c6c656374656420616c6c207960008201527f6f7572206f70656e207061796d656e7473210000000000000000000000000000602082015250565b6000611e1a60328361191a565b9150611e2582611dbe565b604082019050919050565b60006020820190508181036000830152611e4981611e0d565b9050919050565b6000611e5b82611719565b9150611e6683611719565b9250828202611e7481611719565b91508282048414831517611e8b57611e8a611c8f565b5b5092915050565b6000611e9d82611719565b9150611ea883611719565b9250828201905080821115611ec057611ebf611c8f565b5b92915050565b7f546f6f204561726c7920746f2077697468647261772100000000000000000000600082015250565b6000611efc60168361191a565b9150611f0782611ec6565b602082019050919050565b60006020820190508181036000830152611f2b81611eef565b9050919050565b7f596f75206861766520616c72656164792077697468647261776e000000000000600082015250565b6000611f68601a8361191a565b9150611f7382611f32565b602082019050919050565b60006020820190508181036000830152611f9781611f5b565b9050919050565b6000611fa982611997565b9050919050565b611fb981611f9e565b8114611fc457600080fd5b50565b600081519050611fd681611fb0565b92915050565b600060208284031215611ff257611ff1611714565b5b600061200084828501611fc7565b91505092915050565b61201281611997565b82525050565b600060208201905061202d6000830184612009565b92915050565b60008151905061204281611723565b92915050565b60006020828403121561205e5761205d611714565b5b600061206c84828501612033565b91505092915050565b7f496e73756666696369656e742062616c616e6365210000000000000000000000600082015250565b60006120ab60158361191a565b91506120b682612075565b602082019050919050565b600060208201905081810360008301526120da8161209e565b9050919050565b60006040820190506120f66000830185612009565b612103602083018461177c565b9392505050565b60008151905061211981611814565b92915050565b60006020828403121561213557612134611714565b5b60006121438482850161210a565b91505092915050565b7f5472616e73666572206661696c65642100000000000000000000000000000000600082015250565b600061218260108361191a565b915061218d8261214c565b602082019050919050565b600060208201905081810360008301526121b181612175565b9050919050565b60006060820190506121cd600083018661177c565b6121da602083018561177c565b6121e7604083018461177c565b949350505050565b7f506f6f6c206973204e6f74204f70656e21000000000000000000000000000000600082015250565b600061222560118361191a565b9150612230826121ef565b602082019050919050565b6000602082019050818103600083015261225481612218565b9050919050565b7f496e76616c696420616d6f756e74000000000000000000000000000000000000600082015250565b6000612291600e8361191a565b915061229c8261225b565b602082019050919050565b600060208201905081810360008301526122c081612284565b9050919050565b60006060820190506122dc6000830186612009565b6122e96020830185612009565b6122f6604083018461177c565b949350505050565b6000612309826118cc565b9050919050565b612319816122fe565b82525050565b60006060820190506123346000830186612310565b6123416020830185612009565b61234e604083018461177c565b949350505050565b600060c08201905061236b600083018961177c565b6123786020830188611797565b612385604083018761177c565b6123926060830186612009565b61239f6080830185612009565b6123ac60a083018461177c565b979650505050505050565b60006020820190506123cc6000830184612310565b92915050565b7f5265656e7472616e637947756172643a207265656e7472616e742063616c6c00600082015250565b6000612408601f8361191a565b9150612413826123d2565b602082019050919050565b60006020820190508181036000830152612437816123fb565b9050919050565b7f497420697320746f6f206561726c7920746f20776974686472617720796f757260008201527f207072696e636970616c21000000000000000000000000000000000000000000602082015250565b600061249a602b8361191a565b91506124a58261243e565b604082019050919050565b600060208201905081810360008301526124c98161248d565b905091905056fea2646970667358221220805cc90b57d5df3433911983da3139a692b1688b99e0062551ddc34bacec58e964736f6c634300081400336101006040523480156200001257600080fd5b5060405162001ea738038062001ea78339818101604052810190620000389190620003da565b6001600081905550600073ffffffffffffffffffffffffffffffffffffffff168373ffffffffffffffffffffffffffffffffffffffff1603620000b2576040517f08c379a0000000000000000000000000000000000000000000000000000000008152600401620000a99062000497565b60405180910390fd5b600073ffffffffffffffffffffffffffffffffffffffff168273ffffffffffffffffffffffffffffffffffffffff160362000124576040517f08c379a00000000000000000000000000000000000000000000000000000000081526004016200011b9062000509565b60405180910390fd5b600073ffffffffffffffffffffffffffffffffffffffff168173ffffffffffffffffffffffffffffffffffffffff160362000196576040517f08c379a00000000000000000000000000000000000000000000000000000000081526004016200018d906200057b565b60405180910390fd5b8273ffffffffffffffffffffffffffffffffffffffff1660a08173ffffffffffffffffffffffffffffffffffffffff16815250508173ffffffffffffffffffffffffffffffffffffffff1660c08173ffffffffffffffffffffffffffffffffffffffff16815250508073ffffffffffffffffffffffffffffffffffffffff1660e08173ffffffffffffffffffffffffffffffffffffffff16815250503373ffffffffffffffffffffffffffffffffffffffff1660808173ffffffffffffffffffffffffffffffffffffffff168152505060a05173ffffffffffffffffffffffffffffffffffffffff1663095ea7b360c0517fffffffffffffffffffffffffffffffffffffffffffffffffffffffffffffffff6040518363ffffffff1660e01b8152600401620002c7929190620005c9565b6020604051808303816000875af1158015620002e7573d6000803e3d6000fd5b505050506040513d601f19601f820116820180604052508101906200030d919062000633565b5050505062000665565b600080fd5b600073ffffffffffffffffffffffffffffffffffffffff82169050919050565b600062000349826200031c565b9050919050565b60006200035d826200033c565b9050919050565b6200036f8162000350565b81146200037b57600080fd5b50565b6000815190506200038f8162000364565b92915050565b6000620003a2826200033c565b9050919050565b620003b48162000395565b8114620003c057600080fd5b50565b600081519050620003d481620003a9565b92915050565b600080600060608486031215620003f657620003f562000317565b5b600062000406868287016200037e565b93505060206200041986828701620003c3565b92505060406200042c868287016200037e565b9150509250925092565b600082825260208201905092915050565b7f496e76616c696420746f6b656e00000000000000000000000000000000000000600082015250565b60006200047f600d8362000436565b91506200048c8262000447565b602082019050919050565b60006020820190508181036000830152620004b28162000470565b9050919050565b7f496e76616c696420706f6f6c0000000000000000000000000000000000000000600082015250565b6000620004f1600c8362000436565b9150620004fe82620004b9565b602082019050919050565b600060208201905081810360008301526200052481620004e2565b9050919050565b7f496e76616c69642061546f6b656e000000000000000000000000000000000000600082015250565b600062000563600e8362000436565b915062000570826200052b565b602082019050919050565b60006020820190508181036000830152620005968162000554565b9050919050565b620005a8816200033c565b82525050565b6000819050919050565b620005c381620005ae565b82525050565b6000604082019050620005e060008301856200059d565b620005ef6020830184620005b8565b9392505050565b60008115159050919050565b6200060d81620005f6565b81146200061957600080fd5b50565b6000815190506200062d8162000602565b92915050565b6000602082840312156200064c576200064b62000317565b5b60006200065c848285016200061c565b91505092915050565b60805160a05160c05160e0516117a6620007016000396000818161025c015281816103520152818161060b0152818161075c015261092001526000818161012b015281816104a401528181610565015281816106a70152610a0601526000818161041f0152818161046701528181610529015281816106e3015281816108ab0152610a42015260008181610157015261037e01526117a66000f3fe608060405234801561001057600080fd5b50600436106100625760003560e01c806316f0115b146100675780632e1a7d4d1461008557806391b24b58146100a1578063a0c1f15e146100d1578063b6b55f25146100ef578063fc0c546a1461010b575b600080fd5b61006f610129565b60405161007c9190610ee0565b60405180910390f35b61009f600480360381019061009a9190610f36565b61014d565b005b6100bb60048036038101906100b69190610fa1565b610243565b6040516100c89190610fdd565b60405180910390f35b6100d9610350565b6040516100e69190611019565b60405180910390f35b61010960048036038101906101049190610f36565b610374565b005b6101136108a9565b6040516101209190611019565b60405180910390f35b7f000000000000000000000000000000000000000000000000000000000000000081565b6101556108cd565b7f000000000000000000000000000000000000000000000000000000000000000073ffffffffffffffffffffffffffffffffffffffff163373ffffffffffffffffffffffffffffffffffffffff16146101ad57600080fd5b600160003373ffffffffffffffffffffffffffffffffffffffff1673ffffffffffffffffffffffffffffffffffffffff1681526020019081526020016000205481111561022f576040517f08c379a000000000000000000000000000000000000000000000000000000000815260040161022690611091565b60405180910390fd5b6102388161091c565b610240610b39565b50565b60008060025403610257576000905061034b565b6002547f000000000000000000000000000000000000000000000000000000000000000073ffffffffffffffffffffffffffffffffffffffff166370a08231306040518263ffffffff1660e01b81526004016102b391906110c0565b602060405180830381865afa1580156102d0573d6000803e3d6000fd5b505050506040513d601f19601f820116820180604052508101906102f491906110f0565b600160008573ffffffffffffffffffffffffffffffffffffffff1673ffffffffffffffffffffffffffffffffffffffff1681526020019081526020016000205461033e919061114c565b61034891906111bd565b90505b919050565b7f000000000000000000000000000000000000000000000000000000000000000081565b61037c6108cd565b7f000000000000000000000000000000000000000000000000000000000000000073ffffffffffffffffffffffffffffffffffffffff163373ffffffffffffffffffffffffffffffffffffffff16146103d457600080fd5b60008111610417576040517f08c379a000000000000000000000000000000000000000000000000000000000815260040161040e9061123a565b60405180910390fd5b6104643330837f000000000000000000000000000000000000000000000000000000000000000073ffffffffffffffffffffffffffffffffffffffff16610b43909392919063ffffffff16565b807f000000000000000000000000000000000000000000000000000000000000000073ffffffffffffffffffffffffffffffffffffffff1663dd62ed3e307f00000000000000000000000000000000000000000000000000000000000000006040518363ffffffff1660e01b81526004016104e092919061125a565b602060405180830381865afa1580156104fd573d6000803e3d6000fd5b505050506040513d601f19601f8201168201806040525081019061052191906110f0565b1015610607577f000000000000000000000000000000000000000000000000000000000000000073ffffffffffffffffffffffffffffffffffffffff1663095ea7b37f00000000000000000000000000000000000000000000000000000000000000007fffffffffffffffffffffffffffffffffffffffffffffffffffffffffffffffff6040518363ffffffff1660e01b81526004016105c2929190611283565b6020604051808303816000875af11580156105e1573d6000803e3d6000fd5b505050506040513d601f19601f8201168201806040525081019061060591906112e4565b505b60007f000000000000000000000000000000000000000000000000000000000000000073ffffffffffffffffffffffffffffffffffffffff166370a08231306040518263ffffffff1660e01b815260040161066291906110c0565b602060405180830381865afa15801561067f573d6000803e3d6000fd5b505050506040513d601f19601f820116820180604052508101906106a391906110f0565b90507f000000000000000000000000000000000000000000000000000000000000000073ffffffffffffffffffffffffffffffffffffffff1663617ba0377f0000000000000000000000000000000000000000000000000000000000000000843060006040518563ffffffff1660e01b8152600401610725949392919061135a565b600060405180830381600087803b15801561073f57600080fd5b505af1158015610753573d6000803e3d6000fd5b505050506000817f000000000000000000000000000000000000000000000000000000000000000073ffffffffffffffffffffffffffffffffffffffff166370a08231306040518263ffffffff1660e01b81526004016107b391906110c0565b602060405180830381865afa1580156107d0573d6000803e3d6000fd5b505050506040513d601f19601f820116820180604052508101906107f491906110f0565b6107fe919061139f565b905060008190506000600254111561082c57826002548361081f919061114c565b61082991906111bd565b90505b806002600082825461083e91906113d3565b9250508190555080600160003373ffffffffffffffffffffffffffffffffffffffff1673ffffffffffffffffffffffffffffffffffffffff168152602001908152602001600020600082825461089491906113d3565b925050819055505050506108a6610b39565b50565b7f000000000000000000000000000000000000000000000000000000000000000081565b600260005403610912576040517f08c379a000000000000000000000000000000000000000000000000000000000815260040161090990611453565b60405180910390fd5b6002600081905550565b60007f000000000000000000000000000000000000000000000000000000000000000073ffffffffffffffffffffffffffffffffffffffff166370a08231306040518263ffffffff1660e01b815260040161097791906110c0565b602060405180830381865afa158015610994573d6000803e3d6000fd5b505050506040513d601f19601f820116820180604052508101906109b891906110f0565b9050600060025482846109cb919061114c565b6109d591906111bd565b90506002548303610a04577fffffffffffffffffffffffffffffffffffffffffffffffffffffffffffffffff90505b7f000000000000000000000000000000000000000000000000000000000000000073ffffffffffffffffffffffffffffffffffffffff166369328dec7f000000000000000000000000000000000000000000000000000000000000000083336040518463ffffffff1660e01b8152600401610a8193929190611473565b6020604051808303816000875af1158015610aa0573d6000803e3d6000fd5b505050506040513d601f19601f82011682018060405250810190610ac491906110f0565b5082600160003373ffffffffffffffffffffffffffffffffffffffff1673ffffffffffffffffffffffffffffffffffffffff1681526020019081526020016000206000828254610b14919061139f565b925050819055508260026000828254610b2d919061139f565b92505081905550505050565b6001600081905550565b610bc6846323b872dd60e01b858585604051602401610b64939291906114aa565b604051602081830303815290604052907bffffffffffffffffffffffffffffffffffffffffffffffffffffffff19166020820180517bffffffffffffffffffffffffffffffffffffffffffffffffffffffff8381831617835250505050610bcc565b50505050565b6000610c2e826040518060400160405280602081526020017f5361666545524332303a206c6f772d6c6576656c2063616c6c206661696c65648152508573ffffffffffffffffffffffffffffffffffffffff16610c949092919063ffffffff16565b9050600081511480610c50575080806020019051810190610c4f91906112e4565b5b610c8f576040517f08c379a0000000000000000000000000000000000000000000000000000000008152600401610c8690611553565b60405180910390fd5b505050565b6060610ca38484600085610cac565b90509392505050565b606082471015610cf1576040517f08c379a0000000000000000000000000000000000000000000000000000000008152600401610ce8906115e5565b60405180910390fd5b6000808673ffffffffffffffffffffffffffffffffffffffff168587604051610d1a9190611676565b60006040518083038185875af1925050503d8060008114610d57576040519150601f19603f3d011682016040523d82523d6000602084013e610d5c565b606091505b5091509150610d6d87838387610d79565b92505050949350505050565b60608315610ddb576000835103610dd357610d9385610dee565b610dd2576040517f08c379a0000000000000000000000000000000000000000000000000000000008152600401610dc9906116d9565b60405180910390fd5b5b829050610de6565b610de58383610e11565b5b949350505050565b6000808273ffffffffffffffffffffffffffffffffffffffff163b119050919050565b600082511115610e245781518083602001fd5b806040517f08c379a0000000000000000000000000000000000000000000000000000000008152600401610e58919061174e565b60405180910390fd5b600073ffffffffffffffffffffffffffffffffffffffff82169050919050565b6000819050919050565b6000610ea6610ea1610e9c84610e61565b610e81565b610e61565b9050919050565b6000610eb882610e8b565b9050919050565b6000610eca82610ead565b9050919050565b610eda81610ebf565b82525050565b6000602082019050610ef56000830184610ed1565b92915050565b600080fd5b6000819050919050565b610f1381610f00565b8114610f1e57600080fd5b50565b600081359050610f3081610f0a565b92915050565b600060208284031215610f4c57610f4b610efb565b5b6000610f5a84828501610f21565b91505092915050565b6000610f6e82610e61565b9050919050565b610f7e81610f63565b8114610f8957600080fd5b50565b600081359050610f9b81610f75565b92915050565b600060208284031215610fb757610fb6610efb565b5b6000610fc584828501610f8c565b91505092915050565b610fd781610f00565b82525050565b6000602082019050610ff26000830184610fce565b92915050565b600061100382610ead565b9050919050565b61101381610ff8565b82525050565b600060208201905061102e600083018461100a565b92915050565b600082825260208201905092915050565b7f496e76616c6964207368617265416d6f756e7400000000000000000000000000600082015250565b600061107b601383611034565b915061108682611045565b602082019050919050565b600060208201905081810360008301526110aa8161106e565b9050919050565b6110ba81610f63565b82525050565b60006020820190506110d560008301846110b1565b92915050565b6000815190506110ea81610f0a565b92915050565b60006020828403121561110657611105610efb565b5b6000611114848285016110db565b91505092915050565b7f4e487b7100000000000000000000000000000000000000000000000000000000600052601160045260246000fd5b600061115782610f00565b915061116283610f00565b925082820261117081610f00565b915082820484148315176111875761118661111d565b5b5092915050565b7f4e487b7100000000000000000000000000000000000000000000000000000000600052601260045260246000fd5b60006111c882610f00565b91506111d383610f00565b9250826111e3576111e261118e565b5b828204905092915050565b7f496e76616c696420616d6f756e74000000000000000000000000000000000000600082015250565b6000611224600e83611034565b915061122f826111ee565b602082019050919050565b6000602082019050818103600083015261125381611217565b9050919050565b600060408201905061126f60008301856110b1565b61127c60208301846110b1565b9392505050565b600060408201905061129860008301856110b1565b6112a56020830184610fce565b9392505050565b60008115159050919050565b6112c1816112ac565b81146112cc57600080fd5b50565b6000815190506112de816112b8565b92915050565b6000602082840312156112fa576112f9610efb565b5b6000611308848285016112cf565b91505092915050565b6000819050919050565b600061ffff82169050919050565b600061134461133f61133a84611311565b610e81565b61131b565b9050919050565b61135481611329565b82525050565b600060808201905061136f60008301876110b1565b61137c6020830186610fce565b61138960408301856110b1565b611396606083018461134b565b95945050505050565b60006113aa82610f00565b91506113b583610f00565b92508282039050818111156113cd576113cc61111d565b5b92915050565b60006113de82610f00565b91506113e983610f00565b92508282019050808211156114015761140061111d565b5b92915050565b7f5265656e7472616e637947756172643a207265656e7472616e742063616c6c00600082015250565b600061143d601f83611034565b915061144882611407565b602082019050919050565b6000602082019050818103600083015261146c81611430565b9050919050565b600060608201905061148860008301866110b1565b6114956020830185610fce565b6114a260408301846110b1565b949350505050565b60006060820190506114bf60008301866110b1565b6114cc60208301856110b1565b6114d96040830184610fce565b949350505050565b7f5361666545524332303a204552433230206f7065726174696f6e20646964206e60008201527f6f74207375636365656400000000000000000000000000000000000000000000602082015250565b600061153d602a83611034565b9150611548826114e1565b604082019050919050565b6000602082019050818103600083015261156c81611530565b9050919050565b7f416464726573733a20696e73756666696369656e742062616c616e636520666f60008201527f722063616c6c0000000000000000000000000000000000000000000000000000602082015250565b60006115cf602683611034565b91506115da82611573565b604082019050919050565b600060208201905081810360008301526115fe816115c2565b9050919050565b600081519050919050565b600081905092915050565b60005b8381101561163957808201518184015260208101905061161e565b60008484015250505050565b600061165082611605565b61165a8185611610565b935061166a81856020860161161b565b80840191505092915050565b60006116828284611645565b915081905092915050565b7f416464726573733a2063616c6c20746f206e6f6e2d636f6e7472616374000000600082015250565b60006116c3601d83611034565b91506116ce8261168d565b602082019050919050565b600060208201905081810360008301526116f2816116b6565b9050919050565b600081519050919050565b6000601f19601f8301169050919050565b6000611720826116f9565b61172a8185611034565b935061173a81856020860161161b565b61174381611704565b840191505092915050565b600060208201905081810360008301526117688184611715565b90509291505056fea264697066735822122092abba2fcc0d3616a9396c5eb434de3ceee63c3377f5a3fb6857506b1e1d54e264736f6c63430008140033a26469706673582212201c1aa6be1781f7bf2df6d02f4cc2f40c4fb5cfc9ec51be685667fe02c882131564736f6c63430008140033",
  "linkReferences": {},
  "deployedLinkReferences": {}
}