{
  "_format": "hh-sol-artifact-1",
  "contractName": "LilaPosition",
  "sourceName": "contracts/LilaPosition.sol",
  "abi": [
    {
      "inputs": [],
      "stateMutability": "nonpayable",
      "type": "constructor"
    },
    {
      "anonymous": false,
      "inputs": [
        {
          "indexed": true,
          "internalType": "address",
          "name": "owner",
          "type": "address"
        },
        {
          "indexed": true,
          "internalType": "address",
          "name": "approved",
          "type": "address"
        },
        {
          "indexed": true,
          "internalType": "uint256",
          "name": "tokenId",
          "type": "uint256"
        }
      ],
      "name": "Approval",
      "type": "event"
    },
    {
      "anonymous": false,
      "inputs": [
        {
          "indexed": true,
          "internalType": "address",
          "name": "owner",
          "type": "address"
        },
        {
          "indexed": true,
          "internalType": "address",
          "name": "operator",
          "type": "address"
        },
        {
          "indexed": false,
          "internalType": "bool",
          "name": "approved",
          "type": "bool"
        }
      ],
      "name": "ApprovalForAll",
      "type": "event"
    },
    {
      "anonymous": false,
      "inputs": [
        {
          "indexed": true,
          "internalType": "address",
          "name": "from",
          "type": "address"
        },
        {
          "indexed": true,
          "internalType": "address",
          "name": "to",
          "type": "address"
        },
        {
          "indexed": true,
          "internalType": "uint256",
          "name": "tokenId",
          "type": "uint256"
        }
      ],
      "name": "Transfer",
      "type": "event"
    },
    {
      "inputs": [
        {
          "internalType": "address",
          "name": "to",
          "type": "address"
        },
        {
          "internalType": "uint256",
          "name": "tokenId",
          "type": "uint256"
        }
      ],
      "name": "approve",
      "outputs": [],
      "stateMutability": "nonpayable",
      "type": "function"
    },
    {
      "inputs": [
        {
          "internalType": "address",
          "name": "owner",
          "type": "address"
        }
      ],
      "name": "balanceOf",
      "outputs": [
        {
          "internalType": "uint256",
          "name": "",
          "type": "uint256"
        }
      ],
      "stateMutability": "view",
      "type": "function"
    },
    {
      "inputs": [
        {
          "internalType": "uint256",
          "name": "tokenId",
          "type": "uint256"
        }
      ],
      "name": "getApproved",
      "outputs": [
        {
          "internalType": "address",
          "name": "",
          "type": "address"
        }
      ],
      "stateMutability": "view",
      "type": "function"
    },
    {
      "inputs": [
        {
          "internalType": "address",
          "name": "user",
          "type": "address"
        }
      ],
      "name": "getUserNFTs",
      "outputs": [
        {
          "internalType": "uint256[]",
          "name": "",
          "type": "uint256[]"
        }
      ],
      "stateMutability": "view",
      "type": "function"
    },
    {
      "inputs": [
        {
          "internalType": "address",
          "name": "owner",
          "type": "address"
        },
        {
          "internalType": "address",
          "name": "operator",
          "type": "address"
        }
      ],
      "name": "isApprovedForAll",
      "outputs": [
        {
          "internalType": "bool",
          "name": "",
          "type": "bool"
        }
      ],
      "stateMutability": "view",
      "type": "function"
    },
    {
      "inputs": [
        {
          "internalType": "uint256",
          "name": "",
          "type": "uint256"
        }
      ],
      "name": "lilaPool",
      "outputs": [
        {
          "internalType": "address",
          "name": "",
          "type": "address"
        }
      ],
      "stateMutability": "view",
      "type": "function"
    },
    {
      "inputs": [
        {
          "internalType": "address",
          "name": "to",
          "type": "address"
        },
        {
          "internalType": "uint256",
          "name": "tokenId",
          "type": "uint256"
        }
      ],
      "name": "mint",
      "outputs": [],
      "stateMutability": "nonpayable",
      "type": "function"
    },
    {
      "inputs": [],
      "name": "name",
      "outputs": [
        {
          "internalType": "string",
          "name": "",
          "type": "string"
        }
      ],
      "stateMutability": "view",
      "type": "function"
    },
    {
      "inputs": [
        {
          "internalType": "uint256",
          "name": "tokenId",
          "type": "uint256"
        }
      ],
      "name": "ownerOf",
      "outputs": [
        {
          "internalType": "address",
          "name": "",
          "type": "address"
        }
      ],
      "stateMutability": "view",
      "type": "function"
    },
    {
      "inputs": [
        {
          "internalType": "address",
          "name": "from",
          "type": "address"
        },
        {
          "internalType": "address",
          "name": "to",
          "type": "address"
        },
        {
          "internalType": "uint256",
          "name": "tokenId",
          "type": "uint256"
        }
      ],
      "name": "safeTransferFrom",
      "outputs": [],
      "stateMutability": "nonpayable",
      "type": "function"
    },
    {
      "inputs": [
        {
          "internalType": "address",
          "name": "from",
          "type": "address"
        },
        {
          "internalType": "address",
          "name": "to",
          "type": "address"
        },
        {
          "internalType": "uint256",
          "name": "tokenId",
          "type": "uint256"
        },
        {
          "internalType": "bytes",
          "name": "data",
          "type": "bytes"
        }
      ],
      "name": "safeTransferFrom",
      "outputs": [],
      "stateMutability": "nonpayable",
      "type": "function"
    },
    {
      "inputs": [
        {
          "internalType": "address",
          "name": "operator",
          "type": "address"
        },
        {
          "internalType": "bool",
          "name": "approved",
          "type": "bool"
        }
      ],
      "name": "setApprovalForAll",
      "outputs": [],
      "stateMutability": "nonpayable",
      "type": "function"
    },
    {
      "inputs": [
        {
          "internalType": "uint256",
          "name": "tokenId",
          "type": "uint256"
        },
        {
          "internalType": "address",
          "name": "pool",
          "type": "address"
        }
      ],
      "name": "setLilaPoolValue",
      "outputs": [],
      "stateMutability": "nonpayable",
      "type": "function"
    },
    {
      "inputs": [
        {
          "internalType": "bytes4",
          "name": "interfaceId",
          "type": "bytes4"
        }
      ],
      "name": "supportsInterface",
      "outputs": [
        {
          "internalType": "bool",
          "name": "",
          "type": "bool"
        }
      ],
      "stateMutability": "view",
      "type": "function"
    },
    {
      "inputs": [],
      "name": "symbol",
      "outputs": [
        {
          "internalType": "string",
          "name": "",
          "type": "string"
        }
      ],
      "stateMutability": "view",
      "type": "function"
    },
    {
      "inputs": [
        {
          "internalType": "uint256",
          "name": "tokenId",
          "type": "uint256"
        }
      ],
      "name": "tokenURI",
      "outputs": [
        {
          "internalType": "string",
          "name": "",
          "type": "string"
        }
      ],
      "stateMutability": "view",
      "type": "function"
    },
    {
      "inputs": [],
      "name": "totalSupply",
      "outputs": [
        {
          "internalType": "uint256",
          "name": "",
          "type": "uint256"
        }
      ],
      "stateMutability": "view",
      "type": "function"
    },
    {
      "inputs": [
        {
          "internalType": "address",
          "name": "from",
          "type": "address"
        },
        {
          "internalType": "address",
          "name": "to",
          "type": "address"
        },
        {
          "internalType": "uint256",
          "name": "tokenId",
          "type": "uint256"
        }
      ],
      "name": "transferFrom",
      "outputs": [],
      "stateMutability": "nonpayable",
      "type": "function"
    },
    {
      "inputs": [
        {
          "internalType": "address",
          "name": "newOwner",
          "type": "address"
        }
      ],
      "name": "transferOwnership",
      "outputs": [],
      "stateMutability": "nonpayable",
      "type": "function"
    }
  ],
  "bytecode": "0x60806040523480156200001157600080fd5b506040518060400160405280600c81526020017f4c696c61506f736974696f6e00000000000000000000000000000000000000008152506040518060400160405280600481526020017f4c494c410000000000000000000000000000000000000000000000000000000081525081600090816200008f919062000365565b508060019081620000a1919062000365565b50505033600960006101000a81548173ffffffffffffffffffffffffffffffffffffffff021916908373ffffffffffffffffffffffffffffffffffffffff1602179055506200044c565b600081519050919050565b7f4e487b7100000000000000000000000000000000000000000000000000000000600052604160045260246000fd5b7f4e487b7100000000000000000000000000000000000000000000000000000000600052602260045260246000fd5b600060028204905060018216806200016d57607f821691505b60208210810362000183576200018262000125565b5b50919050565b60008190508160005260206000209050919050565b60006020601f8301049050919050565b600082821b905092915050565b600060088302620001ed7fffffffffffffffffffffffffffffffffffffffffffffffffffffffffffffffff82620001ae565b620001f98683620001ae565b95508019841693508086168417925050509392505050565b6000819050919050565b6000819050919050565b600062000246620002406200023a8462000211565b6200021b565b62000211565b9050919050565b6000819050919050565b620002628362000225565b6200027a62000271826200024d565b848454620001bb565b825550505050565b600090565b6200029162000282565b6200029e81848462000257565b505050565b5b81811015620002c657620002ba60008262000287565b600181019050620002a4565b5050565b601f8211156200031557620002df8162000189565b620002ea846200019e565b81016020851015620002fa578190505b6200031262000309856200019e565b830182620002a3565b50505b505050565b600082821c905092915050565b60006200033a600019846008026200031a565b1980831691505092915050565b600062000355838362000327565b9150826002028217905092915050565b6200037082620000eb565b67ffffffffffffffff8111156200038c576200038b620000f6565b5b62000398825462000154565b620003a5828285620002ca565b600060209050601f831160018114620003dd5760008415620003c8578287015190505b620003d4858262000347565b86555062000444565b601f198416620003ed8662000189565b60005b828110156200041757848901518255600182019150602085019450602081019050620003f0565b8683101562000437578489015162000433601f89168262000327565b8355505b6001600288020188555050505b505050505050565b612ad0806200045c6000396000f3fe608060405234801561001057600080fd5b50600436106101215760003560e01c806352de4ee5116100ad578063a22cb46511610071578063a22cb4651461032c578063b88d4fde14610348578063c87b56dd14610364578063e985e9c514610394578063f2fde38b146103c457610121565b806352de4ee5146102625780636352211e1461029257806370a08231146102c25780637a472fee146102f257806395d89b411461030e57610121565b80630fa9ce61116100f45780630fa9ce61146101c057806318160ddd146101f057806323b872dd1461020e57806340c10f191461022a57806342842e0e1461024657610121565b806301ffc9a71461012657806306fdde0314610156578063081812fc14610174578063095ea7b3146101a4575b600080fd5b610140600480360381019061013b9190611bdd565b6103e0565b60405161014d9190611c25565b60405180910390f35b61015e6104c2565b60405161016b9190611cd0565b60405180910390f35b61018e60048036038101906101899190611d28565b610554565b60405161019b9190611d96565b60405180910390f35b6101be60048036038101906101b99190611ddd565b61059a565b005b6101da60048036038101906101d59190611d28565b6106b1565b6040516101e79190611d96565b60405180910390f35b6101f86106e4565b6040516102059190611e2c565b60405180910390f35b61022860048036038101906102239190611e47565b6106ea565b005b610244600480360381019061023f9190611ddd565b61074a565b005b610260600480360381019061025b9190611e47565b610868565b005b61027c60048036038101906102779190611e9a565b610888565b6040516102899190611f85565b60405180910390f35b6102ac60048036038101906102a79190611d28565b61091f565b6040516102b99190611d96565b60405180910390f35b6102dc60048036038101906102d79190611e9a565b6109a5565b6040516102e99190611e2c565b60405180910390f35b61030c60048036038101906103079190611fa7565b610a5c565b005b610316610b42565b6040516103239190611cd0565b60405180910390f35b61034660048036038101906103419190612013565b610bd4565b005b610362600480360381019061035d9190612188565b610bea565b005b61037e60048036038101906103799190611d28565b610c4c565b60405161038b9190611cd0565b60405180910390f35b6103ae60048036038101906103a9919061220b565b610cb4565b6040516103bb9190611c25565b60405180910390f35b6103de60048036038101906103d99190611e9a565b610d48565b005b60007f80ac58cd000000000000000000000000000000000000000000000000000000007bffffffffffffffffffffffffffffffffffffffffffffffffffffffff1916827bffffffffffffffffffffffffffffffffffffffffffffffffffffffff191614806104ab57507f5b5e139f000000000000000000000000000000000000000000000000000000007bffffffffffffffffffffffffffffffffffffffffffffffffffffffff1916827bffffffffffffffffffffffffffffffffffffffffffffffffffffffff1916145b806104bb57506104ba82610e1c565b5b9050919050565b6060600080546104d19061227a565b80601f01602080910402602001604051908101604052809291908181526020018280546104fd9061227a565b801561054a5780601f1061051f5761010080835404028352916020019161054a565b820191906000526020600020905b81548152906001019060200180831161052d57829003601f168201915b5050505050905090565b600061055f82610e86565b6004600083815260200190815260200160002060009054906101000a900473ffffffffffffffffffffffffffffffffffffffff169050919050565b60006105a58261091f565b90508073ffffffffffffffffffffffffffffffffffffffff168373ffffffffffffffffffffffffffffffffffffffff1603610615576040517f08c379a000000000000000000000000000000000000000000000000000000000815260040161060c9061231d565b60405180910390fd5b8073ffffffffffffffffffffffffffffffffffffffff16610634610ed1565b73ffffffffffffffffffffffffffffffffffffffff16148061066357506106628161065d610ed1565b610cb4565b5b6106a2576040517f08c379a0000000000000000000000000000000000000000000000000000000008152600401610699906123af565b60405180910390fd5b6106ac8383610ed9565b505050565b60076020528060005260406000206000915054906101000a900473ffffffffffffffffffffffffffffffffffffffff1681565b60065481565b6106fb6106f5610ed1565b82610f92565b61073a576040517f08c379a000000000000000000000000000000000000000000000000000000000815260040161073190612441565b60405180910390fd5b610745838383611027565b505050565b600960009054906101000a900473ffffffffffffffffffffffffffffffffffffffff1673ffffffffffffffffffffffffffffffffffffffff163373ffffffffffffffffffffffffffffffffffffffff16146107da576040517f08c379a00000000000000000000000000000000000000000000000000000000081526004016107d1906124ad565b60405180910390fd5b6107e48282611320565b6001600660008282546107f791906124fc565b92505081905550600860008373ffffffffffffffffffffffffffffffffffffffff1673ffffffffffffffffffffffffffffffffffffffff1681526020019081526020016000208190806001815401808255809150506001900390600052602060002001600090919091909150555050565b61088383838360405180602001604052806000815250610bea565b505050565b6060600860008373ffffffffffffffffffffffffffffffffffffffff1673ffffffffffffffffffffffffffffffffffffffff16815260200190815260200160002080548060200260200160405190810160405280929190818152602001828054801561091357602002820191906000526020600020905b8154815260200190600101908083116108ff575b50505050509050919050565b60008061092b8361153d565b9050600073ffffffffffffffffffffffffffffffffffffffff168173ffffffffffffffffffffffffffffffffffffffff160361099c576040517f08c379a00000000000000000000000000000000000000000000000000000000081526004016109939061257c565b60405180910390fd5b80915050919050565b60008073ffffffffffffffffffffffffffffffffffffffff168273ffffffffffffffffffffffffffffffffffffffff1603610a15576040517f08c379a0000000000000000000000000000000000000000000000000000000008152600401610a0c9061260e565b60405180910390fd5b600360008373ffffffffffffffffffffffffffffffffffffffff1673ffffffffffffffffffffffffffffffffffffffff168152602001908152602001600020549050919050565b600960009054906101000a900473ffffffffffffffffffffffffffffffffffffffff1673ffffffffffffffffffffffffffffffffffffffff163373ffffffffffffffffffffffffffffffffffffffff1614610aec576040517f08c379a0000000000000000000000000000000000000000000000000000000008152600401610ae3906124ad565b60405180910390fd5b806007600084815260200190815260200160002060006101000a81548173ffffffffffffffffffffffffffffffffffffffff021916908373ffffffffffffffffffffffffffffffffffffffff1602179055505050565b606060018054610b519061227a565b80601f0160208091040260200160405190810160405280929190818152602001828054610b7d9061227a565b8015610bca5780601f10610b9f57610100808354040283529160200191610bca565b820191906000526020600020905b815481529060010190602001808311610bad57829003601f168201915b5050505050905090565b610be6610bdf610ed1565b838361157a565b5050565b610bfb610bf5610ed1565b83610f92565b610c3a576040517f08c379a0000000000000000000000000000000000000000000000000000000008152600401610c3190612441565b60405180910390fd5b610c46848484846116e6565b50505050565b6060610c5782610e86565b6000610c61611742565b90506000815111610c815760405180602001604052806000815250610cac565b80610c8b84611759565b604051602001610c9c92919061266a565b6040516020818303038152906040525b915050919050565b6000600560008473ffffffffffffffffffffffffffffffffffffffff1673ffffffffffffffffffffffffffffffffffffffff16815260200190815260200160002060008373ffffffffffffffffffffffffffffffffffffffff1673ffffffffffffffffffffffffffffffffffffffff16815260200190815260200160002060009054906101000a900460ff16905092915050565b600960009054906101000a900473ffffffffffffffffffffffffffffffffffffffff1673ffffffffffffffffffffffffffffffffffffffff163373ffffffffffffffffffffffffffffffffffffffff1614610dd8576040517f08c379a0000000000000000000000000000000000000000000000000000000008152600401610dcf906124ad565b60405180910390fd5b80600960006101000a81548173ffffffffffffffffffffffffffffffffffffffff021916908373ffffffffffffffffffffffffffffffffffffffff16021790555050565b60007f01ffc9a7000000000000000000000000000000000000000000000000000000007bffffffffffffffffffffffffffffffffffffffffffffffffffffffff1916827bffffffffffffffffffffffffffffffffffffffffffffffffffffffff1916149050919050565b610e8f81611827565b610ece576040517f08c379a0000000000000000000000000000000000000000000000000000000008152600401610ec59061257c565b60405180910390fd5b50565b600033905090565b816004600083815260200190815260200160002060006101000a81548173ffffffffffffffffffffffffffffffffffffffff021916908373ffffffffffffffffffffffffffffffffffffffff160217905550808273ffffffffffffffffffffffffffffffffffffffff16610f4c8361091f565b73ffffffffffffffffffffffffffffffffffffffff167f8c5be1e5ebec7d5bd14f71427d1e84f3dd0314c0f7b2291e5b200ac8c7c3b92560405160405180910390a45050565b600080610f9e8361091f565b90508073ffffffffffffffffffffffffffffffffffffffff168473ffffffffffffffffffffffffffffffffffffffff161480610fe05750610fdf8185610cb4565b5b8061101e57508373ffffffffffffffffffffffffffffffffffffffff1661100684610554565b73ffffffffffffffffffffffffffffffffffffffff16145b91505092915050565b8273ffffffffffffffffffffffffffffffffffffffff166110478261091f565b73ffffffffffffffffffffffffffffffffffffffff161461109d576040517f08c379a000000000000000000000000000000000000000000000000000000000815260040161109490612700565b60405180910390fd5b600073ffffffffffffffffffffffffffffffffffffffff168273ffffffffffffffffffffffffffffffffffffffff160361110c576040517f08c379a000000000000000000000000000000000000000000000000000000000815260040161110390612792565b60405180910390fd5b6111198383836001611868565b8273ffffffffffffffffffffffffffffffffffffffff166111398261091f565b73ffffffffffffffffffffffffffffffffffffffff161461118f576040517f08c379a000000000000000000000000000000000000000000000000000000000815260040161118690612700565b60405180910390fd5b6004600082815260200190815260200160002060006101000a81549073ffffffffffffffffffffffffffffffffffffffff02191690556001600360008573ffffffffffffffffffffffffffffffffffffffff1673ffffffffffffffffffffffffffffffffffffffff168152602001908152602001600020600082825403925050819055506001600360008473ffffffffffffffffffffffffffffffffffffffff1673ffffffffffffffffffffffffffffffffffffffff16815260200190815260200160002060008282540192505081905550816002600083815260200190815260200160002060006101000a81548173ffffffffffffffffffffffffffffffffffffffff021916908373ffffffffffffffffffffffffffffffffffffffff160217905550808273ffffffffffffffffffffffffffffffffffffffff168473ffffffffffffffffffffffffffffffffffffffff167fddf252ad1be2c89b69c2b068fc378daa952ba7f163c4a11628f55a4df523b3ef60405160405180910390a461131b838383600161186e565b505050565b600073ffffffffffffffffffffffffffffffffffffffff168273ffffffffffffffffffffffffffffffffffffffff160361138f576040517f08c379a0000000000000000000000000000000000000000000000000000000008152600401611386906127fe565b60405180910390fd5b61139881611827565b156113d8576040517f08c379a00000000000000000000000000000000000000000000000000000000081526004016113cf9061286a565b60405180910390fd5b6113e6600083836001611868565b6113ef81611827565b1561142f576040517f08c379a00000000000000000000000000000000000000000000000000000000081526004016114269061286a565b60405180910390fd5b6001600360008473ffffffffffffffffffffffffffffffffffffffff1673ffffffffffffffffffffffffffffffffffffffff16815260200190815260200160002060008282540192505081905550816002600083815260200190815260200160002060006101000a81548173ffffffffffffffffffffffffffffffffffffffff021916908373ffffffffffffffffffffffffffffffffffffffff160217905550808273ffffffffffffffffffffffffffffffffffffffff16600073ffffffffffffffffffffffffffffffffffffffff167fddf252ad1be2c89b69c2b068fc378daa952ba7f163c4a11628f55a4df523b3ef60405160405180910390a461153960008383600161186e565b5050565b60006002600083815260200190815260200160002060009054906101000a900473ffffffffffffffffffffffffffffffffffffffff169050919050565b8173ffffffffffffffffffffffffffffffffffffffff168373ffffffffffffffffffffffffffffffffffffffff16036115e8576040517f08c379a00000000000000000000000000000000000000000000000000000000081526004016115df906128d6565b60405180910390fd5b80600560008573ffffffffffffffffffffffffffffffffffffffff1673ffffffffffffffffffffffffffffffffffffffff16815260200190815260200160002060008473ffffffffffffffffffffffffffffffffffffffff1673ffffffffffffffffffffffffffffffffffffffff16815260200190815260200160002060006101000a81548160ff0219169083151502179055508173ffffffffffffffffffffffffffffffffffffffff168373ffffffffffffffffffffffffffffffffffffffff167f17307eab39ab6107e8899845ad3d59bd9653f200f220920489ca2b5937696c31836040516116d99190611c25565b60405180910390a3505050565b6116f1848484611027565b6116fd84848484611874565b61173c576040517f08c379a000000000000000000000000000000000000000000000000000000000815260040161173390612968565b60405180910390fd5b50505050565b606060405180602001604052806000815250905090565b606060006001611768846119fb565b01905060008167ffffffffffffffff8111156117875761178661205d565b5b6040519080825280601f01601f1916602001820160405280156117b95781602001600182028036833780820191505090505b509050600082602001820190505b60011561181c578080600190039150507f3031323334353637383961626364656600000000000000000000000000000000600a86061a8153600a85816118105761180f612988565b5b049450600085036117c7575b819350505050919050565b60008073ffffffffffffffffffffffffffffffffffffffff166118498361153d565b73ffffffffffffffffffffffffffffffffffffffff1614159050919050565b50505050565b50505050565b60006118958473ffffffffffffffffffffffffffffffffffffffff16611b4e565b156119ee578373ffffffffffffffffffffffffffffffffffffffff1663150b7a026118be610ed1565b8786866040518563ffffffff1660e01b81526004016118e09493929190612a0c565b6020604051808303816000875af192505050801561191c57506040513d601f19601f820116820180604052508101906119199190612a6d565b60015b61199e573d806000811461194c576040519150601f19603f3d011682016040523d82523d6000602084013e611951565b606091505b506000815103611996576040517f08c379a000000000000000000000000000000000000000000000000000000000815260040161198d90612968565b60405180910390fd5b805181602001fd5b63150b7a0260e01b7bffffffffffffffffffffffffffffffffffffffffffffffffffffffff1916817bffffffffffffffffffffffffffffffffffffffffffffffffffffffff1916149150506119f3565b600190505b949350505050565b600080600090507a184f03e93ff9f4daa797ed6e38ed64bf6a1f0100000000000000008310611a59577a184f03e93ff9f4daa797ed6e38ed64bf6a1f0100000000000000008381611a4f57611a4e612988565b5b0492506040810190505b6d04ee2d6d415b85acef81000000008310611a96576d04ee2d6d415b85acef81000000008381611a8c57611a8b612988565b5b0492506020810190505b662386f26fc100008310611ac557662386f26fc100008381611abb57611aba612988565b5b0492506010810190505b6305f5e1008310611aee576305f5e1008381611ae457611ae3612988565b5b0492506008810190505b6127108310611b13576127108381611b0957611b08612988565b5b0492506004810190505b60648310611b365760648381611b2c57611b2b612988565b5b0492506002810190505b600a8310611b45576001810190505b80915050919050565b6000808273ffffffffffffffffffffffffffffffffffffffff163b119050919050565b6000604051905090565b600080fd5b600080fd5b60007fffffffff0000000000000000000000000000000000000000000000000000000082169050919050565b611bba81611b85565b8114611bc557600080fd5b50565b600081359050611bd781611bb1565b92915050565b600060208284031215611bf357611bf2611b7b565b5b6000611c0184828501611bc8565b91505092915050565b60008115159050919050565b611c1f81611c0a565b82525050565b6000602082019050611c3a6000830184611c16565b92915050565b600081519050919050565b600082825260208201905092915050565b60005b83811015611c7a578082015181840152602081019050611c5f565b60008484015250505050565b6000601f19601f8301169050919050565b6000611ca282611c40565b611cac8185611c4b565b9350611cbc818560208601611c5c565b611cc581611c86565b840191505092915050565b60006020820190508181036000830152611cea8184611c97565b905092915050565b6000819050919050565b611d0581611cf2565b8114611d1057600080fd5b50565b600081359050611d2281611cfc565b92915050565b600060208284031215611d3e57611d3d611b7b565b5b6000611d4c84828501611d13565b91505092915050565b600073ffffffffffffffffffffffffffffffffffffffff82169050919050565b6000611d8082611d55565b9050919050565b611d9081611d75565b82525050565b6000602082019050611dab6000830184611d87565b92915050565b611dba81611d75565b8114611dc557600080fd5b50565b600081359050611dd781611db1565b92915050565b60008060408385031215611df457611df3611b7b565b5b6000611e0285828601611dc8565b9250506020611e1385828601611d13565b9150509250929050565b611e2681611cf2565b82525050565b6000602082019050611e416000830184611e1d565b92915050565b600080600060608486031215611e6057611e5f611b7b565b5b6000611e6e86828701611dc8565b9350506020611e7f86828701611dc8565b9250506040611e9086828701611d13565b9150509250925092565b600060208284031215611eb057611eaf611b7b565b5b6000611ebe84828501611dc8565b91505092915050565b600081519050919050565b600082825260208201905092915050565b6000819050602082019050919050565b611efc81611cf2565b82525050565b6000611f0e8383611ef3565b60208301905092915050565b6000602082019050919050565b6000611f3282611ec7565b611f3c8185611ed2565b9350611f4783611ee3565b8060005b83811015611f78578151611f5f8882611f02565b9750611f6a83611f1a565b925050600181019050611f4b565b5085935050505092915050565b60006020820190508181036000830152611f9f8184611f27565b905092915050565b60008060408385031215611fbe57611fbd611b7b565b5b6000611fcc85828601611d13565b9250506020611fdd85828601611dc8565b9150509250929050565b611ff081611c0a565b8114611ffb57600080fd5b50565b60008135905061200d81611fe7565b92915050565b6000806040838503121561202a57612029611b7b565b5b600061203885828601611dc8565b925050602061204985828601611ffe565b9150509250929050565b600080fd5b600080fd5b7f4e487b7100000000000000000000000000000000000000000000000000000000600052604160045260246000fd5b61209582611c86565b810181811067ffffffffffffffff821117156120b4576120b361205d565b5b80604052505050565b60006120c7611b71565b90506120d3828261208c565b919050565b600067ffffffffffffffff8211156120f3576120f261205d565b5b6120fc82611c86565b9050602081019050919050565b82818337600083830152505050565b600061212b612126846120d8565b6120bd565b90508281526020810184848401111561214757612146612058565b5b612152848285612109565b509392505050565b600082601f83011261216f5761216e612053565b5b813561217f848260208601612118565b91505092915050565b600080600080608085870312156121a2576121a1611b7b565b5b60006121b087828801611dc8565b94505060206121c187828801611dc8565b93505060406121d287828801611d13565b925050606085013567ffffffffffffffff8111156121f3576121f2611b80565b5b6121ff8782880161215a565b91505092959194509250565b6000806040838503121561222257612221611b7b565b5b600061223085828601611dc8565b925050602061224185828601611dc8565b9150509250929050565b7f4e487b7100000000000000000000000000000000000000000000000000000000600052602260045260246000fd5b6000600282049050600182168061229257607f821691505b6020821081036122a5576122a461224b565b5b50919050565b7f4552433732313a20617070726f76616c20746f2063757272656e74206f776e6560008201527f7200000000000000000000000000000000000000000000000000000000000000602082015250565b6000612307602183611c4b565b9150612312826122ab565b604082019050919050565b60006020820190508181036000830152612336816122fa565b9050919050565b7f4552433732313a20617070726f76652063616c6c6572206973206e6f7420746f60008201527f6b656e206f776e6572206f7220617070726f76656420666f7220616c6c000000602082015250565b6000612399603d83611c4b565b91506123a48261233d565b604082019050919050565b600060208201905081810360008301526123c88161238c565b9050919050565b7f4552433732313a2063616c6c6572206973206e6f7420746f6b656e206f776e6560008201527f72206f7220617070726f76656400000000000000000000000000000000000000602082015250565b600061242b602d83611c4b565b9150612436826123cf565b604082019050919050565b6000602082019050818103600083015261245a8161241e565b9050919050565b7f4e6f74206d616e61676572206f72206f776e6572000000000000000000000000600082015250565b6000612497601483611c4b565b91506124a282612461565b602082019050919050565b600060208201905081810360008301526124c68161248a565b9050919050565b7f4e487b7100000000000000000000000000000000000000000000000000000000600052601160045260246000fd5b600061250782611cf2565b915061251283611cf2565b925082820190508082111561252a576125296124cd565b5b92915050565b7f4552433732313a20696e76616c696420746f6b656e2049440000000000000000600082015250565b6000612566601883611c4b565b915061257182612530565b602082019050919050565b6000602082019050818103600083015261259581612559565b9050919050565b7f4552433732313a2061646472657373207a65726f206973206e6f74206120766160008201527f6c6964206f776e65720000000000000000000000000000000000000000000000602082015250565b60006125f8602983611c4b565b91506126038261259c565b604082019050919050565b60006020820190508181036000830152612627816125eb565b9050919050565b600081905092915050565b600061264482611c40565b61264e818561262e565b935061265e818560208601611c5c565b80840191505092915050565b60006126768285612639565b91506126828284612639565b91508190509392505050565b7f4552433732313a207472616e736665722066726f6d20696e636f72726563742060008201527f6f776e6572000000000000000000000000000000000000000000000000000000602082015250565b60006126ea602583611c4b565b91506126f58261268e565b604082019050919050565b60006020820190508181036000830152612719816126dd565b9050919050565b7f4552433732313a207472616e7366657220746f20746865207a65726f2061646460008201527f7265737300000000000000000000000000000000000000000000000000000000602082015250565b600061277c602483611c4b565b915061278782612720565b604082019050919050565b600060208201905081810360008301526127ab8161276f565b9050919050565b7f4552433732313a206d696e7420746f20746865207a65726f2061646472657373600082015250565b60006127e8602083611c4b565b91506127f3826127b2565b602082019050919050565b60006020820190508181036000830152612817816127db565b9050919050565b7f4552433732313a20746f6b656e20616c7265616479206d696e74656400000000600082015250565b6000612854601c83611c4b565b915061285f8261281e565b602082019050919050565b6000602082019050818103600083015261288381612847565b9050919050565b7f4552433732313a20617070726f766520746f2063616c6c657200000000000000600082015250565b60006128c0601983611c4b565b91506128cb8261288a565b602082019050919050565b600060208201905081810360008301526128ef816128b3565b9050919050565b7f4552433732313a207472616e7366657220746f206e6f6e20455243373231526560008201527f63656976657220696d706c656d656e7465720000000000000000000000000000602082015250565b6000612952603283611c4b565b915061295d826128f6565b604082019050919050565b6000602082019050818103600083015261298181612945565b9050919050565b7f4e487b7100000000000000000000000000000000000000000000000000000000600052601260045260246000fd5b600081519050919050565b600082825260208201905092915050565b60006129de826129b7565b6129e881856129c2565b93506129f8818560208601611c5c565b612a0181611c86565b840191505092915050565b6000608082019050612a216000830187611d87565b612a2e6020830186611d87565b612a3b6040830185611e1d565b8181036060830152612a4d81846129d3565b905095945050505050565b600081519050612a6781611bb1565b92915050565b600060208284031215612a8357612a82611b7b565b5b6000612a9184828501612a58565b9150509291505056fea26469706673582212206fb609f67919d69c11e9f7fef2db804c4c718d1a2845fdb83529e70d5ee35acc64736f6c63430008140033",
  "linkReferences": {},
  "deployedLinkReferences": {}
}