{
  "_format": "hh-sol-artifact-1",
  "contractName": "LilaPool",
  "sourceName": "contracts/LilaPool.sol",
  "abi": [
    {
      "inputs": [
        {
          "internalType": "contract LilaPoolAddressProvider",
          "name": "_provider",
          "type": "address"
        },
        {
          "internalType": "contract IERC20",
          "name": "_token",
          "type": "address"
        },
        {
          "internalType": "contract IAavePool",
          "name": "_pool",
          "type": "address"
        },
        {
          "internalType": "contract IERC20",
          "name": "_aToken",
          "type": "address"
        },
        {
          "internalType": "uint256",
          "name": "_fixedLimit",
          "type": "uint256"
        },
        {
          "internalType": "uint256",
          "name": "_variableLimit",
          "type": "uint256"
        },
        {
          "internalType": "uint256",
          "name": "_timeLength",
          "type": "uint256"
        },
        {
          "internalType": "uint256",
          "name": "_payoutCount",
          "type": "uint256"
        }
      ],
      "stateMutability": "nonpayable",
      "type": "constructor"
    },
    {
      "anonymous": false,
      "inputs": [
        {
          "indexed": false,
          "internalType": "uint256",
          "name": "amount",
          "type": "uint256"
        },
        {
          "indexed": false,
          "internalType": "bool",
          "name": "_fixed",
          "type": "bool"
        },
        {
          "indexed": false,
          "internalType": "uint256",
          "name": "tokenID",
          "type": "uint256"
        },
        {
          "indexed": false,
          "internalType": "address",
          "name": "poolAddr",
          "type": "address"
        },
        {
          "indexed": false,
          "internalType": "address",
          "name": "who",
          "type": "address"
        },
        {
          "indexed": false,
          "internalType": "uint256",
          "name": "when",
          "type": "uint256"
        }
      ],
      "name": "Deposit",
      "type": "event"
    },
    {
      "anonymous": false,
      "inputs": [
        {
          "indexed": true,
          "internalType": "address",
          "name": "previousOwner",
          "type": "address"
        },
        {
          "indexed": true,
          "internalType": "address",
          "name": "newOwner",
          "type": "address"
        }
      ],
      "name": "OwnershipTransferred",
      "type": "event"
    },
    {
      "anonymous": false,
      "inputs": [
        {
          "indexed": false,
          "internalType": "uint256",
          "name": "amount",
          "type": "uint256"
        },
        {
          "indexed": false,
          "internalType": "uint256",
          "name": "when",
          "type": "uint256"
        }
      ],
      "name": "Withdrawal",
      "type": "event"
    },
    {
      "inputs": [],
      "name": "atoken",
      "outputs": [
        {
          "internalType": "contract IERC20",
          "name": "",
          "type": "address"
        }
      ],
      "stateMutability": "view",
      "type": "function"
    },
    {
      "inputs": [
        {
          "internalType": "uint256",
          "name": "amount",
          "type": "uint256"
        },
        {
          "internalType": "bool",
          "name": "_fixed",
          "type": "bool"
        }
      ],
      "name": "deposit",
      "outputs": [],
      "stateMutability": "nonpayable",
      "type": "function"
    },
    {
      "inputs": [],
      "name": "fixedLimit",
      "outputs": [
        {
          "internalType": "uint256",
          "name": "",
          "type": "uint256"
        }
      ],
      "stateMutability": "view",
      "type": "function"
    },
    {
      "inputs": [],
      "name": "owner",
      "outputs": [
        {
          "internalType": "address",
          "name": "",
          "type": "address"
        }
      ],
      "stateMutability": "view",
      "type": "function"
    },
    {
      "inputs": [],
      "name": "payoutCount",
      "outputs": [
        {
          "internalType": "uint256",
          "name": "",
          "type": "uint256"
        }
      ],
      "stateMutability": "view",
      "type": "function"
    },
    {
      "inputs": [],
      "name": "pool",
      "outputs": [
        {
          "internalType": "contract IAavePool",
          "name": "",
          "type": "address"
        }
      ],
      "stateMutability": "view",
      "type": "function"
    },
    {
      "inputs": [],
      "name": "poolStartTime",
      "outputs": [
        {
          "internalType": "uint256",
          "name": "",
          "type": "uint256"
        }
      ],
      "stateMutability": "view",
      "type": "function"
    },
    {
      "inputs": [],
      "name": "renounceOwnership",
      "outputs": [],
      "stateMutability": "nonpayable",
      "type": "function"
    },
    {
      "inputs": [],
      "name": "timeLength",
      "outputs": [
        {
          "internalType": "uint256",
          "name": "",
          "type": "uint256"
        }
      ],
      "stateMutability": "view",
      "type": "function"
    },
    {
      "inputs": [],
      "name": "token",
      "outputs": [
        {
          "internalType": "contract IERC20",
          "name": "",
          "type": "address"
        }
      ],
      "stateMutability": "view",
      "type": "function"
    },
    {
      "inputs": [],
      "name": "totalFixedDeposits",
      "outputs": [
        {
          "internalType": "uint256",
          "name": "",
          "type": "uint256"
        }
      ],
      "stateMutability": "view",
      "type": "function"
    },
    {
      "inputs": [],
      "name": "totalVariableDeposits",
      "outputs": [
        {
          "internalType": "uint256",
          "name": "",
          "type": "uint256"
        }
      ],
      "stateMutability": "view",
      "type": "function"
    },
    {
      "inputs": [
        {
          "internalType": "address",
          "name": "newOwner",
          "type": "address"
        }
      ],
      "name": "transferOwnership",
      "outputs": [],
      "stateMutability": "nonpayable",
      "type": "function"
    },
    {
      "inputs": [
        {
          "internalType": "uint256",
          "name": "",
          "type": "uint256"
        }
      ],
      "name": "usersMap",
      "outputs": [
        {
          "internalType": "uint256",
          "name": "depositAmount",
          "type": "uint256"
        },
        {
          "internalType": "uint256",
          "name": "totalWithdrawAmount",
          "type": "uint256"
        },
        {
          "internalType": "uint256",
          "name": "paymentsCollected",
          "type": "uint256"
        },
        {
          "internalType": "bool",
          "name": "principalReturned",
          "type": "bool"
        },
        {
          "internalType": "bool",
          "name": "__fixed",
          "type": "bool"
        }
      ],
      "stateMutability": "view",
      "type": "function"
    },
    {
      "inputs": [],
      "name": "variableLimit",
      "outputs": [
        {
          "internalType": "uint256",
          "name": "",
          "type": "uint256"
        }
      ],
      "stateMutability": "view",
      "type": "function"
    },
    {
      "inputs": [
        {
          "internalType": "uint256",
          "name": "tokenId",
          "type": "uint256"
        }
      ],
      "name": "withdraw",
      "outputs": [],
      "stateMutability": "nonpayable",
      "type": "function"
    }
  ],
  "bytecode": "0x60806040523480156200001157600080fd5b5060405162004bc038038062004bc083398181016040528101906200003791906200043a565b620000576200004b6200021d60201b60201c565b6200022560201b60201c565b87600160006101000a81548173ffffffffffffffffffffffffffffffffffffffff021916908373ffffffffffffffffffffffffffffffffffffffff16021790555086600260006101000a81548173ffffffffffffffffffffffffffffffffffffffff021916908373ffffffffffffffffffffffffffffffffffffffff16021790555085600360006101000a81548173ffffffffffffffffffffffffffffffffffffffff021916908373ffffffffffffffffffffffffffffffffffffffff16021790555084600460006101000a81548173ffffffffffffffffffffffffffffffffffffffff021916908373ffffffffffffffffffffffffffffffffffffffff1602179055506001600a60006101000a81548160ff0219169083151502179055508686866040516200018790620002e9565b620001959392919062000593565b604051809103906000f080158015620001b2573d6000803e3d6000fd5b50600560006101000a81548173ffffffffffffffffffffffffffffffffffffffff021916908373ffffffffffffffffffffffffffffffffffffffff160217905550836006819055508260088190555081600c8190555080600d819055505050505050505050620005d0565b600033905090565b60008060009054906101000a900473ffffffffffffffffffffffffffffffffffffffff169050816000806101000a81548173ffffffffffffffffffffffffffffffffffffffff021916908373ffffffffffffffffffffffffffffffffffffffff1602179055508173ffffffffffffffffffffffffffffffffffffffff168173ffffffffffffffffffffffffffffffffffffffff167f8be0079c531659141344cd1fd0a4f28419497f9722a3daafe3b4186f6b6457e060405160405180910390a35050565b6120f18062002acf83390190565b600080fd5b600073ffffffffffffffffffffffffffffffffffffffff82169050919050565b60006200032982620002fc565b9050919050565b60006200033d826200031c565b9050919050565b6200034f8162000330565b81146200035b57600080fd5b50565b6000815190506200036f8162000344565b92915050565b600062000382826200031c565b9050919050565b620003948162000375565b8114620003a057600080fd5b50565b600081519050620003b48162000389565b92915050565b6000620003c7826200031c565b9050919050565b620003d981620003ba565b8114620003e557600080fd5b50565b600081519050620003f981620003ce565b92915050565b6000819050919050565b6200041481620003ff565b81146200042057600080fd5b50565b600081519050620004348162000409565b92915050565b600080600080600080600080610100898b0312156200045e576200045d620002f7565b5b60006200046e8b828c016200035e565b9850506020620004818b828c01620003a3565b9750506040620004948b828c01620003e8565b9650506060620004a78b828c01620003a3565b9550506080620004ba8b828c0162000423565b94505060a0620004cd8b828c0162000423565b93505060c0620004e08b828c0162000423565b92505060e0620004f38b828c0162000423565b9150509295985092959890939650565b6000819050919050565b60006200052e620005286200052284620002fc565b62000503565b620002fc565b9050919050565b600062000542826200050d565b9050919050565b6000620005568262000535565b9050919050565b620005688162000549565b82525050565b60006200057b8262000535565b9050919050565b6200058d816200056e565b82525050565b6000606082019050620005aa60008301866200055d565b620005b9602083018562000582565b620005c860408301846200055d565b949350505050565b6124ef80620005e06000396000f3fe608060405234801561001057600080fd5b50600436106101005760003560e01c80638da5cb5b11610097578063d955c51911610066578063d955c5191461026b578063e30bed4114610289578063f2fde38b146102a7578063fc0c546a146102c357610100565b80638da5cb5b146101f55780639a40832114610213578063a293b0cd1461022f578063bd06f3f11461024d57610100565b806357831809116100d357806357831809146101915780635f96dc11146101af5780636c0023f9146101cd578063715018a6146101eb57610100565b80630f32001c1461010557806316f0115b146101395780632e1a7d4d146101575780633f49d32714610173575b600080fd5b61011f600480360381019061011a91906116af565b6102e1565b604051610130959493929190611706565b60405180910390f35b610141610331565b60405161014e91906117d8565b60405180910390f35b610171600480360381019061016c91906116af565b610357565b005b61017b610b73565b60405161018891906117f3565b60405180910390f35b610199610b79565b6040516101a691906117f3565b60405180910390f35b6101b7610b7f565b6040516101c491906117f3565b60405180910390f35b6101d5610b85565b6040516101e291906117f3565b60405180910390f35b6101f3610b8b565b005b6101fd610b9f565b60405161020a919061182f565b60405180910390f35b61022d60048036038101906102289190611876565b610bc8565b005b6102376112a3565b60405161024491906118d7565b60405180910390f35b6102556112c9565b60405161026291906117f3565b60405180910390f35b6102736112cf565b60405161028091906117f3565b60405180910390f35b6102916112d5565b60405161029e91906117f3565b60405180910390f35b6102c160048036038101906102bc919061191e565b6112db565b005b6102cb61135e565b6040516102d891906118d7565b60405180910390f35b60106020528060005260406000206000915090508060000154908060010154908060020154908060030160009054906101000a900460ff16908060030160019054906101000a900460ff16905085565b600360009054906101000a900473ffffffffffffffffffffffffffffffffffffffff1681565b600a60009054906101000a900460ff16156103a7576040517f08c379a000000000000000000000000000000000000000000000000000000000815260040161039e906119a8565b60405180910390fd5b3373ffffffffffffffffffffffffffffffffffffffff16600160009054906101000a900473ffffffffffffffffffffffffffffffffffffffff1673ffffffffffffffffffffffffffffffffffffffff166309218e916040518163ffffffff1660e01b8152600401602060405180830381865afa15801561042b573d6000803e3d6000fd5b505050506040513d601f19601f8201168201806040525081019061044f9190611a06565b73ffffffffffffffffffffffffffffffffffffffff16636352211e836040518263ffffffff1660e01b815260040161048791906117f3565b602060405180830381865afa1580156104a4573d6000803e3d6000fd5b505050506040513d601f19601f820116820180604052508101906104c89190611a48565b73ffffffffffffffffffffffffffffffffffffffff161461051e576040517f08c379a000000000000000000000000000000000000000000000000000000000815260040161051590611ae7565b60405180910390fd5b6000601060008381526020019081526020016000206000015411610577576040517f08c379a000000000000000000000000000000000000000000000000000000000815260040161056e90611b53565b60405180910390fd5b60006010600083815260200190815260200160002060030160019054906101000a900460ff161561083657600d5460106000848152602001908152602001600020600201540361068f57600e60009054906101000a900460ff166105de576105dd611384565b5b6010600083815260200190815260200160002060030160009054906101000a900460ff1615610642576040517f08c379a000000000000000000000000000000000000000000000000000000000815260040161063990611be5565b60405180910390fd5b6010600083815260200190815260200160002060000154905060016010600084815260200190815260200160002060030160006101000a81548160ff021916908315150217905550610831565b600d546010600084815260200190815260200160002060020154106106e9576040517f08c379a00000000000000000000000000000000000000000000000000000000081526004016106e090611c77565b60405180910390fd5b6000600b54426106f99190611cc6565b90506000600d54600c5461070d9190611d29565b90506000818361071d9190611d29565b905060008111610762576040517f08c379a000000000000000000000000000000000000000000000000000000000815260040161075990611da6565b60405180910390fd5b601060008681526020019081526020016000206002015481116107ba576040517f08c379a00000000000000000000000000000000000000000000000000000000081526004016107b190611e38565b60405180910390fd5b60006010600087815260200190815260200160002060020154826107de9190611cc6565b9050816010600088815260200190815260200160002060020181905550600d546010600088815260200190815260200160002060010154826108209190611e58565b61082a9190611d29565b9450505050505b610979565b600c54600b546108469190611e9a565b421015610888576040517f08c379a000000000000000000000000000000000000000000000000000000000815260040161087f90611f1a565b60405180910390fd5b6010600083815260200190815260200160002060030160009054906101000a900460ff16156108ec576040517f08c379a00000000000000000000000000000000000000000000000000000000081526004016108e390611f86565b60405180910390fd5b600e60009054906101000a900460ff1661090957610908611384565b5b6008546010600084815260200190815260200160002060000154600654600f546109339190611cc6565b61093d9190611e58565b6109479190611d29565b905060016010600084815260200190815260200160002060030160006101000a81548160ff0219169083151502179055505b80600260009054906101000a900473ffffffffffffffffffffffffffffffffffffffff1673ffffffffffffffffffffffffffffffffffffffff166370a08231306040518263ffffffff1660e01b81526004016109d5919061182f565b602060405180830381865afa1580156109f2573d6000803e3d6000fd5b505050506040513d601f19601f82011682018060405250810190610a169190611fbb565b1015610a57576040517f08c379a0000000000000000000000000000000000000000000000000000000008152600401610a4e90612034565b60405180910390fd5b600260009054906101000a900473ffffffffffffffffffffffffffffffffffffffff1673ffffffffffffffffffffffffffffffffffffffff1663a9059cbb33836040518363ffffffff1660e01b8152600401610ab4929190612054565b6020604051808303816000875af1158015610ad3573d6000803e3d6000fd5b505050506040513d601f19601f82011682018060405250810190610af79190612092565b610b36576040517f08c379a0000000000000000000000000000000000000000000000000000000008152600401610b2d9061210b565b60405180910390fd5b7fbf2ed60bd5b5965d685680c01195c9514e4382e28e3a5a2d2d5244bf59411b938142604051610b6792919061212b565b60405180910390a15050565b60085481565b600d5481565b600b5481565b60095481565b610b9361152a565b610b9d60006115a8565b565b60008060009054906101000a900473ffffffffffffffffffffffffffffffffffffffff16905090565b600a60009054906101000a900460ff16610c17576040517f08c379a0000000000000000000000000000000000000000000000000000000008152600401610c0e906121a0565b60405180910390fd5b8015610c8d57600754600654610c2d9190611cc6565b821115610c6f576040517f08c379a0000000000000000000000000000000000000000000000000000000008152600401610c669061220c565b60405180910390fd5b8160076000828254610c819190611e9a565b92505081905550610cf9565b600954600854610c9d9190611cc6565b821115610cdf576040517f08c379a0000000000000000000000000000000000000000000000000000000008152600401610cd69061220c565b60405180910390fd5b8160096000828254610cf19190611e9a565b925050819055505b600260009054906101000a900473ffffffffffffffffffffffffffffffffffffffff1673ffffffffffffffffffffffffffffffffffffffff166323b872dd3330856040518463ffffffff1660e01b8152600401610d589392919061222c565b6020604051808303816000875af1158015610d77573d6000803e3d6000fd5b505050506040513d601f19601f82011682018060405250810190610d9b9190612092565b610dda576040517f08c379a0000000000000000000000000000000000000000000000000000000008152600401610dd19061210b565b60405180910390fd5b6000600160009054906101000a900473ffffffffffffffffffffffffffffffffffffffff1673ffffffffffffffffffffffffffffffffffffffff166309218e916040518163ffffffff1660e01b8152600401602060405180830381865afa158015610e49573d6000803e3d6000fd5b505050506040513d601f19601f82011682018060405250810190610e6d9190611a06565b73ffffffffffffffffffffffffffffffffffffffff166318160ddd6040518163ffffffff1660e01b8152600401602060405180830381865afa158015610eb7573d6000803e3d6000fd5b505050506040513d601f19601f82011682018060405250810190610edb9190611fbb565b9050600160009054906101000a900473ffffffffffffffffffffffffffffffffffffffff1673ffffffffffffffffffffffffffffffffffffffff166309218e916040518163ffffffff1660e01b8152600401602060405180830381865afa158015610f4a573d6000803e3d6000fd5b505050506040513d601f19601f82011682018060405250810190610f6e9190611a06565b73ffffffffffffffffffffffffffffffffffffffff166340c10f1933836040518363ffffffff1660e01b8152600401610fa8929190612054565b600060405180830381600087803b158015610fc257600080fd5b505af1158015610fd6573d6000803e3d6000fd5b50505050600160009054906101000a900473ffffffffffffffffffffffffffffffffffffffff1673ffffffffffffffffffffffffffffffffffffffff166309218e916040518163ffffffff1660e01b8152600401602060405180830381865afa158015611047573d6000803e3d6000fd5b505050506040513d601f19601f8201168201806040525081019061106b9190611a06565b73ffffffffffffffffffffffffffffffffffffffff16637a472fee82306040518363ffffffff1660e01b81526004016110a5929190612263565b600060405180830381600087803b1580156110bf57600080fd5b505af11580156110d3573d6000803e3d6000fd5b505050507f776df1c3410284df4434e1c3fab8f3b42ae44ac82f46062c8c1d711a8acc016e8383833033426040516111109695949392919061228c565b60405180910390a16040518060a001604052808481526020016006546008548661113a9190611e58565b6111449190611d29565b8152602001600081526020016000151581526020018315158152506010600083815260200190815260200160002060008201518160000155602082015181600101556040820151816002015560608201518160030160006101000a81548160ff02191690831515021790555060808201518160030160016101000a81548160ff0219169083151502179055509050506007546006541480156111e95750600954600854145b1561129e576000600a60006101000a81548160ff02191690831515021790555042600b81905550600160009054906101000a900473ffffffffffffffffffffffffffffffffffffffff1673ffffffffffffffffffffffffffffffffffffffff166329d0cdf4306040518263ffffffff1660e01b815260040161126b919061230e565b600060405180830381600087803b15801561128557600080fd5b505af1158015611299573d6000803e3d6000fd5b505050505b505050565b600460009054906101000a900473ffffffffffffffffffffffffffffffffffffffff1681565b600c5481565b60065481565b60075481565b6112e361152a565b600073ffffffffffffffffffffffffffffffffffffffff168173ffffffffffffffffffffffffffffffffffffffff1603611352576040517f08c379a00000000000000000000000000000000000000000000000000000000081526004016113499061239b565b60405180910390fd5b61135b816115a8565b50565b600260009054906101000a900473ffffffffffffffffffffffffffffffffffffffff1681565b6000600b54426113949190611cc6565b9050600c548110156113db576040517f08c379a00000000000000000000000000000000000000000000000000000000081526004016113d29061242d565b60405180910390fd5b6001600e60006101000a81548160ff021916908315150217905550600560009054906101000a900473ffffffffffffffffffffffffffffffffffffffff1673ffffffffffffffffffffffffffffffffffffffff166391b24b58306040518263ffffffff1660e01b8152600401611451919061182f565b602060405180830381865afa15801561146e573d6000803e3d6000fd5b505050506040513d601f19601f820116820180604052508101906114929190611fbb565b600f81905550600560009054906101000a900473ffffffffffffffffffffffffffffffffffffffff1673ffffffffffffffffffffffffffffffffffffffff16632e1a7d4d6006546040518263ffffffff1660e01b81526004016114f591906117f3565b600060405180830381600087803b15801561150f57600080fd5b505af1158015611523573d6000803e3d6000fd5b5050505050565b61153261166c565b73ffffffffffffffffffffffffffffffffffffffff16611550610b9f565b73ffffffffffffffffffffffffffffffffffffffff16146115a6576040517f08c379a000000000000000000000000000000000000000000000000000000000815260040161159d90612499565b60405180910390fd5b565b60008060009054906101000a900473ffffffffffffffffffffffffffffffffffffffff169050816000806101000a81548173ffffffffffffffffffffffffffffffffffffffff021916908373ffffffffffffffffffffffffffffffffffffffff1602179055508173ffffffffffffffffffffffffffffffffffffffff168173ffffffffffffffffffffffffffffffffffffffff167f8be0079c531659141344cd1fd0a4f28419497f9722a3daafe3b4186f6b6457e060405160405180910390a35050565b600033905090565b600080fd5b6000819050919050565b61168c81611679565b811461169757600080fd5b50565b6000813590506116a981611683565b92915050565b6000602082840312156116c5576116c4611674565b5b60006116d38482850161169a565b91505092915050565b6116e581611679565b82525050565b60008115159050919050565b611700816116eb565b82525050565b600060a08201905061171b60008301886116dc565b61172860208301876116dc565b61173560408301866116dc565b61174260608301856116f7565b61174f60808301846116f7565b9695505050505050565b600073ffffffffffffffffffffffffffffffffffffffff82169050919050565b6000819050919050565b600061179e61179961179484611759565b611779565b611759565b9050919050565b60006117b082611783565b9050919050565b60006117c2826117a5565b9050919050565b6117d2816117b7565b82525050565b60006020820190506117ed60008301846117c9565b92915050565b600060208201905061180860008301846116dc565b92915050565b600061181982611759565b9050919050565b6118298161180e565b82525050565b60006020820190506118446000830184611820565b92915050565b611853816116eb565b811461185e57600080fd5b50565b6000813590506118708161184a565b92915050565b6000806040838503121561188d5761188c611674565b5b600061189b8582860161169a565b92505060206118ac85828601611861565b9150509250929050565b60006118c1826117a5565b9050919050565b6118d1816118b6565b82525050565b60006020820190506118ec60008301846118c8565b92915050565b6118fb8161180e565b811461190657600080fd5b50565b600081359050611918816118f2565b92915050565b60006020828403121561193457611933611674565b5b600061194284828501611909565b91505092915050565b600082825260208201905092915050565b7f506f6f6c206973204f70656e2100000000000000000000000000000000000000600082015250565b6000611992600d8361194b565b915061199d8261195c565b602082019050919050565b600060208201905081810360008301526119c181611985565b9050919050565b60006119d38261180e565b9050919050565b6119e3816119c8565b81146119ee57600080fd5b50565b600081519050611a00816119da565b92915050565b600060208284031215611a1c57611a1b611674565b5b6000611a2a848285016119f1565b91505092915050565b600081519050611a42816118f2565b92915050565b600060208284031215611a5e57611a5d611674565b5b6000611a6c84828501611a33565b91505092915050565b7f596f7520646f206e6f7420686176652061636365737320746f2077697468647260008201527f61772077697468207468697320546f6b656e4944000000000000000000000000602082015250565b6000611ad160348361194b565b9150611adc82611a75565b604082019050919050565b60006020820190508181036000830152611b0081611ac4565b9050919050565b7f596f752068617665206e6f2076616c7565000000000000000000000000000000600082015250565b6000611b3d60118361194b565b9150611b4882611b07565b602082019050919050565b60006020820190508181036000830152611b6c81611b30565b9050919050565b7f596f75206861766520616c72656164792072656365696576656420796f75722060008201527f7072696e636970616c2100000000000000000000000000000000000000000000602082015250565b6000611bcf602a8361194b565b9150611bda82611b73565b604082019050919050565b60006020820190508181036000830152611bfe81611bc2565b9050919050565b7f596f75206861766520616c726561647920636f6c6c656374656420616c6c207960008201527f6f7572207061796d656e74732100000000000000000000000000000000000000602082015250565b6000611c61602d8361194b565b9150611c6c82611c05565b604082019050919050565b60006020820190508181036000830152611c9081611c54565b9050919050565b7f4e487b7100000000000000000000000000000000000000000000000000000000600052601160045260246000fd5b6000611cd182611679565b9150611cdc83611679565b9250828203905081811115611cf457611cf3611c97565b5b92915050565b7f4e487b7100000000000000000000000000000000000000000000000000000000600052601260045260246000fd5b6000611d3482611679565b9150611d3f83611679565b925082611d4f57611d4e611cfa565b5b828204905092915050565b7f546f6f204561726c792100000000000000000000000000000000000000000000600082015250565b6000611d90600a8361194b565b9150611d9b82611d5a565b602082019050919050565b60006020820190508181036000830152611dbf81611d83565b9050919050565b7f596f75206861766520616c726561647920636f6c6c656374656420616c6c207960008201527f6f7572206f70656e207061796d656e7473210000000000000000000000000000602082015250565b6000611e2260328361194b565b9150611e2d82611dc6565b604082019050919050565b60006020820190508181036000830152611e5181611e15565b9050919050565b6000611e6382611679565b9150611e6e83611679565b9250828202611e7c81611679565b91508282048414831517611e9357611e92611c97565b5b5092915050565b6000611ea582611679565b9150611eb083611679565b9250828201905080821115611ec857611ec7611c97565b5b92915050565b7f546f6f204561726c7920746f2077697468647261772100000000000000000000600082015250565b6000611f0460168361194b565b9150611f0f82611ece565b602082019050919050565b60006020820190508181036000830152611f3381611ef7565b9050919050565b7f596f75206861766520616c72656164792077697468647261776e000000000000600082015250565b6000611f70601a8361194b565b9150611f7b82611f3a565b602082019050919050565b60006020820190508181036000830152611f9f81611f63565b9050919050565b600081519050611fb581611683565b92915050565b600060208284031215611fd157611fd0611674565b5b6000611fdf84828501611fa6565b91505092915050565b7f496e73756666696369656e742062616c616e6365210000000000000000000000600082015250565b600061201e60158361194b565b915061202982611fe8565b602082019050919050565b6000602082019050818103600083015261204d81612011565b9050919050565b60006040820190506120696000830185611820565b61207660208301846116dc565b9392505050565b60008151905061208c8161184a565b92915050565b6000602082840312156120a8576120a7611674565b5b60006120b68482850161207d565b91505092915050565b7f5472616e73666572206661696c65642100000000000000000000000000000000600082015250565b60006120f560108361194b565b9150612100826120bf565b602082019050919050565b60006020820190508181036000830152612124816120e8565b9050919050565b600060408201905061214060008301856116dc565b61214d60208301846116dc565b9392505050565b7f506f6f6c206973204e6f74204f70656e21000000000000000000000000000000600082015250565b600061218a60118361194b565b915061219582612154565b602082019050919050565b600060208201905081810360008301526121b98161217d565b9050919050565b7f496e76616c696420616d6f756e74000000000000000000000000000000000000600082015250565b60006121f6600e8361194b565b9150612201826121c0565b602082019050919050565b60006020820190508181036000830152612225816121e9565b9050919050565b60006060820190506122416000830186611820565b61224e6020830185611820565b61225b60408301846116dc565b949350505050565b600060408201905061227860008301856116dc565b6122856020830184611820565b9392505050565b600060c0820190506122a160008301896116dc565b6122ae60208301886116f7565b6122bb60408301876116dc565b6122c86060830186611820565b6122d56080830185611820565b6122e260a08301846116dc565b979650505050505050565b60006122f8826117a5565b9050919050565b612308816122ed565b82525050565b600060208201905061232360008301846122ff565b92915050565b7f4f776e61626c653a206e6577206f776e657220697320746865207a65726f206160008201527f6464726573730000000000000000000000000000000000000000000000000000602082015250565b600061238560268361194b565b915061239082612329565b604082019050919050565b600060208201905081810360008301526123b481612378565b9050919050565b7f497420697320746f6f206561726c7920746f20776974686472617720796f757260008201527f207072696e636970616c21000000000000000000000000000000000000000000602082015250565b6000612417602b8361194b565b9150612422826123bb565b604082019050919050565b600060208201905081810360008301526124468161240a565b9050919050565b7f4f776e61626c653a2063616c6c6572206973206e6f7420746865206f776e6572600082015250565b600061248360208361194b565b915061248e8261244d565b602082019050919050565b600060208201905081810360008301526124b281612476565b905091905056fea2646970667358221220a1720b1bad6b0b429ec71460da50e59ad047c212c0c2cb556ff3978d2eb002a764736f6c6343000814003360e06040523480156200001157600080fd5b50604051620020f1380380620020f18339818101604052810190620000379190620003a5565b6001600081905550600073ffffffffffffffffffffffffffffffffffffffff168373ffffffffffffffffffffffffffffffffffffffff1603620000b1576040517f08c379a0000000000000000000000000000000000000000000000000000000008152600401620000a89062000462565b60405180910390fd5b600073ffffffffffffffffffffffffffffffffffffffff168273ffffffffffffffffffffffffffffffffffffffff160362000123576040517f08c379a00000000000000000000000000000000000000000000000000000000081526004016200011a90620004d4565b60405180910390fd5b600073ffffffffffffffffffffffffffffffffffffffff168173ffffffffffffffffffffffffffffffffffffffff160362000195576040517f08c379a00000000000000000000000000000000000000000000000000000000081526004016200018c9062000546565b60405180910390fd5b8273ffffffffffffffffffffffffffffffffffffffff1660808173ffffffffffffffffffffffffffffffffffffffff16815250508173ffffffffffffffffffffffffffffffffffffffff1660a08173ffffffffffffffffffffffffffffffffffffffff16815250508073ffffffffffffffffffffffffffffffffffffffff1660c08173ffffffffffffffffffffffffffffffffffffffff168152505060805173ffffffffffffffffffffffffffffffffffffffff1663095ea7b360a0517fffffffffffffffffffffffffffffffffffffffffffffffffffffffffffffffff6040518363ffffffff1660e01b81526004016200029292919062000594565b6020604051808303816000875af1158015620002b2573d6000803e3d6000fd5b505050506040513d601f19601f82011682018060405250810190620002d89190620005fe565b5050505062000630565b600080fd5b600073ffffffffffffffffffffffffffffffffffffffff82169050919050565b60006200031482620002e7565b9050919050565b6000620003288262000307565b9050919050565b6200033a816200031b565b81146200034657600080fd5b50565b6000815190506200035a816200032f565b92915050565b60006200036d8262000307565b9050919050565b6200037f8162000360565b81146200038b57600080fd5b50565b6000815190506200039f8162000374565b92915050565b600080600060608486031215620003c157620003c0620002e2565b5b6000620003d18682870162000349565b9350506020620003e4868287016200038e565b9250506040620003f78682870162000349565b9150509250925092565b600082825260208201905092915050565b7f496e76616c696420746f6b656e00000000000000000000000000000000000000600082015250565b60006200044a600d8362000401565b9150620004578262000412565b602082019050919050565b600060208201905081810360008301526200047d816200043b565b9050919050565b7f496e76616c696420706f6f6c0000000000000000000000000000000000000000600082015250565b6000620004bc600c8362000401565b9150620004c98262000484565b602082019050919050565b60006020820190508181036000830152620004ef81620004ad565b9050919050565b7f496e76616c69642061546f6b656e000000000000000000000000000000000000600082015250565b60006200052e600e8362000401565b91506200053b82620004f6565b602082019050919050565b6000602082019050818103600083015262000561816200051f565b9050919050565b620005738162000307565b82525050565b6000819050919050565b6200058e8162000579565b82525050565b6000604082019050620005ab600083018562000568565b620005ba602083018462000583565b9392505050565b60008115159050919050565b620005d881620005c1565b8114620005e457600080fd5b50565b600081519050620005f881620005cd565b92915050565b600060208284031215620006175762000616620002e2565b5b60006200062784828501620005e7565b91505092915050565b60805160a05160c051611a28620006c9600039600081816103220152818161041801528181610679015281816107ca01526109e10152600081816101e301528181610512015281816105d3015281816107150152610b6501526000818161048d015281816104d501528181610597015281816107510152818161096c01528181610ac901528181610ba10152610c280152611a286000f3fe608060405234801561001057600080fd5b506004361061009e5760003560e01c806391b24b581161006657806391b24b5814610123578063a0c1f15e14610153578063b6b55f2514610171578063de69b3aa1461018d578063fc0c546a146101bd5761009e565b8063026c4207146100a357806316f0115b146100c1578063291c3f79146100df5780632e1a7d4d146100fd578063853828b614610119575b600080fd5b6100ab6101db565b6040516100b891906110c5565b60405180910390f35b6100c96101e1565b6040516100d6919061115f565b60405180910390f35b6100e7610205565b6040516100f491906110c5565b60405180910390f35b610117600480360381019061011291906111ab565b610211565b005b6101216102af565b005b61013d60048036038101906101389190611216565b610309565b60405161014a91906110c5565b60405180910390f35b61015b610416565b6040516101689190611264565b60405180910390f35b61018b600480360381019061018691906111ab565b61043a565b005b6101a760048036038101906101a29190611216565b610952565b6040516101b491906110c5565b60405180910390f35b6101c561096a565b6040516101d29190611264565b60405180910390f35b60025481565b7f000000000000000000000000000000000000000000000000000000000000000081565b670de0b6b3a764000081565b61021961098e565b600160003373ffffffffffffffffffffffffffffffffffffffff1673ffffffffffffffffffffffffffffffffffffffff1681526020019081526020016000205481111561029b576040517f08c379a0000000000000000000000000000000000000000000000000000000008152600401610292906112dc565b60405180910390fd5b6102a4816109dd565b6102ac610d84565b50565b6102b761098e565b6102ff600160003373ffffffffffffffffffffffffffffffffffffffff1673ffffffffffffffffffffffffffffffffffffffff168152602001908152602001600020546109dd565b610307610d84565b565b6000806002540361031d5760009050610411565b6002547f000000000000000000000000000000000000000000000000000000000000000073ffffffffffffffffffffffffffffffffffffffff166370a08231306040518263ffffffff1660e01b8152600401610379919061130b565b602060405180830381865afa158015610396573d6000803e3d6000fd5b505050506040513d601f19601f820116820180604052508101906103ba919061133b565b600160008573ffffffffffffffffffffffffffffffffffffffff1673ffffffffffffffffffffffffffffffffffffffff168152602001908152602001600020546104049190611397565b61040e9190611408565b90505b919050565b7f000000000000000000000000000000000000000000000000000000000000000081565b61044261098e565b60008111610485576040517f08c379a000000000000000000000000000000000000000000000000000000000815260040161047c90611485565b60405180910390fd5b6104d23330837f000000000000000000000000000000000000000000000000000000000000000073ffffffffffffffffffffffffffffffffffffffff16610d8e909392919063ffffffff16565b807f000000000000000000000000000000000000000000000000000000000000000073ffffffffffffffffffffffffffffffffffffffff1663dd62ed3e307f00000000000000000000000000000000000000000000000000000000000000006040518363ffffffff1660e01b815260040161054e9291906114a5565b602060405180830381865afa15801561056b573d6000803e3d6000fd5b505050506040513d601f19601f8201168201806040525081019061058f919061133b565b1015610675577f000000000000000000000000000000000000000000000000000000000000000073ffffffffffffffffffffffffffffffffffffffff1663095ea7b37f00000000000000000000000000000000000000000000000000000000000000007fffffffffffffffffffffffffffffffffffffffffffffffffffffffffffffffff6040518363ffffffff1660e01b81526004016106309291906114ce565b6020604051808303816000875af115801561064f573d6000803e3d6000fd5b505050506040513d601f19601f82011682018060405250810190610673919061152f565b505b60007f000000000000000000000000000000000000000000000000000000000000000073ffffffffffffffffffffffffffffffffffffffff166370a08231306040518263ffffffff1660e01b81526004016106d0919061130b565b602060405180830381865afa1580156106ed573d6000803e3d6000fd5b505050506040513d601f19601f82011682018060405250810190610711919061133b565b90507f000000000000000000000000000000000000000000000000000000000000000073ffffffffffffffffffffffffffffffffffffffff1663617ba0377f0000000000000000000000000000000000000000000000000000000000000000843060006040518563ffffffff1660e01b815260040161079394939291906115a5565b600060405180830381600087803b1580156107ad57600080fd5b505af11580156107c1573d6000803e3d6000fd5b505050506000817f000000000000000000000000000000000000000000000000000000000000000073ffffffffffffffffffffffffffffffffffffffff166370a08231306040518263ffffffff1660e01b8152600401610821919061130b565b602060405180830381865afa15801561083e573d6000803e3d6000fd5b505050506040513d601f19601f82011682018060405250810190610862919061133b565b61086c91906115ea565b905060008190506000600254111561089a57826002548361088d9190611397565b6108979190611408565b90505b80600260008282546108ac919061161e565b9250508190555080600160003373ffffffffffffffffffffffffffffffffffffffff1673ffffffffffffffffffffffffffffffffffffffff1681526020019081526020016000206000828254610902919061161e565b925050819055507f90890809c654f11d6e72a28fa60149770a0d11ec6c92319d6ceb2bb0a4ea1a1533858360405161093c93929190611652565b60405180910390a150505061094f610d84565b50565b60016020528060005260406000206000915090505481565b7f000000000000000000000000000000000000000000000000000000000000000081565b6002600054036109d3576040517f08c379a00000000000000000000000000000000000000000000000000000000081526004016109ca906116d5565b60405180910390fd5b6002600081905550565b60007f000000000000000000000000000000000000000000000000000000000000000073ffffffffffffffffffffffffffffffffffffffff166370a08231306040518263ffffffff1660e01b8152600401610a38919061130b565b602060405180830381865afa158015610a55573d6000803e3d6000fd5b505050506040513d601f19601f82011682018060405250810190610a79919061133b565b905060006002548284610a8c9190611397565b610a969190611408565b90506002548303610ac5577fffffffffffffffffffffffffffffffffffffffffffffffffffffffffffffffff90505b60007f000000000000000000000000000000000000000000000000000000000000000073ffffffffffffffffffffffffffffffffffffffff166370a08231336040518263ffffffff1660e01b8152600401610b20919061130b565b602060405180830381865afa158015610b3d573d6000803e3d6000fd5b505050506040513d601f19601f82011682018060405250810190610b61919061133b565b90507f000000000000000000000000000000000000000000000000000000000000000073ffffffffffffffffffffffffffffffffffffffff166369328dec7f000000000000000000000000000000000000000000000000000000000000000084336040518463ffffffff1660e01b8152600401610be0939291906116f5565b6020604051808303816000875af1158015610bff573d6000803e3d6000fd5b505050506040513d601f19601f82011682018060405250810190610c23919061133b565b5060007f000000000000000000000000000000000000000000000000000000000000000073ffffffffffffffffffffffffffffffffffffffff166370a08231336040518263ffffffff1660e01b8152600401610c7f919061130b565b602060405180830381865afa158015610c9c573d6000803e3d6000fd5b505050506040513d601f19601f82011682018060405250810190610cc0919061133b565b905060008282610cd091906115ea565b905085600160003373ffffffffffffffffffffffffffffffffffffffff1673ffffffffffffffffffffffffffffffffffffffff1681526020019081526020016000206000828254610d2191906115ea565b925050819055508560026000828254610d3a91906115ea565b925050819055507ff279e6a1f5e320cca91135676d9cb6e44ca8a08c0b88342bcdb1144f6511b568338288604051610d7493929190611652565b60405180910390a1505050505050565b6001600081905550565b610e11846323b872dd60e01b858585604051602401610daf9392919061172c565b604051602081830303815290604052907bffffffffffffffffffffffffffffffffffffffffffffffffffffffff19166020820180517bffffffffffffffffffffffffffffffffffffffffffffffffffffffff8381831617835250505050610e17565b50505050565b6000610e79826040518060400160405280602081526020017f5361666545524332303a206c6f772d6c6576656c2063616c6c206661696c65648152508573ffffffffffffffffffffffffffffffffffffffff16610edf9092919063ffffffff16565b9050600081511480610e9b575080806020019051810190610e9a919061152f565b5b610eda576040517f08c379a0000000000000000000000000000000000000000000000000000000008152600401610ed1906117d5565b60405180910390fd5b505050565b6060610eee8484600085610ef7565b90509392505050565b606082471015610f3c576040517f08c379a0000000000000000000000000000000000000000000000000000000008152600401610f3390611867565b60405180910390fd5b6000808673ffffffffffffffffffffffffffffffffffffffff168587604051610f6591906118f8565b60006040518083038185875af1925050503d8060008114610fa2576040519150601f19603f3d011682016040523d82523d6000602084013e610fa7565b606091505b5091509150610fb887838387610fc4565b92505050949350505050565b6060831561102657600083510361101e57610fde85611039565b61101d576040517f08c379a00000000000000000000000000000000000000000000000000000000081526004016110149061195b565b60405180910390fd5b5b829050611031565b611030838361105c565b5b949350505050565b6000808273ffffffffffffffffffffffffffffffffffffffff163b119050919050565b60008251111561106f5781518083602001fd5b806040517f08c379a00000000000000000000000000000000000000000000000000000000081526004016110a391906119d0565b60405180910390fd5b6000819050919050565b6110bf816110ac565b82525050565b60006020820190506110da60008301846110b6565b92915050565b600073ffffffffffffffffffffffffffffffffffffffff82169050919050565b6000819050919050565b600061112561112061111b846110e0565b611100565b6110e0565b9050919050565b60006111378261110a565b9050919050565b60006111498261112c565b9050919050565b6111598161113e565b82525050565b60006020820190506111746000830184611150565b92915050565b600080fd5b611188816110ac565b811461119357600080fd5b50565b6000813590506111a58161117f565b92915050565b6000602082840312156111c1576111c061117a565b5b60006111cf84828501611196565b91505092915050565b60006111e3826110e0565b9050919050565b6111f3816111d8565b81146111fe57600080fd5b50565b600081359050611210816111ea565b92915050565b60006020828403121561122c5761122b61117a565b5b600061123a84828501611201565b91505092915050565b600061124e8261112c565b9050919050565b61125e81611243565b82525050565b60006020820190506112796000830184611255565b92915050565b600082825260208201905092915050565b7f496e76616c6964207368617265416d6f756e7400000000000000000000000000600082015250565b60006112c660138361127f565b91506112d182611290565b602082019050919050565b600060208201905081810360008301526112f5816112b9565b9050919050565b611305816111d8565b82525050565b600060208201905061132060008301846112fc565b92915050565b6000815190506113358161117f565b92915050565b6000602082840312156113515761135061117a565b5b600061135f84828501611326565b91505092915050565b7f4e487b7100000000000000000000000000000000000000000000000000000000600052601160045260246000fd5b60006113a2826110ac565b91506113ad836110ac565b92508282026113bb816110ac565b915082820484148315176113d2576113d1611368565b5b5092915050565b7f4e487b7100000000000000000000000000000000000000000000000000000000600052601260045260246000fd5b6000611413826110ac565b915061141e836110ac565b92508261142e5761142d6113d9565b5b828204905092915050565b7f496e76616c696420616d6f756e74000000000000000000000000000000000000600082015250565b600061146f600e8361127f565b915061147a82611439565b602082019050919050565b6000602082019050818103600083015261149e81611462565b9050919050565b60006040820190506114ba60008301856112fc565b6114c760208301846112fc565b9392505050565b60006040820190506114e360008301856112fc565b6114f060208301846110b6565b9392505050565b60008115159050919050565b61150c816114f7565b811461151757600080fd5b50565b60008151905061152981611503565b92915050565b6000602082840312156115455761154461117a565b5b60006115538482850161151a565b91505092915050565b6000819050919050565b600061ffff82169050919050565b600061158f61158a6115858461155c565b611100565b611566565b9050919050565b61159f81611574565b82525050565b60006080820190506115ba60008301876112fc565b6115c760208301866110b6565b6115d460408301856112fc565b6115e16060830184611596565b95945050505050565b60006115f5826110ac565b9150611600836110ac565b925082820390508181111561161857611617611368565b5b92915050565b6000611629826110ac565b9150611634836110ac565b925082820190508082111561164c5761164b611368565b5b92915050565b600060608201905061166760008301866112fc565b61167460208301856110b6565b61168160408301846110b6565b949350505050565b7f5265656e7472616e637947756172643a207265656e7472616e742063616c6c00600082015250565b60006116bf601f8361127f565b91506116ca82611689565b602082019050919050565b600060208201905081810360008301526116ee816116b2565b9050919050565b600060608201905061170a60008301866112fc565b61171760208301856110b6565b61172460408301846112fc565b949350505050565b600060608201905061174160008301866112fc565b61174e60208301856112fc565b61175b60408301846110b6565b949350505050565b7f5361666545524332303a204552433230206f7065726174696f6e20646964206e60008201527f6f74207375636365656400000000000000000000000000000000000000000000602082015250565b60006117bf602a8361127f565b91506117ca82611763565b604082019050919050565b600060208201905081810360008301526117ee816117b2565b9050919050565b7f416464726573733a20696e73756666696369656e742062616c616e636520666f60008201527f722063616c6c0000000000000000000000000000000000000000000000000000602082015250565b600061185160268361127f565b915061185c826117f5565b604082019050919050565b6000602082019050818103600083015261188081611844565b9050919050565b600081519050919050565b600081905092915050565b60005b838110156118bb5780820151818401526020810190506118a0565b60008484015250505050565b60006118d282611887565b6118dc8185611892565b93506118ec81856020860161189d565b80840191505092915050565b600061190482846118c7565b915081905092915050565b7f416464726573733a2063616c6c20746f206e6f6e2d636f6e7472616374000000600082015250565b6000611945601d8361127f565b91506119508261190f565b602082019050919050565b6000602082019050818103600083015261197481611938565b9050919050565b600081519050919050565b6000601f19601f8301169050919050565b60006119a28261197b565b6119ac818561127f565b93506119bc81856020860161189d565b6119c581611986565b840191505092915050565b600060208201905081810360008301526119ea8184611997565b90509291505056fea26469706673582212208c54fb3205a614bb1cb7a5038ad2121a812d2bc292d8ac34dd8d20638897f1a164736f6c63430008140033",
  "linkReferences": {},
  "deployedLinkReferences": {}
}