{
  "_format": "hh-sol-artifact-1",
  "contractName": "LilaPoolAddressProvider",
  "sourceName": "contracts/LilaPoolAddressProvider.sol",
  "abi": [
    {
      "inputs": [
        {
          "internalType": "contract LilaPosition",
          "name": "_position",
          "type": "address"
        }
      ],
      "stateMutability": "nonpayable",
      "type": "constructor"
    },
    {
      "inputs": [
        {
          "internalType": "contract LilaPool",
          "name": "local",
          "type": "address"
        }
      ],
      "name": "closePool",
      "outputs": [],
      "stateMutability": "nonpayable",
      "type": "function"
    },
    {
      "inputs": [],
      "name": "getOpenPools",
      "outputs": [
        {
          "internalType": "uint256",
          "name": "",
          "type": "uint256"
        }
      ],
      "stateMutability": "view",
      "type": "function"
    },
    {
      "inputs": [
        {
          "internalType": "uint256",
          "name": "id",
          "type": "uint256"
        }
      ],
      "name": "getPool",
      "outputs": [
        {
          "internalType": "contract LilaPool",
          "name": "",
          "type": "address"
        }
      ],
      "stateMutability": "view",
      "type": "function"
    },
    {
      "inputs": [],
      "name": "position",
      "outputs": [
        {
          "internalType": "contract LilaPosition",
          "name": "",
          "type": "address"
        }
      ],
      "stateMutability": "view",
      "type": "function"
    },
    {
      "inputs": [
        {
          "internalType": "uint256",
          "name": "_openPools",
          "type": "uint256"
        }
      ],
      "name": "setOpenPools",
      "outputs": [],
      "stateMutability": "nonpayable",
      "type": "function"
    },
    {
      "inputs": [
        {
          "internalType": "uint256",
          "name": "id",
          "type": "uint256"
        },
        {
          "internalType": "contract LilaPool",
          "name": "pool",
          "type": "address"
        }
      ],
      "name": "setPool",
      "outputs": [],
      "stateMutability": "nonpayable",
      "type": "function"
    }
  ],
  "bytecode": "0x60a060405234801561001057600080fd5b50604051620057a5380380620057a5833981810160405281019061003491906100e3565b8073ffffffffffffffffffffffffffffffffffffffff1660808173ffffffffffffffffffffffffffffffffffffffff168152505050610110565b600080fd5b600073ffffffffffffffffffffffffffffffffffffffff82169050919050565b600061009e82610073565b9050919050565b60006100b082610093565b9050919050565b6100c0816100a5565b81146100cb57600080fd5b50565b6000815190506100dd816100b7565b92915050565b6000602082840312156100f9576100f861006e565b5b6000610107848285016100ce565b91505092915050565b6080516156796200012c600039600061018701526156796000f3fe60806040523480156200001157600080fd5b50600436106200006a5760003560e01c8063068bcd8d146200006f57806309218e9114620000a557806329d0cdf414620000c7578063814c36a414620000e7578063a694cf321462000109578063f3a6ee401462000129575b600080fd5b6200008d600480360381019062000087919062000744565b62000149565b6040516200009c919062000801565b60405180910390f35b620000af62000185565b604051620000be919062000843565b60405180910390f35b620000e56004803603810190620000df9190620008b9565b620001a9565b005b620000f16200068d565b604051620001009190620008fc565b60405180910390f35b62000127600480360381019062000121919062000744565b62000697565b005b62000147600480360381019062000141919062000919565b620006a1565b005b600080600083815260200190815260200160002060009054906101000a900473ffffffffffffffffffffffffffffffffffffffff169050919050565b7f000000000000000000000000000000000000000000000000000000000000000081565b308173ffffffffffffffffffffffffffffffffffffffff1663fc0c546a6040518163ffffffff1660e01b8152600401602060405180830381865afa158015620001f6573d6000803e3d6000fd5b505050506040513d601f19601f820116820180604052508101906200021c9190620009a5565b8273ffffffffffffffffffffffffffffffffffffffff166316f0115b6040518163ffffffff1660e01b8152600401602060405180830381865afa15801562000268573d6000803e3d6000fd5b505050506040513d601f19601f820116820180604052508101906200028e919062000a1c565b8373ffffffffffffffffffffffffffffffffffffffff1663a293b0cd6040518163ffffffff1660e01b8152600401602060405180830381865afa158015620002da573d6000803e3d6000fd5b505050506040513d601f19601f82011682018060405250810190620003009190620009a5565b8473ffffffffffffffffffffffffffffffffffffffff1663d955c5196040518163ffffffff1660e01b8152600401602060405180830381865afa1580156200034c573d6000803e3d6000fd5b505050506040513d601f19601f8201168201806040525081019062000372919062000a65565b8573ffffffffffffffffffffffffffffffffffffffff16633f49d3276040518163ffffffff1660e01b8152600401602060405180830381865afa158015620003be573d6000803e3d6000fd5b505050506040513d601f19601f82011682018060405250810190620003e4919062000a65565b8673ffffffffffffffffffffffffffffffffffffffff1663bd06f3f16040518163ffffffff1660e01b8152600401602060405180830381865afa15801562000430573d6000803e3d6000fd5b505050506040513d601f19601f8201168201806040525081019062000456919062000a65565b8773ffffffffffffffffffffffffffffffffffffffff1663578318096040518163ffffffff1660e01b8152600401602060405180830381865afa158015620004a2573d6000803e3d6000fd5b505050506040513d601f19601f82011682018060405250810190620004c8919062000a65565b604051620004d690620006f6565b620004e998979695949392919062000b06565b604051809103906000f08015801562000506573d6000803e3d6000fd5b50600080600160008573ffffffffffffffffffffffffffffffffffffffff1673ffffffffffffffffffffffffffffffffffffffff16815260200190815260200160002054815260200190815260200160002060006101000a81548173ffffffffffffffffffffffffffffffffffffffff021916908373ffffffffffffffffffffffffffffffffffffffff160217905550600160008273ffffffffffffffffffffffffffffffffffffffff1673ffffffffffffffffffffffffffffffffffffffff1681526020019081526020016000205460016000806000600160008773ffffffffffffffffffffffffffffffffffffffff1673ffffffffffffffffffffffffffffffffffffffff16815260200190815260200160002054815260200190815260200160002060009054906101000a900473ffffffffffffffffffffffffffffffffffffffff1673ffffffffffffffffffffffffffffffffffffffff1673ffffffffffffffffffffffffffffffffffffffff1681526020019081526020016000208190555050565b6000600254905090565b8060028190555050565b8060008084815260200190815260200160002060006101000a81548173ffffffffffffffffffffffffffffffffffffffff021916908373ffffffffffffffffffffffffffffffffffffffff1602179055505050565b614aaf8062000b9583390190565b600080fd5b6000819050919050565b6200071e8162000709565b81146200072a57600080fd5b50565b6000813590506200073e8162000713565b92915050565b6000602082840312156200075d576200075c62000704565b5b60006200076d848285016200072d565b91505092915050565b600073ffffffffffffffffffffffffffffffffffffffff82169050919050565b6000819050919050565b6000620007c1620007bb620007b58462000776565b62000796565b62000776565b9050919050565b6000620007d582620007a0565b9050919050565b6000620007e982620007c8565b9050919050565b620007fb81620007dc565b82525050565b6000602082019050620008186000830184620007f0565b92915050565b60006200082b82620007c8565b9050919050565b6200083d816200081e565b82525050565b60006020820190506200085a600083018462000832565b92915050565b60006200086d8262000776565b9050919050565b6000620008818262000860565b9050919050565b620008938162000874565b81146200089f57600080fd5b50565b600081359050620008b38162000888565b92915050565b600060208284031215620008d257620008d162000704565b5b6000620008e284828501620008a2565b91505092915050565b620008f68162000709565b82525050565b6000602082019050620009136000830184620008eb565b92915050565b6000806040838503121562000933576200093262000704565b5b600062000943858286016200072d565b92505060206200095685828601620008a2565b9150509250929050565b60006200096d8262000860565b9050919050565b6200097f8162000960565b81146200098b57600080fd5b50565b6000815190506200099f8162000974565b92915050565b600060208284031215620009be57620009bd62000704565b5b6000620009ce848285016200098e565b91505092915050565b6000620009e48262000860565b9050919050565b620009f681620009d7565b811462000a0257600080fd5b50565b60008151905062000a1681620009eb565b92915050565b60006020828403121562000a355762000a3462000704565b5b600062000a458482850162000a05565b91505092915050565b60008151905062000a5f8162000713565b92915050565b60006020828403121562000a7e5762000a7d62000704565b5b600062000a8e8482850162000a4e565b91505092915050565b600062000aa482620007c8565b9050919050565b62000ab68162000a97565b82525050565b600062000ac982620007c8565b9050919050565b62000adb8162000abc565b82525050565b600062000aee82620007c8565b9050919050565b62000b008162000ae1565b82525050565b60006101008201905062000b1e600083018b62000aab565b62000b2d602083018a62000ad0565b62000b3c604083018962000af5565b62000b4b606083018862000ad0565b62000b5a6080830187620008eb565b62000b6960a0830186620008eb565b62000b7860c0830185620008eb565b62000b8760e0830184620008eb565b999850505050505050505056fe60806040523480156200001157600080fd5b5060405162004aaf38038062004aaf83398181016040528101906200003791906200043a565b620000576200004b6200021d60201b60201c565b6200022560201b60201c565b87600160006101000a81548173ffffffffffffffffffffffffffffffffffffffff021916908373ffffffffffffffffffffffffffffffffffffffff16021790555086600260006101000a81548173ffffffffffffffffffffffffffffffffffffffff021916908373ffffffffffffffffffffffffffffffffffffffff16021790555085600360006101000a81548173ffffffffffffffffffffffffffffffffffffffff021916908373ffffffffffffffffffffffffffffffffffffffff16021790555084600460006101000a81548173ffffffffffffffffffffffffffffffffffffffff021916908373ffffffffffffffffffffffffffffffffffffffff1602179055506001600a60006101000a81548160ff0219169083151502179055508686866040516200018790620002e9565b620001959392919062000593565b604051809103906000f080158015620001b2573d6000803e3d6000fd5b50600560006101000a81548173ffffffffffffffffffffffffffffffffffffffff021916908373ffffffffffffffffffffffffffffffffffffffff160217905550836006819055508260088190555081600c8190555080600d819055505050505050505050620005d0565b600033905090565b60008060009054906101000a900473ffffffffffffffffffffffffffffffffffffffff169050816000806101000a81548173ffffffffffffffffffffffffffffffffffffffff021916908373ffffffffffffffffffffffffffffffffffffffff1602179055508173ffffffffffffffffffffffffffffffffffffffff168173ffffffffffffffffffffffffffffffffffffffff167f8be0079c531659141344cd1fd0a4f28419497f9722a3daafe3b4186f6b6457e060405160405180910390a35050565b6120f180620029be83390190565b600080fd5b600073ffffffffffffffffffffffffffffffffffffffff82169050919050565b60006200032982620002fc565b9050919050565b60006200033d826200031c565b9050919050565b6200034f8162000330565b81146200035b57600080fd5b50565b6000815190506200036f8162000344565b92915050565b600062000382826200031c565b9050919050565b620003948162000375565b8114620003a057600080fd5b50565b600081519050620003b48162000389565b92915050565b6000620003c7826200031c565b9050919050565b620003d981620003ba565b8114620003e557600080fd5b50565b600081519050620003f981620003ce565b92915050565b6000819050919050565b6200041481620003ff565b81146200042057600080fd5b50565b600081519050620004348162000409565b92915050565b600080600080600080600080610100898b0312156200045e576200045d620002f7565b5b60006200046e8b828c016200035e565b9850506020620004818b828c01620003a3565b9750506040620004948b828c01620003e8565b9650506060620004a78b828c01620003a3565b9550506080620004ba8b828c0162000423565b94505060a0620004cd8b828c0162000423565b93505060c0620004e08b828c0162000423565b92505060e0620004f38b828c0162000423565b9150509295985092959890939650565b6000819050919050565b60006200052e620005286200052284620002fc565b62000503565b620002fc565b9050919050565b600062000542826200050d565b9050919050565b6000620005568262000535565b9050919050565b620005688162000549565b82525050565b60006200057b8262000535565b9050919050565b6200058d816200056e565b82525050565b6000606082019050620005aa60008301866200055d565b620005b9602083018562000582565b620005c860408301846200055d565b949350505050565b6123de80620005e06000396000f3fe608060405234801561001057600080fd5b50600436106100ea5760003560e01c80639a4083211161008c578063d955c51911610066578063d955c51914610203578063e30bed4114610221578063f2fde38b1461023f578063fc0c546a1461025b576100ea565b80639a408321146101ab578063a293b0cd146101c7578063bd06f3f1146101e5576100ea565b806357831809116100c857806357831809146101475780636c0023f914610165578063715018a6146101835780638da5cb5b1461018d576100ea565b806316f0115b146100ef5780632e1a7d4d1461010d5780633f49d32714610129575b600080fd5b6100f7610279565b6040516101049190611635565b60405180910390f35b6101276004803603810190610122919061168b565b61029f565b005b610131610abb565b60405161013e91906116c7565b60405180910390f35b61014f610ac1565b60405161015c91906116c7565b60405180910390f35b61016d610ac7565b60405161017a91906116c7565b60405180910390f35b61018b610acd565b005b610195610ae1565b6040516101a29190611703565b60405180910390f35b6101c560048036038101906101c09190611756565b610b0a565b005b6101cf6111e5565b6040516101dc91906117b7565b60405180910390f35b6101ed61120b565b6040516101fa91906116c7565b60405180910390f35b61020b611211565b60405161021891906116c7565b60405180910390f35b610229611217565b60405161023691906116c7565b60405180910390f35b610259600480360381019061025491906117fe565b61121d565b005b6102636112a0565b60405161027091906117b7565b60405180910390f35b600360009054906101000a900473ffffffffffffffffffffffffffffffffffffffff1681565b600a60009054906101000a900460ff16156102ef576040517f08c379a00000000000000000000000000000000000000000000000000000000081526004016102e690611888565b60405180910390fd5b3373ffffffffffffffffffffffffffffffffffffffff16600160009054906101000a900473ffffffffffffffffffffffffffffffffffffffff1673ffffffffffffffffffffffffffffffffffffffff166309218e916040518163ffffffff1660e01b8152600401602060405180830381865afa158015610373573d6000803e3d6000fd5b505050506040513d601f19601f8201168201806040525081019061039791906118e6565b73ffffffffffffffffffffffffffffffffffffffff16636352211e836040518263ffffffff1660e01b81526004016103cf91906116c7565b602060405180830381865afa1580156103ec573d6000803e3d6000fd5b505050506040513d601f19601f820116820180604052508101906104109190611928565b73ffffffffffffffffffffffffffffffffffffffff1614610466576040517f08c379a000000000000000000000000000000000000000000000000000000000815260040161045d906119c7565b60405180910390fd5b60006010600083815260200190815260200160002060000154116104bf576040517f08c379a00000000000000000000000000000000000000000000000000000000081526004016104b690611a33565b60405180910390fd5b60006010600083815260200190815260200160002060030160019054906101000a900460ff161561077e57600d546010600084815260200190815260200160002060020154036105d757600e60009054906101000a900460ff16610526576105256112c6565b5b6010600083815260200190815260200160002060030160009054906101000a900460ff161561058a576040517f08c379a000000000000000000000000000000000000000000000000000000000815260040161058190611ac5565b60405180910390fd5b6010600083815260200190815260200160002060000154905060016010600084815260200190815260200160002060030160006101000a81548160ff021916908315150217905550610779565b600d54601060008481526020019081526020016000206002015410610631576040517f08c379a000000000000000000000000000000000000000000000000000000000815260040161062890611b57565b60405180910390fd5b6000600b54426106419190611ba6565b90506000600d54600c546106559190611c09565b9050600081836106659190611c09565b9050600081116106aa576040517f08c379a00000000000000000000000000000000000000000000000000000000081526004016106a190611c86565b60405180910390fd5b60106000868152602001908152602001600020600201548111610702576040517f08c379a00000000000000000000000000000000000000000000000000000000081526004016106f990611d18565b60405180910390fd5b60006010600087815260200190815260200160002060020154826107269190611ba6565b9050816010600088815260200190815260200160002060020181905550600d546010600088815260200190815260200160002060010154826107689190611d38565b6107729190611c09565b9450505050505b6108c1565b600c54600b5461078e9190611d7a565b4210156107d0576040517f08c379a00000000000000000000000000000000000000000000000000000000081526004016107c790611dfa565b60405180910390fd5b6010600083815260200190815260200160002060030160009054906101000a900460ff1615610834576040517f08c379a000000000000000000000000000000000000000000000000000000000815260040161082b90611e66565b60405180910390fd5b600e60009054906101000a900460ff16610851576108506112c6565b5b6008546010600084815260200190815260200160002060000154600654600f5461087b9190611ba6565b6108859190611d38565b61088f9190611c09565b905060016010600084815260200190815260200160002060030160006101000a81548160ff0219169083151502179055505b80600260009054906101000a900473ffffffffffffffffffffffffffffffffffffffff1673ffffffffffffffffffffffffffffffffffffffff166370a08231306040518263ffffffff1660e01b815260040161091d9190611703565b602060405180830381865afa15801561093a573d6000803e3d6000fd5b505050506040513d601f19601f8201168201806040525081019061095e9190611e9b565b101561099f576040517f08c379a000000000000000000000000000000000000000000000000000000000815260040161099690611f14565b60405180910390fd5b600260009054906101000a900473ffffffffffffffffffffffffffffffffffffffff1673ffffffffffffffffffffffffffffffffffffffff1663a9059cbb33836040518363ffffffff1660e01b81526004016109fc929190611f34565b6020604051808303816000875af1158015610a1b573d6000803e3d6000fd5b505050506040513d601f19601f82011682018060405250810190610a3f9190611f72565b610a7e576040517f08c379a0000000000000000000000000000000000000000000000000000000008152600401610a7590611feb565b60405180910390fd5b7fbf2ed60bd5b5965d685680c01195c9514e4382e28e3a5a2d2d5244bf59411b938142604051610aaf92919061200b565b60405180910390a15050565b60085481565b600d5481565b60095481565b610ad561146c565b610adf60006114ea565b565b60008060009054906101000a900473ffffffffffffffffffffffffffffffffffffffff16905090565b600a60009054906101000a900460ff16610b59576040517f08c379a0000000000000000000000000000000000000000000000000000000008152600401610b5090612080565b60405180910390fd5b8015610bcf57600754600654610b6f9190611ba6565b821115610bb1576040517f08c379a0000000000000000000000000000000000000000000000000000000008152600401610ba8906120ec565b60405180910390fd5b8160076000828254610bc39190611d7a565b92505081905550610c3b565b600954600854610bdf9190611ba6565b821115610c21576040517f08c379a0000000000000000000000000000000000000000000000000000000008152600401610c18906120ec565b60405180910390fd5b8160096000828254610c339190611d7a565b925050819055505b600260009054906101000a900473ffffffffffffffffffffffffffffffffffffffff1673ffffffffffffffffffffffffffffffffffffffff166323b872dd3330856040518463ffffffff1660e01b8152600401610c9a9392919061210c565b6020604051808303816000875af1158015610cb9573d6000803e3d6000fd5b505050506040513d601f19601f82011682018060405250810190610cdd9190611f72565b610d1c576040517f08c379a0000000000000000000000000000000000000000000000000000000008152600401610d1390611feb565b60405180910390fd5b6000600160009054906101000a900473ffffffffffffffffffffffffffffffffffffffff1673ffffffffffffffffffffffffffffffffffffffff166309218e916040518163ffffffff1660e01b8152600401602060405180830381865afa158015610d8b573d6000803e3d6000fd5b505050506040513d601f19601f82011682018060405250810190610daf91906118e6565b73ffffffffffffffffffffffffffffffffffffffff166318160ddd6040518163ffffffff1660e01b8152600401602060405180830381865afa158015610df9573d6000803e3d6000fd5b505050506040513d601f19601f82011682018060405250810190610e1d9190611e9b565b9050600160009054906101000a900473ffffffffffffffffffffffffffffffffffffffff1673ffffffffffffffffffffffffffffffffffffffff166309218e916040518163ffffffff1660e01b8152600401602060405180830381865afa158015610e8c573d6000803e3d6000fd5b505050506040513d601f19601f82011682018060405250810190610eb091906118e6565b73ffffffffffffffffffffffffffffffffffffffff166340c10f1933836040518363ffffffff1660e01b8152600401610eea929190611f34565b600060405180830381600087803b158015610f0457600080fd5b505af1158015610f18573d6000803e3d6000fd5b50505050600160009054906101000a900473ffffffffffffffffffffffffffffffffffffffff1673ffffffffffffffffffffffffffffffffffffffff166309218e916040518163ffffffff1660e01b8152600401602060405180830381865afa158015610f89573d6000803e3d6000fd5b505050506040513d601f19601f82011682018060405250810190610fad91906118e6565b73ffffffffffffffffffffffffffffffffffffffff16637a472fee82306040518363ffffffff1660e01b8152600401610fe7929190612143565b600060405180830381600087803b15801561100157600080fd5b505af1158015611015573d6000803e3d6000fd5b505050507f776df1c3410284df4434e1c3fab8f3b42ae44ac82f46062c8c1d711a8acc016e8383833033426040516110529695949392919061217b565b60405180910390a16040518060a001604052808481526020016006546008548661107c9190611d38565b6110869190611c09565b8152602001600081526020016000151581526020018315158152506010600083815260200190815260200160002060008201518160000155602082015181600101556040820151816002015560608201518160030160006101000a81548160ff02191690831515021790555060808201518160030160016101000a81548160ff02191690831515021790555090505060075460065414801561112b5750600954600854145b156111e0576000600a60006101000a81548160ff02191690831515021790555042600b81905550600160009054906101000a900473ffffffffffffffffffffffffffffffffffffffff1673ffffffffffffffffffffffffffffffffffffffff166329d0cdf4306040518263ffffffff1660e01b81526004016111ad91906121fd565b600060405180830381600087803b1580156111c757600080fd5b505af11580156111db573d6000803e3d6000fd5b505050505b505050565b600460009054906101000a900473ffffffffffffffffffffffffffffffffffffffff1681565b600c5481565b60065481565b60075481565b61122561146c565b600073ffffffffffffffffffffffffffffffffffffffff168173ffffffffffffffffffffffffffffffffffffffff1603611294576040517f08c379a000000000000000000000000000000000000000000000000000000000815260040161128b9061228a565b60405180910390fd5b61129d816114ea565b50565b600260009054906101000a900473ffffffffffffffffffffffffffffffffffffffff1681565b6000600b54426112d69190611ba6565b9050600c5481101561131d576040517f08c379a00000000000000000000000000000000000000000000000000000000081526004016113149061231c565b60405180910390fd5b6001600e60006101000a81548160ff021916908315150217905550600560009054906101000a900473ffffffffffffffffffffffffffffffffffffffff1673ffffffffffffffffffffffffffffffffffffffff166391b24b58306040518263ffffffff1660e01b81526004016113939190611703565b602060405180830381865afa1580156113b0573d6000803e3d6000fd5b505050506040513d601f19601f820116820180604052508101906113d49190611e9b565b600f81905550600560009054906101000a900473ffffffffffffffffffffffffffffffffffffffff1673ffffffffffffffffffffffffffffffffffffffff16632e1a7d4d6006546040518263ffffffff1660e01b815260040161143791906116c7565b600060405180830381600087803b15801561145157600080fd5b505af1158015611465573d6000803e3d6000fd5b5050505050565b6114746115ae565b73ffffffffffffffffffffffffffffffffffffffff16611492610ae1565b73ffffffffffffffffffffffffffffffffffffffff16146114e8576040517f08c379a00000000000000000000000000000000000000000000000000000000081526004016114df90612388565b60405180910390fd5b565b60008060009054906101000a900473ffffffffffffffffffffffffffffffffffffffff169050816000806101000a81548173ffffffffffffffffffffffffffffffffffffffff021916908373ffffffffffffffffffffffffffffffffffffffff1602179055508173ffffffffffffffffffffffffffffffffffffffff168173ffffffffffffffffffffffffffffffffffffffff167f8be0079c531659141344cd1fd0a4f28419497f9722a3daafe3b4186f6b6457e060405160405180910390a35050565b600033905090565b600073ffffffffffffffffffffffffffffffffffffffff82169050919050565b6000819050919050565b60006115fb6115f66115f1846115b6565b6115d6565b6115b6565b9050919050565b600061160d826115e0565b9050919050565b600061161f82611602565b9050919050565b61162f81611614565b82525050565b600060208201905061164a6000830184611626565b92915050565b600080fd5b6000819050919050565b61166881611655565b811461167357600080fd5b50565b6000813590506116858161165f565b92915050565b6000602082840312156116a1576116a0611650565b5b60006116af84828501611676565b91505092915050565b6116c181611655565b82525050565b60006020820190506116dc60008301846116b8565b92915050565b60006116ed826115b6565b9050919050565b6116fd816116e2565b82525050565b600060208201905061171860008301846116f4565b92915050565b60008115159050919050565b6117338161171e565b811461173e57600080fd5b50565b6000813590506117508161172a565b92915050565b6000806040838503121561176d5761176c611650565b5b600061177b85828601611676565b925050602061178c85828601611741565b9150509250929050565b60006117a182611602565b9050919050565b6117b181611796565b82525050565b60006020820190506117cc60008301846117a8565b92915050565b6117db816116e2565b81146117e657600080fd5b50565b6000813590506117f8816117d2565b92915050565b60006020828403121561181457611813611650565b5b6000611822848285016117e9565b91505092915050565b600082825260208201905092915050565b7f506f6f6c206973204f70656e2100000000000000000000000000000000000000600082015250565b6000611872600d8361182b565b915061187d8261183c565b602082019050919050565b600060208201905081810360008301526118a181611865565b9050919050565b60006118b3826116e2565b9050919050565b6118c3816118a8565b81146118ce57600080fd5b50565b6000815190506118e0816118ba565b92915050565b6000602082840312156118fc576118fb611650565b5b600061190a848285016118d1565b91505092915050565b600081519050611922816117d2565b92915050565b60006020828403121561193e5761193d611650565b5b600061194c84828501611913565b91505092915050565b7f596f7520646f206e6f7420686176652061636365737320746f2077697468647260008201527f61772077697468207468697320546f6b656e4944000000000000000000000000602082015250565b60006119b160348361182b565b91506119bc82611955565b604082019050919050565b600060208201905081810360008301526119e0816119a4565b9050919050565b7f596f752068617665206e6f2076616c7565000000000000000000000000000000600082015250565b6000611a1d60118361182b565b9150611a28826119e7565b602082019050919050565b60006020820190508181036000830152611a4c81611a10565b9050919050565b7f596f75206861766520616c72656164792072656365696576656420796f75722060008201527f7072696e636970616c2100000000000000000000000000000000000000000000602082015250565b6000611aaf602a8361182b565b9150611aba82611a53565b604082019050919050565b60006020820190508181036000830152611ade81611aa2565b9050919050565b7f596f75206861766520616c726561647920636f6c6c656374656420616c6c207960008201527f6f7572207061796d656e74732100000000000000000000000000000000000000602082015250565b6000611b41602d8361182b565b9150611b4c82611ae5565b604082019050919050565b60006020820190508181036000830152611b7081611b34565b9050919050565b7f4e487b7100000000000000000000000000000000000000000000000000000000600052601160045260246000fd5b6000611bb182611655565b9150611bbc83611655565b9250828203905081811115611bd457611bd3611b77565b5b92915050565b7f4e487b7100000000000000000000000000000000000000000000000000000000600052601260045260246000fd5b6000611c1482611655565b9150611c1f83611655565b925082611c2f57611c2e611bda565b5b828204905092915050565b7f546f6f204561726c792100000000000000000000000000000000000000000000600082015250565b6000611c70600a8361182b565b9150611c7b82611c3a565b602082019050919050565b60006020820190508181036000830152611c9f81611c63565b9050919050565b7f596f75206861766520616c726561647920636f6c6c656374656420616c6c207960008201527f6f7572206f70656e207061796d656e7473210000000000000000000000000000602082015250565b6000611d0260328361182b565b9150611d0d82611ca6565b604082019050919050565b60006020820190508181036000830152611d3181611cf5565b9050919050565b6000611d4382611655565b9150611d4e83611655565b9250828202611d5c81611655565b91508282048414831517611d7357611d72611b77565b5b5092915050565b6000611d8582611655565b9150611d9083611655565b9250828201905080821115611da857611da7611b77565b5b92915050565b7f546f6f204561726c7920746f2077697468647261772100000000000000000000600082015250565b6000611de460168361182b565b9150611def82611dae565b602082019050919050565b60006020820190508181036000830152611e1381611dd7565b9050919050565b7f596f75206861766520616c72656164792077697468647261776e000000000000600082015250565b6000611e50601a8361182b565b9150611e5b82611e1a565b602082019050919050565b60006020820190508181036000830152611e7f81611e43565b9050919050565b600081519050611e958161165f565b92915050565b600060208284031215611eb157611eb0611650565b5b6000611ebf84828501611e86565b91505092915050565b7f496e73756666696369656e742062616c616e6365210000000000000000000000600082015250565b6000611efe60158361182b565b9150611f0982611ec8565b602082019050919050565b60006020820190508181036000830152611f2d81611ef1565b9050919050565b6000604082019050611f4960008301856116f4565b611f5660208301846116b8565b9392505050565b600081519050611f6c8161172a565b92915050565b600060208284031215611f8857611f87611650565b5b6000611f9684828501611f5d565b91505092915050565b7f5472616e73666572206661696c65642100000000000000000000000000000000600082015250565b6000611fd560108361182b565b9150611fe082611f9f565b602082019050919050565b6000602082019050818103600083015261200481611fc8565b9050919050565b600060408201905061202060008301856116b8565b61202d60208301846116b8565b9392505050565b7f506f6f6c206973204e6f74204f70656e21000000000000000000000000000000600082015250565b600061206a60118361182b565b915061207582612034565b602082019050919050565b600060208201905081810360008301526120998161205d565b9050919050565b7f496e76616c696420616d6f756e74000000000000000000000000000000000000600082015250565b60006120d6600e8361182b565b91506120e1826120a0565b602082019050919050565b60006020820190508181036000830152612105816120c9565b9050919050565b600060608201905061212160008301866116f4565b61212e60208301856116f4565b61213b60408301846116b8565b949350505050565b600060408201905061215860008301856116b8565b61216560208301846116f4565b9392505050565b6121758161171e565b82525050565b600060c08201905061219060008301896116b8565b61219d602083018861216c565b6121aa60408301876116b8565b6121b760608301866116f4565b6121c460808301856116f4565b6121d160a08301846116b8565b979650505050505050565b60006121e782611602565b9050919050565b6121f7816121dc565b82525050565b600060208201905061221260008301846121ee565b92915050565b7f4f776e61626c653a206e6577206f776e657220697320746865207a65726f206160008201527f6464726573730000000000000000000000000000000000000000000000000000602082015250565b600061227460268361182b565b915061227f82612218565b604082019050919050565b600060208201905081810360008301526122a381612267565b9050919050565b7f497420697320746f6f206561726c7920746f20776974686472617720796f757260008201527f207072696e636970616c21000000000000000000000000000000000000000000602082015250565b6000612306602b8361182b565b9150612311826122aa565b604082019050919050565b60006020820190508181036000830152612335816122f9565b9050919050565b7f4f776e61626c653a2063616c6c6572206973206e6f7420746865206f776e6572600082015250565b600061237260208361182b565b915061237d8261233c565b602082019050919050565b600060208201905081810360008301526123a181612365565b905091905056fea26469706673582212201f051e047a652f35d60264a948ef46e05b4e5f6849519c0a1068a4fdbaa52e0b64736f6c6343000814003360e06040523480156200001157600080fd5b50604051620020f1380380620020f18339818101604052810190620000379190620003a5565b6001600081905550600073ffffffffffffffffffffffffffffffffffffffff168373ffffffffffffffffffffffffffffffffffffffff1603620000b1576040517f08c379a0000000000000000000000000000000000000000000000000000000008152600401620000a89062000462565b60405180910390fd5b600073ffffffffffffffffffffffffffffffffffffffff168273ffffffffffffffffffffffffffffffffffffffff160362000123576040517f08c379a00000000000000000000000000000000000000000000000000000000081526004016200011a90620004d4565b60405180910390fd5b600073ffffffffffffffffffffffffffffffffffffffff168173ffffffffffffffffffffffffffffffffffffffff160362000195576040517f08c379a00000000000000000000000000000000000000000000000000000000081526004016200018c9062000546565b60405180910390fd5b8273ffffffffffffffffffffffffffffffffffffffff1660808173ffffffffffffffffffffffffffffffffffffffff16815250508173ffffffffffffffffffffffffffffffffffffffff1660a08173ffffffffffffffffffffffffffffffffffffffff16815250508073ffffffffffffffffffffffffffffffffffffffff1660c08173ffffffffffffffffffffffffffffffffffffffff168152505060805173ffffffffffffffffffffffffffffffffffffffff1663095ea7b360a0517fffffffffffffffffffffffffffffffffffffffffffffffffffffffffffffffff6040518363ffffffff1660e01b81526004016200029292919062000594565b6020604051808303816000875af1158015620002b2573d6000803e3d6000fd5b505050506040513d601f19601f82011682018060405250810190620002d89190620005fe565b5050505062000630565b600080fd5b600073ffffffffffffffffffffffffffffffffffffffff82169050919050565b60006200031482620002e7565b9050919050565b6000620003288262000307565b9050919050565b6200033a816200031b565b81146200034657600080fd5b50565b6000815190506200035a816200032f565b92915050565b60006200036d8262000307565b9050919050565b6200037f8162000360565b81146200038b57600080fd5b50565b6000815190506200039f8162000374565b92915050565b600080600060608486031215620003c157620003c0620002e2565b5b6000620003d18682870162000349565b9350506020620003e4868287016200038e565b9250506040620003f78682870162000349565b9150509250925092565b600082825260208201905092915050565b7f496e76616c696420746f6b656e00000000000000000000000000000000000000600082015250565b60006200044a600d8362000401565b9150620004578262000412565b602082019050919050565b600060208201905081810360008301526200047d816200043b565b9050919050565b7f496e76616c696420706f6f6c0000000000000000000000000000000000000000600082015250565b6000620004bc600c8362000401565b9150620004c98262000484565b602082019050919050565b60006020820190508181036000830152620004ef81620004ad565b9050919050565b7f496e76616c69642061546f6b656e000000000000000000000000000000000000600082015250565b60006200052e600e8362000401565b91506200053b82620004f6565b602082019050919050565b6000602082019050818103600083015262000561816200051f565b9050919050565b620005738162000307565b82525050565b6000819050919050565b6200058e8162000579565b82525050565b6000604082019050620005ab600083018562000568565b620005ba602083018462000583565b9392505050565b60008115159050919050565b620005d881620005c1565b8114620005e457600080fd5b50565b600081519050620005f881620005cd565b92915050565b600060208284031215620006175762000616620002e2565b5b60006200062784828501620005e7565b91505092915050565b60805160a05160c051611a28620006c9600039600081816103220152818161041801528181610679015281816107ca01526109e10152600081816101e301528181610512015281816105d3015281816107150152610b6501526000818161048d015281816104d501528181610597015281816107510152818161096c01528181610ac901528181610ba10152610c280152611a286000f3fe608060405234801561001057600080fd5b506004361061009e5760003560e01c806391b24b581161006657806391b24b5814610123578063a0c1f15e14610153578063b6b55f2514610171578063de69b3aa1461018d578063fc0c546a146101bd5761009e565b8063026c4207146100a357806316f0115b146100c1578063291c3f79146100df5780632e1a7d4d146100fd578063853828b614610119575b600080fd5b6100ab6101db565b6040516100b891906110c5565b60405180910390f35b6100c96101e1565b6040516100d6919061115f565b60405180910390f35b6100e7610205565b6040516100f491906110c5565b60405180910390f35b610117600480360381019061011291906111ab565b610211565b005b6101216102af565b005b61013d60048036038101906101389190611216565b610309565b60405161014a91906110c5565b60405180910390f35b61015b610416565b6040516101689190611264565b60405180910390f35b61018b600480360381019061018691906111ab565b61043a565b005b6101a760048036038101906101a29190611216565b610952565b6040516101b491906110c5565b60405180910390f35b6101c561096a565b6040516101d29190611264565b60405180910390f35b60025481565b7f000000000000000000000000000000000000000000000000000000000000000081565b670de0b6b3a764000081565b61021961098e565b600160003373ffffffffffffffffffffffffffffffffffffffff1673ffffffffffffffffffffffffffffffffffffffff1681526020019081526020016000205481111561029b576040517f08c379a0000000000000000000000000000000000000000000000000000000008152600401610292906112dc565b60405180910390fd5b6102a4816109dd565b6102ac610d84565b50565b6102b761098e565b6102ff600160003373ffffffffffffffffffffffffffffffffffffffff1673ffffffffffffffffffffffffffffffffffffffff168152602001908152602001600020546109dd565b610307610d84565b565b6000806002540361031d5760009050610411565b6002547f000000000000000000000000000000000000000000000000000000000000000073ffffffffffffffffffffffffffffffffffffffff166370a08231306040518263ffffffff1660e01b8152600401610379919061130b565b602060405180830381865afa158015610396573d6000803e3d6000fd5b505050506040513d601f19601f820116820180604052508101906103ba919061133b565b600160008573ffffffffffffffffffffffffffffffffffffffff1673ffffffffffffffffffffffffffffffffffffffff168152602001908152602001600020546104049190611397565b61040e9190611408565b90505b919050565b7f000000000000000000000000000000000000000000000000000000000000000081565b61044261098e565b60008111610485576040517f08c379a000000000000000000000000000000000000000000000000000000000815260040161047c90611485565b60405180910390fd5b6104d23330837f000000000000000000000000000000000000000000000000000000000000000073ffffffffffffffffffffffffffffffffffffffff16610d8e909392919063ffffffff16565b807f000000000000000000000000000000000000000000000000000000000000000073ffffffffffffffffffffffffffffffffffffffff1663dd62ed3e307f00000000000000000000000000000000000000000000000000000000000000006040518363ffffffff1660e01b815260040161054e9291906114a5565b602060405180830381865afa15801561056b573d6000803e3d6000fd5b505050506040513d601f19601f8201168201806040525081019061058f919061133b565b1015610675577f000000000000000000000000000000000000000000000000000000000000000073ffffffffffffffffffffffffffffffffffffffff1663095ea7b37f00000000000000000000000000000000000000000000000000000000000000007fffffffffffffffffffffffffffffffffffffffffffffffffffffffffffffffff6040518363ffffffff1660e01b81526004016106309291906114ce565b6020604051808303816000875af115801561064f573d6000803e3d6000fd5b505050506040513d601f19601f82011682018060405250810190610673919061152f565b505b60007f000000000000000000000000000000000000000000000000000000000000000073ffffffffffffffffffffffffffffffffffffffff166370a08231306040518263ffffffff1660e01b81526004016106d0919061130b565b602060405180830381865afa1580156106ed573d6000803e3d6000fd5b505050506040513d601f19601f82011682018060405250810190610711919061133b565b90507f000000000000000000000000000000000000000000000000000000000000000073ffffffffffffffffffffffffffffffffffffffff1663617ba0377f0000000000000000000000000000000000000000000000000000000000000000843060006040518563ffffffff1660e01b815260040161079394939291906115a5565b600060405180830381600087803b1580156107ad57600080fd5b505af11580156107c1573d6000803e3d6000fd5b505050506000817f000000000000000000000000000000000000000000000000000000000000000073ffffffffffffffffffffffffffffffffffffffff166370a08231306040518263ffffffff1660e01b8152600401610821919061130b565b602060405180830381865afa15801561083e573d6000803e3d6000fd5b505050506040513d601f19601f82011682018060405250810190610862919061133b565b61086c91906115ea565b905060008190506000600254111561089a57826002548361088d9190611397565b6108979190611408565b90505b80600260008282546108ac919061161e565b9250508190555080600160003373ffffffffffffffffffffffffffffffffffffffff1673ffffffffffffffffffffffffffffffffffffffff1681526020019081526020016000206000828254610902919061161e565b925050819055507f90890809c654f11d6e72a28fa60149770a0d11ec6c92319d6ceb2bb0a4ea1a1533858360405161093c93929190611652565b60405180910390a150505061094f610d84565b50565b60016020528060005260406000206000915090505481565b7f000000000000000000000000000000000000000000000000000000000000000081565b6002600054036109d3576040517f08c379a00000000000000000000000000000000000000000000000000000000081526004016109ca906116d5565b60405180910390fd5b6002600081905550565b60007f000000000000000000000000000000000000000000000000000000000000000073ffffffffffffffffffffffffffffffffffffffff166370a08231306040518263ffffffff1660e01b8152600401610a38919061130b565b602060405180830381865afa158015610a55573d6000803e3d6000fd5b505050506040513d601f19601f82011682018060405250810190610a79919061133b565b905060006002548284610a8c9190611397565b610a969190611408565b90506002548303610ac5577fffffffffffffffffffffffffffffffffffffffffffffffffffffffffffffffff90505b60007f000000000000000000000000000000000000000000000000000000000000000073ffffffffffffffffffffffffffffffffffffffff166370a08231336040518263ffffffff1660e01b8152600401610b20919061130b565b602060405180830381865afa158015610b3d573d6000803e3d6000fd5b505050506040513d601f19601f82011682018060405250810190610b61919061133b565b90507f000000000000000000000000000000000000000000000000000000000000000073ffffffffffffffffffffffffffffffffffffffff166369328dec7f000000000000000000000000000000000000000000000000000000000000000084336040518463ffffffff1660e01b8152600401610be0939291906116f5565b6020604051808303816000875af1158015610bff573d6000803e3d6000fd5b505050506040513d601f19601f82011682018060405250810190610c23919061133b565b5060007f000000000000000000000000000000000000000000000000000000000000000073ffffffffffffffffffffffffffffffffffffffff166370a08231336040518263ffffffff1660e01b8152600401610c7f919061130b565b602060405180830381865afa158015610c9c573d6000803e3d6000fd5b505050506040513d601f19601f82011682018060405250810190610cc0919061133b565b905060008282610cd091906115ea565b905085600160003373ffffffffffffffffffffffffffffffffffffffff1673ffffffffffffffffffffffffffffffffffffffff1681526020019081526020016000206000828254610d2191906115ea565b925050819055508560026000828254610d3a91906115ea565b925050819055507ff279e6a1f5e320cca91135676d9cb6e44ca8a08c0b88342bcdb1144f6511b568338288604051610d7493929190611652565b60405180910390a1505050505050565b6001600081905550565b610e11846323b872dd60e01b858585604051602401610daf9392919061172c565b604051602081830303815290604052907bffffffffffffffffffffffffffffffffffffffffffffffffffffffff19166020820180517bffffffffffffffffffffffffffffffffffffffffffffffffffffffff8381831617835250505050610e17565b50505050565b6000610e79826040518060400160405280602081526020017f5361666545524332303a206c6f772d6c6576656c2063616c6c206661696c65648152508573ffffffffffffffffffffffffffffffffffffffff16610edf9092919063ffffffff16565b9050600081511480610e9b575080806020019051810190610e9a919061152f565b5b610eda576040517f08c379a0000000000000000000000000000000000000000000000000000000008152600401610ed1906117d5565b60405180910390fd5b505050565b6060610eee8484600085610ef7565b90509392505050565b606082471015610f3c576040517f08c379a0000000000000000000000000000000000000000000000000000000008152600401610f3390611867565b60405180910390fd5b6000808673ffffffffffffffffffffffffffffffffffffffff168587604051610f6591906118f8565b60006040518083038185875af1925050503d8060008114610fa2576040519150601f19603f3d011682016040523d82523d6000602084013e610fa7565b606091505b5091509150610fb887838387610fc4565b92505050949350505050565b6060831561102657600083510361101e57610fde85611039565b61101d576040517f08c379a00000000000000000000000000000000000000000000000000000000081526004016110149061195b565b60405180910390fd5b5b829050611031565b611030838361105c565b5b949350505050565b6000808273ffffffffffffffffffffffffffffffffffffffff163b119050919050565b60008251111561106f5781518083602001fd5b806040517f08c379a00000000000000000000000000000000000000000000000000000000081526004016110a391906119d0565b60405180910390fd5b6000819050919050565b6110bf816110ac565b82525050565b60006020820190506110da60008301846110b6565b92915050565b600073ffffffffffffffffffffffffffffffffffffffff82169050919050565b6000819050919050565b600061112561112061111b846110e0565b611100565b6110e0565b9050919050565b60006111378261110a565b9050919050565b60006111498261112c565b9050919050565b6111598161113e565b82525050565b60006020820190506111746000830184611150565b92915050565b600080fd5b611188816110ac565b811461119357600080fd5b50565b6000813590506111a58161117f565b92915050565b6000602082840312156111c1576111c061117a565b5b60006111cf84828501611196565b91505092915050565b60006111e3826110e0565b9050919050565b6111f3816111d8565b81146111fe57600080fd5b50565b600081359050611210816111ea565b92915050565b60006020828403121561122c5761122b61117a565b5b600061123a84828501611201565b91505092915050565b600061124e8261112c565b9050919050565b61125e81611243565b82525050565b60006020820190506112796000830184611255565b92915050565b600082825260208201905092915050565b7f496e76616c6964207368617265416d6f756e7400000000000000000000000000600082015250565b60006112c660138361127f565b91506112d182611290565b602082019050919050565b600060208201905081810360008301526112f5816112b9565b9050919050565b611305816111d8565b82525050565b600060208201905061132060008301846112fc565b92915050565b6000815190506113358161117f565b92915050565b6000602082840312156113515761135061117a565b5b600061135f84828501611326565b91505092915050565b7f4e487b7100000000000000000000000000000000000000000000000000000000600052601160045260246000fd5b60006113a2826110ac565b91506113ad836110ac565b92508282026113bb816110ac565b915082820484148315176113d2576113d1611368565b5b5092915050565b7f4e487b7100000000000000000000000000000000000000000000000000000000600052601260045260246000fd5b6000611413826110ac565b915061141e836110ac565b92508261142e5761142d6113d9565b5b828204905092915050565b7f496e76616c696420616d6f756e74000000000000000000000000000000000000600082015250565b600061146f600e8361127f565b915061147a82611439565b602082019050919050565b6000602082019050818103600083015261149e81611462565b9050919050565b60006040820190506114ba60008301856112fc565b6114c760208301846112fc565b9392505050565b60006040820190506114e360008301856112fc565b6114f060208301846110b6565b9392505050565b60008115159050919050565b61150c816114f7565b811461151757600080fd5b50565b60008151905061152981611503565b92915050565b6000602082840312156115455761154461117a565b5b60006115538482850161151a565b91505092915050565b6000819050919050565b600061ffff82169050919050565b600061158f61158a6115858461155c565b611100565b611566565b9050919050565b61159f81611574565b82525050565b60006080820190506115ba60008301876112fc565b6115c760208301866110b6565b6115d460408301856112fc565b6115e16060830184611596565b95945050505050565b60006115f5826110ac565b9150611600836110ac565b925082820390508181111561161857611617611368565b5b92915050565b6000611629826110ac565b9150611634836110ac565b925082820190508082111561164c5761164b611368565b5b92915050565b600060608201905061166760008301866112fc565b61167460208301856110b6565b61168160408301846110b6565b949350505050565b7f5265656e7472616e637947756172643a207265656e7472616e742063616c6c00600082015250565b60006116bf601f8361127f565b91506116ca82611689565b602082019050919050565b600060208201905081810360008301526116ee816116b2565b9050919050565b600060608201905061170a60008301866112fc565b61171760208301856110b6565b61172460408301846112fc565b949350505050565b600060608201905061174160008301866112fc565b61174e60208301856112fc565b61175b60408301846110b6565b949350505050565b7f5361666545524332303a204552433230206f7065726174696f6e20646964206e60008201527f6f74207375636365656400000000000000000000000000000000000000000000602082015250565b60006117bf602a8361127f565b91506117ca82611763565b604082019050919050565b600060208201905081810360008301526117ee816117b2565b9050919050565b7f416464726573733a20696e73756666696369656e742062616c616e636520666f60008201527f722063616c6c0000000000000000000000000000000000000000000000000000602082015250565b600061185160268361127f565b915061185c826117f5565b604082019050919050565b6000602082019050818103600083015261188081611844565b9050919050565b600081519050919050565b600081905092915050565b60005b838110156118bb5780820151818401526020810190506118a0565b60008484015250505050565b60006118d282611887565b6118dc8185611892565b93506118ec81856020860161189d565b80840191505092915050565b600061190482846118c7565b915081905092915050565b7f416464726573733a2063616c6c20746f206e6f6e2d636f6e7472616374000000600082015250565b6000611945601d8361127f565b91506119508261190f565b602082019050919050565b6000602082019050818103600083015261197481611938565b9050919050565b600081519050919050565b6000601f19601f8301169050919050565b60006119a28261197b565b6119ac818561127f565b93506119bc81856020860161189d565b6119c581611986565b840191505092915050565b600060208201905081810360008301526119ea8184611997565b90509291505056fea26469706673582212208c54fb3205a614bb1cb7a5038ad2121a812d2bc292d8ac34dd8d20638897f1a164736f6c63430008140033a2646970667358221220b5656635c23d40fe2a79cd750e91344e8928ea559db5a746abddaecaed9aef6764736f6c63430008140033",
  "linkReferences": {},
  "deployedLinkReferences": {}
}