{
  "_format": "hh-sol-artifact-1",
  "contractName": "PoolLogic",
  "sourceName": "contracts/PoolLogic.sol",
  "abi": [
    {
      "inputs": [
        {
          "internalType": "uint256",
          "name": "amount",
          "type": "uint256"
        },
        {
          "internalType": "uint256",
          "name": "interestRateAmount",
          "type": "uint256"
        },
        {
          "internalType": "uint256",
          "name": "time",
          "type": "uint256"
        }
      ],
      "name": "calculateInterest",
      "outputs": [
        {
          "internalType": "uint256",
          "name": "",
          "type": "uint256"
        }
      ],
      "stateMutability": "pure",
      "type": "function"
    },
    {
      "inputs": [
        {
          "components": [
            {
              "internalType": "uint256",
              "name": "amount",
              "type": "uint256"
            },
            {
              "internalType": "uint256",
              "name": "depositTime",
              "type": "uint256"
            },
            {
              "internalType": "uint256",
              "name": "claim",
              "type": "uint256"
            }
          ],
          "internalType": "struct PositionNFT.DepositData",
          "name": "depositData",
          "type": "tuple"
        },
        {
          "components": [
            {
              "internalType": "uint256",
              "name": "poolStartTime",
              "type": "uint256"
            },
            {
              "internalType": "uint256",
              "name": "blocktime",
              "type": "uint256"
            },
            {
              "internalType": "uint256",
              "name": "lockDuration",
              "type": "uint256"
            },
            {
              "internalType": "bool",
              "name": "poolStopped",
              "type": "bool"
            },
            {
              "internalType": "uint256",
              "name": "poolDeployTime",
              "type": "uint256"
            },
            {
              "internalType": "uint256",
              "name": "totalTimeWeight",
              "type": "uint256"
            },
            {
              "internalType": "uint256",
              "name": "interestRate",
              "type": "uint256"
            }
          ],
          "internalType": "struct PoolLogic.Times",
          "name": "times",
          "type": "tuple"
        },
        {
          "internalType": "uint256",
          "name": "prevMaxSupply",
          "type": "uint256"
        },
        {
          "internalType": "uint256",
          "name": "totalDepositedFixed",
          "type": "uint256"
        },
        {
          "internalType": "uint256",
          "name": "totalClaimedFixedPrev",
          "type": "uint256"
        },
        {
          "internalType": "uint256",
          "name": "totalSupply",
          "type": "uint256"
        }
      ],
      "name": "calculateInterestFixedParts",
      "outputs": [
        {
          "internalType": "uint256",
          "name": "",
          "type": "uint256"
        },
        {
          "internalType": "uint256",
          "name": "",
          "type": "uint256"
        }
      ],
      "stateMutability": "pure",
      "type": "function"
    },
    {
      "inputs": [
        {
          "components": [
            {
              "internalType": "uint256",
              "name": "amount",
              "type": "uint256"
            },
            {
              "internalType": "uint256",
              "name": "depositTime",
              "type": "uint256"
            },
            {
              "internalType": "uint256",
              "name": "claim",
              "type": "uint256"
            }
          ],
          "internalType": "struct PositionNFT.DepositData",
          "name": "depositData",
          "type": "tuple"
        },
        {
          "components": [
            {
              "internalType": "uint256",
              "name": "poolStartTime",
              "type": "uint256"
            },
            {
              "internalType": "uint256",
              "name": "blocktime",
              "type": "uint256"
            },
            {
              "internalType": "uint256",
              "name": "lockDuration",
              "type": "uint256"
            },
            {
              "internalType": "bool",
              "name": "poolStopped",
              "type": "bool"
            },
            {
              "internalType": "uint256",
              "name": "poolDeployTime",
              "type": "uint256"
            },
            {
              "internalType": "uint256",
              "name": "totalTimeWeight",
              "type": "uint256"
            },
            {
              "internalType": "uint256",
              "name": "interestRate",
              "type": "uint256"
            }
          ],
          "internalType": "struct PoolLogic.Times",
          "name": "times",
          "type": "tuple"
        },
        {
          "internalType": "uint256",
          "name": "prevMaxSupply",
          "type": "uint256"
        },
        {
          "internalType": "uint256",
          "name": "totalDepositedVariable",
          "type": "uint256"
        },
        {
          "internalType": "uint256",
          "name": "totalClaimedVariable",
          "type": "uint256"
        },
        {
          "internalType": "uint256",
          "name": "totalSupply",
          "type": "uint256"
        },
        {
          "internalType": "uint256",
          "name": "variablePoolLimit",
          "type": "uint256"
        },
        {
          "internalType": "uint256",
          "name": "totalClaimedFixedPrev",
          "type": "uint256"
        }
      ],
      "name": "calculateInterestVariable",
      "outputs": [
        {
          "internalType": "uint256",
          "name": "",
          "type": "uint256"
        }
      ],
      "stateMutability": "pure",
      "type": "function"
    },
    {
      "inputs": [
        {
          "internalType": "uint256",
          "name": "_interestRate",
          "type": "uint256"
        },
        {
          "internalType": "uint256",
          "name": "_poolStartTime",
          "type": "uint256"
        },
        {
          "internalType": "uint256",
          "name": "_variablePoolLimit",
          "type": "uint256"
        },
        {
          "internalType": "uint256",
          "name": "_lockDuration",
          "type": "uint256"
        },
        {
          "internalType": "uint256",
          "name": "_totalClaimedVariable",
          "type": "uint256"
        },
        {
          "internalType": "uint256",
          "name": "_totalClaimedFixedPrev",
          "type": "uint256"
        },
        {
          "internalType": "uint256",
          "name": "_prevMaxSupply",
          "type": "uint256"
        },
        {
          "internalType": "uint256",
          "name": "_totalSupply",
          "type": "uint256"
        },
        {
          "internalType": "uint256",
          "name": "_blocktime",
          "type": "uint256"
        }
      ],
      "name": "interests",
      "outputs": [
        {
          "internalType": "int256",
          "name": "",
          "type": "int256"
        },
        {
          "internalType": "int256",
          "name": "",
          "type": "int256"
        }
      ],
      "stateMutability": "pure",
      "type": "function"
    },
    {
      "inputs": [
        {
          "internalType": "uint256",
          "name": "poolStartTime",
          "type": "uint256"
        },
        {
          "internalType": "uint256",
          "name": "blocktime",
          "type": "uint256"
        },
        {
          "internalType": "uint256",
          "name": "lockDuration",
          "type": "uint256"
        }
      ],
      "name": "timeSinceStart",
      "outputs": [
        {
          "internalType": "uint256",
          "name": "",
          "type": "uint256"
        }
      ],
      "stateMutability": "pure",
      "type": "function"
    }
  ],
  "bytecode": "0x608060405234801561001057600080fd5b5061088a806100206000396000f3fe608060405234801561001057600080fd5b50600436106100575760003560e01c806305e1bd8c1461005c5780634fea9afd1461008257806376fe5ace14610095578063c1ffff20146100a8578063d545c483146100d0575b600080fd5b61006f61006a36600461046b565b6100e3565b6040519081526020015b60405180910390f35b61006f61009036600461046b565b610126565b61006f6100a33660046105aa565b61015e565b6100bb6100b6366004610619565b6101f9565b60408051928352602083019190915201610079565b6100bb6100de366004610678565b6102a8565b600063bbf81e00670de0b6b3a7640000836100fe86886106ea565b61010891906106ea565b610112919061071f565b61011c919061071f565b90505b9392505050565b6000836101355750600061011f565b61013f8285610733565b831015610157576101508385610446565b905061011f565b508061011f565b6000876060015115610172575087516101ed565b8751156101e9576000610199836101898888610733565b6101939190610733565b89610446565b9050600084828c600001516101ae91906106ea565b6101b8919061071f565b905060006101ca828d60400151610446565b9050868111156101df578693505050506101ed565b92506101ed915050565b5060005b98975050505050505050565b6000808a8a1580159061020b57508a84115b15610299576000610230886102208b89610733565b61022a9190610733565b88610446565b9050600061023f8d878d610126565b905060008b61024e838f6106ea565b610258919061071f565b90506000610266828561074b565b90506102728e846106ea565b610288826b0104dc13db1286a62c00000061078a565b610292919061080f565b9450505050505b9a9b9950505050505050505050565b6000806000886020015188602001516102c1919061083d565b88519091506102db576102d48585610733565b96506102ef565b602089015188516102ec919061083d565b90505b60006102fb8888610446565b905060008960a001518a608001518b60200151610318919061083d565b610322908a6106ea565b61032c919061083d565b8b51909150600090829061034086866106ea565b61034a91906106ea565b610354919061071f565b90508a606001511561037b578b5161036c9082610733565b6000955095505050505061043b565b8a51600090156103eb57600061039e8d600001518e602001518f60400151610126565b90506103b38e600001518e60c00151836100e3565b6103bd9083610733565b60408e01518e519193506103d091610733565b8d60200151106103e9578d516103e69084610733565b92505b505b818d60400151111561041f576000610407828f60400151610446565b6104119084610733565b96509650505050505061043b565b61042d828e60400151610446565b9650945061043b9350505050565b965096945050505050565b6000818311156104615761045a828461083d565b9050610465565b5060005b92915050565b60008060006060848603121561048057600080fd5b505081359360208301359350604090920135919050565b60405160e0810167ffffffffffffffff811182821017156104c857634e487b7160e01b600052604160045260246000fd5b60405290565b6000606082840312156104e057600080fd5b6040516060810181811067ffffffffffffffff8211171561051157634e487b7160e01b600052604160045260246000fd5b80604052508091508235815260208301356020820152604083013560408201525092915050565b600060e0828403121561054a57600080fd5b610552610497565b90508135815260208201356020820152604082013560408201526060820135801515811461057f57600080fd5b806060830152506080820135608082015260a082013560a082015260c082013560c082015292915050565b600080600080600080600080610200898b0312156105c757600080fd5b6105d18a8a6104ce565b97506105e08a60608b01610538565b979a979950505050610140860135956101608101359561018082013595506101a082013594506101c082013593506101e0909101359150565b60008060008060008060008060006101208a8c03121561063857600080fd5b505087359960208901359950604089013598606081013598506080810135975060a0810135965060c0810135955060e08101359450610100013592509050565b6000806000806000806101c0878903121561069257600080fd5b61069c88886104ce565b95506106ab8860608901610538565b9598959750505050610140840135936101608101359361018082013593506101a0909101359150565b634e487b7160e01b600052601160045260246000fd5b6000816000190483118215151615610704576107046106d4565b500290565b634e487b7160e01b600052601260045260246000fd5b60008261072e5761072e610709565b500490565b60008219821115610746576107466106d4565b500190565b60008083128015600160ff1b850184121615610769576107696106d4565b6001600160ff1b0384018313811615610784576107846106d4565b50500390565b60006001600160ff1b03818413828413808216868404861116156107b0576107b06106d4565b600160ff1b60008712828116878305891216156107cf576107cf6106d4565b600087129250878205871284841616156107eb576107eb6106d4565b87850587128184161615610801576108016106d4565b505050929093029392505050565b60008261081e5761081e610709565b600160ff1b821460001984141615610838576108386106d4565b500590565b60008282101561084f5761084f6106d4565b50039056fea2646970667358221220b3dcb6c67dde0aabe271cbf7b5cac5e992991b8e2ef4522d5f705939d0fa781764736f6c634300080a0033",
  "linkReferences": {},
  "deployedLinkReferences": {}
}