{
  "_format": "hh-sol-artifact-1",
  "contractName": "Pool",
  "sourceName": "contracts/Pool.sol",
  "abi": [
    {
      "inputs": [
        {
          "internalType": "address",
          "name": "aaveAddresses",
          "type": "address"
        },
        {
          "internalType": "address",
          "name": "daiAddress",
          "type": "address"
        },
        {
          "internalType": "uint256",
          "name": "_fixedPoolLimit",
          "type": "uint256"
        },
        {
          "internalType": "uint256",
          "name": "_lockDuration",
          "type": "uint256"
        },
        {
          "internalType": "uint256",
          "name": "_interestRate",
          "type": "uint256"
        },
        {
          "internalType": "address",
          "name": "_poolLogic",
          "type": "address"
        }
      ],
      "stateMutability": "nonpayable",
      "type": "constructor"
    },
    {
      "anonymous": false,
      "inputs": [
        {
          "indexed": true,
          "internalType": "address",
          "name": "previousOwner",
          "type": "address"
        },
        {
          "indexed": true,
          "internalType": "address",
          "name": "newOwner",
          "type": "address"
        }
      ],
      "name": "OwnershipTransferred",
      "type": "event"
    },
    {
      "inputs": [],
      "name": "addSupply",
      "outputs": [
        {
          "internalType": "uint256",
          "name": "",
          "type": "uint256"
        }
      ],
      "stateMutability": "view",
      "type": "function"
    },
    {
      "inputs": [],
      "name": "addTimestamp",
      "outputs": [
        {
          "internalType": "uint256",
          "name": "",
          "type": "uint256"
        }
      ],
      "stateMutability": "view",
      "type": "function"
    },
    {
      "inputs": [],
      "name": "blocktime",
      "outputs": [
        {
          "internalType": "uint256",
          "name": "",
          "type": "uint256"
        }
      ],
      "stateMutability": "view",
      "type": "function"
    },
    {
      "inputs": [
        {
          "internalType": "uint256",
          "name": "tokenId",
          "type": "uint256"
        }
      ],
      "name": "calculateInterestFixed",
      "outputs": [
        {
          "internalType": "uint256",
          "name": "",
          "type": "uint256"
        }
      ],
      "stateMutability": "view",
      "type": "function"
    },
    {
      "inputs": [
        {
          "internalType": "uint256",
          "name": "tokenId",
          "type": "uint256"
        }
      ],
      "name": "calculateInterestFixedParts",
      "outputs": [
        {
          "internalType": "uint256",
          "name": "",
          "type": "uint256"
        },
        {
          "internalType": "uint256",
          "name": "",
          "type": "uint256"
        }
      ],
      "stateMutability": "view",
      "type": "function"
    },
    {
      "inputs": [
        {
          "internalType": "uint256",
          "name": "tokenId",
          "type": "uint256"
        }
      ],
      "name": "calculateInterestVariable",
      "outputs": [
        {
          "internalType": "uint256",
          "name": "",
          "type": "uint256"
        }
      ],
      "stateMutability": "view",
      "type": "function"
    },
    {
      "inputs": [
        {
          "internalType": "uint256",
          "name": "amount",
          "type": "uint256"
        }
      ],
      "name": "depositFixed",
      "outputs": [],
      "stateMutability": "nonpayable",
      "type": "function"
    },
    {
      "inputs": [
        {
          "internalType": "uint256",
          "name": "amount",
          "type": "uint256"
        }
      ],
      "name": "depositVariable",
      "outputs": [],
      "stateMutability": "nonpayable",
      "type": "function"
    },
    {
      "inputs": [
        {
          "internalType": "uint256",
          "name": "numSeconds",
          "type": "uint256"
        }
      ],
      "name": "fastForward",
      "outputs": [],
      "stateMutability": "nonpayable",
      "type": "function"
    },
    {
      "inputs": [],
      "name": "fixedNFT",
      "outputs": [
        {
          "internalType": "contract PositionNFT",
          "name": "",
          "type": "address"
        }
      ],
      "stateMutability": "view",
      "type": "function"
    },
    {
      "inputs": [],
      "name": "fixedPoolLimit",
      "outputs": [
        {
          "internalType": "uint256",
          "name": "",
          "type": "uint256"
        }
      ],
      "stateMutability": "view",
      "type": "function"
    },
    {
      "inputs": [],
      "name": "getInterestRate",
      "outputs": [
        {
          "internalType": "uint256",
          "name": "",
          "type": "uint256"
        }
      ],
      "stateMutability": "view",
      "type": "function"
    },
    {
      "inputs": [],
      "name": "getTotalSupply",
      "outputs": [
        {
          "internalType": "uint256",
          "name": "",
          "type": "uint256"
        }
      ],
      "stateMutability": "view",
      "type": "function"
    },
    {
      "inputs": [],
      "name": "interestRate",
      "outputs": [
        {
          "internalType": "uint256",
          "name": "",
          "type": "uint256"
        }
      ],
      "stateMutability": "view",
      "type": "function"
    },
    {
      "inputs": [],
      "name": "interests",
      "outputs": [
        {
          "internalType": "int256",
          "name": "",
          "type": "int256"
        },
        {
          "internalType": "int256",
          "name": "",
          "type": "int256"
        }
      ],
      "stateMutability": "view",
      "type": "function"
    },
    {
      "inputs": [],
      "name": "lockDuration",
      "outputs": [
        {
          "internalType": "uint256",
          "name": "",
          "type": "uint256"
        }
      ],
      "stateMutability": "view",
      "type": "function"
    },
    {
      "inputs": [],
      "name": "owner",
      "outputs": [
        {
          "internalType": "address",
          "name": "",
          "type": "address"
        }
      ],
      "stateMutability": "view",
      "type": "function"
    },
    {
      "inputs": [],
      "name": "poolDeployTime",
      "outputs": [
        {
          "internalType": "uint256",
          "name": "",
          "type": "uint256"
        }
      ],
      "stateMutability": "view",
      "type": "function"
    },
    {
      "inputs": [],
      "name": "poolLogic",
      "outputs": [
        {
          "internalType": "contract PoolLogic",
          "name": "",
          "type": "address"
        }
      ],
      "stateMutability": "view",
      "type": "function"
    },
    {
      "inputs": [],
      "name": "poolStartTime",
      "outputs": [
        {
          "internalType": "uint256",
          "name": "",
          "type": "uint256"
        }
      ],
      "stateMutability": "view",
      "type": "function"
    },
    {
      "inputs": [],
      "name": "poolStopped",
      "outputs": [
        {
          "internalType": "bool",
          "name": "",
          "type": "bool"
        }
      ],
      "stateMutability": "view",
      "type": "function"
    },
    {
      "inputs": [],
      "name": "prevMaxSupply",
      "outputs": [
        {
          "internalType": "uint256",
          "name": "",
          "type": "uint256"
        }
      ],
      "stateMutability": "view",
      "type": "function"
    },
    {
      "inputs": [],
      "name": "renounceOwnership",
      "outputs": [],
      "stateMutability": "nonpayable",
      "type": "function"
    },
    {
      "inputs": [],
      "name": "timeSinceStart",
      "outputs": [
        {
          "internalType": "uint256",
          "name": "",
          "type": "uint256"
        }
      ],
      "stateMutability": "view",
      "type": "function"
    },
    {
      "inputs": [],
      "name": "tokenAddress",
      "outputs": [
        {
          "internalType": "address",
          "name": "",
          "type": "address"
        }
      ],
      "stateMutability": "view",
      "type": "function"
    },
    {
      "inputs": [],
      "name": "totalClaimedFixed",
      "outputs": [
        {
          "internalType": "uint256",
          "name": "",
          "type": "uint256"
        }
      ],
      "stateMutability": "view",
      "type": "function"
    },
    {
      "inputs": [],
      "name": "totalClaimedFixedPrev",
      "outputs": [
        {
          "internalType": "uint256",
          "name": "",
          "type": "uint256"
        }
      ],
      "stateMutability": "view",
      "type": "function"
    },
    {
      "inputs": [],
      "name": "totalClaimedVariable",
      "outputs": [
        {
          "internalType": "uint256",
          "name": "",
          "type": "uint256"
        }
      ],
      "stateMutability": "view",
      "type": "function"
    },
    {
      "inputs": [],
      "name": "totalDepositedFixed",
      "outputs": [
        {
          "internalType": "uint256",
          "name": "",
          "type": "uint256"
        }
      ],
      "stateMutability": "view",
      "type": "function"
    },
    {
      "inputs": [],
      "name": "totalDepositedVariable",
      "outputs": [
        {
          "internalType": "uint256",
          "name": "",
          "type": "uint256"
        }
      ],
      "stateMutability": "view",
      "type": "function"
    },
    {
      "inputs": [],
      "name": "totalTimeWeight",
      "outputs": [
        {
          "internalType": "uint256",
          "name": "",
          "type": "uint256"
        }
      ],
      "stateMutability": "view",
      "type": "function"
    },
    {
      "inputs": [
        {
          "internalType": "address",
          "name": "newOwner",
          "type": "address"
        }
      ],
      "name": "transferOwnership",
      "outputs": [],
      "stateMutability": "nonpayable",
      "type": "function"
    },
    {
      "inputs": [],
      "name": "variableNFT",
      "outputs": [
        {
          "internalType": "contract PositionNFT",
          "name": "",
          "type": "address"
        }
      ],
      "stateMutability": "view",
      "type": "function"
    },
    {
      "inputs": [],
      "name": "variablePoolLimit",
      "outputs": [
        {
          "internalType": "uint256",
          "name": "",
          "type": "uint256"
        }
      ],
      "stateMutability": "view",
      "type": "function"
    },
    {
      "inputs": [
        {
          "internalType": "uint256",
          "name": "tokenId",
          "type": "uint256"
        }
      ],
      "name": "withdrawFixed",
      "outputs": [],
      "stateMutability": "nonpayable",
      "type": "function"
    },
    {
      "inputs": [
        {
          "internalType": "uint256",
          "name": "tokenId",
          "type": "uint256"
        }
      ],
      "name": "withdrawVariable",
      "outputs": [],
      "stateMutability": "nonpayable",
      "type": "function"
    }
  ],
  "bytecode": "0x608060405260188054610100600160a81b03191674dabd0fabd68235ed23432faf2272a46a618b7dcd001790553480156200003957600080fd5b5060405162004f1138038062004f118339810160408190526200005c9162000309565b62000067336200028e565b601580546001600160a01b038084166001600160a01b0319928316179092556003805492891692909116821790556040805163026b1d5f60e01b8152905163026b1d5f916004808201926020929091908290030181865afa158015620000d1573d6000803e3d6000fd5b505050506040513d601f19601f82011682018060405250810190620000f791906200036f565b600480546001600160a01b039283166001600160a01b0319918216811783556001805483169091179055600280548985169083168117909155600580549092161790556008869055600a859055600b8490556015546040516301786f6360e21b81529182018790526024820185905260448201869052909116906305e1bd8c90606401602060405180830381865afa15801562000198573d6000803e3d6000fd5b505050506040513d601f19601f82011682018060405250810190620001be919062000394565b600955426016556040513090620001d590620002de565b6001600160a01b039091168152602001604051809103906000f08015801562000202573d6000803e3d6000fd5b50600680546001600160a01b0319166001600160a01b039290921691909117905560405130906200023390620002de565b6001600160a01b039091168152602001604051809103906000f08015801562000260573d6000803e3d6000fd5b50600780546001600160a01b0319166001600160a01b039290921691909117905550620003ae945050505050565b600080546001600160a01b038381166001600160a01b0319831681178455604051919092169283917f8be0079c531659141344cd1fd0a4f28419497f9722a3daafe3b4186f6b6457e09190a35050565b612e3480620020dd83390190565b80516001600160a01b03811681146200030457600080fd5b919050565b60008060008060008060c087890312156200032357600080fd5b6200032e87620002ec565b95506200033e60208801620002ec565b94506040870151935060608701519250608087015191506200036360a08801620002ec565b90509295509295509295565b6000602082840312156200038257600080fd5b6200038d82620002ec565b9392505050565b600060208284031215620003a757600080fd5b5051919050565b611d1f80620003be6000396000f3fe608060405234801561001057600080fd5b50600436106101dc5760003560e01c806378d8e48e11610105578063a9b12c4c1161009d578063a9b12c4c14610387578063c4e41b221461038f578063dd4f205914610397578063e4f11247146103aa578063ea1ba556146103b3578063ebf4bd5b146103bc578063f2fde38b146103c5578063f82923da146103d8578063fccbe7f6146103e157600080fd5b806378d8e48e14610306578063793265a9146103235780637c3a00fd1461032c5780638325788914610335578063857a5c321461033e5780638da5cb5b1461035157806399489d94146103625780639d76ea581461036b578063a5a175ec1461037e57600080fd5b806339b81fd91161017857806339b81fd9146102905780635257b566146102a35780635ade2035146102ab5780635f96dc11146102be57806365ad7c00146102c757806367fc6dea146102da5780636e8fb459146102e2578063715018a6146102f557806373fce7ec146102fd57600080fd5b806304144ec7146101e157806304554443146101fd578063149c85071461020657806314a3db2d1461020f5780631a2c9fff1461022c57806329796ae5146102355780632cc79b6a1461024a5780632f47bf621461026a57806338a9a6861461027d575b600080fd5b6101ea60085481565b6040519081526020015b60405180910390f35b6101ea600a5481565b6101ea600f5481565b6102176103f4565b604080519283526020830191909152016101f4565b6101ea60095481565b610248610243366004611711565b6104dd565b005b60075461025d906001600160a01b031681565b6040516101f4919061172a565b610248610278366004611711565b6107e3565b61024861028b366004611711565b6109b8565b60155461025d906001600160a01b031681565b6101ea610cd0565b6101ea6102b9366004611711565b610d5c565b6101ea60115481565b6102176102d5366004611711565b610d81565b6101ea610ede565b6101ea6102f0366004611711565b610f2e565b610248611089565b6101ea600e5481565b6018546103139060ff1681565b60405190151581526020016101f4565b6101ea60125481565b6101ea600b5481565b6101ea60105481565b60065461025d906001600160a01b031681565b6000546001600160a01b031661025d565b6101ea60175481565b60055461025d906001600160a01b031681565b6101ea60165481565b6101ea61109d565b6101ea6110ad565b6102486103a5366004611711565b611141565b6101ea600c5481565b6101ea600d5481565b6101ea60145481565b6102486103d3366004611753565b611463565b6101ea60135481565b6102486103ef366004611711565b6114dc565b600080601560009054906101000a90046001600160a01b03166001600160a01b031663c1ffff20600b54601154600954600a54601054600e546012546104386110ad565b61044061109d565b6040516001600160e01b031960e08c901b1681526004810199909952602489019790975260448801959095526064870193909352608486019190915260a485015260c484015260e4830152610104820152610124016040805180830381865afa1580156104b1573d6000803e3d6000fd5b505050506040513d601f19601f820116820180604052508101906104d59190611777565b915091509091565b6007546040516331a9108f60e11b81526004810183905233916001600160a01b031690636352211e90602401602060405180830381865afa158015610526573d6000803e3d6000fd5b505050506040513d601f19601f8201168201806040525081019061054a91906117ab565b6001600160a01b0316146105795760405162461bcd60e51b8152600401610570906117c8565b60405180910390fd5b60006011541180156105a15750600a54601154610596919061180f565b61059e61109d565b10155b6105bd5760405162461bcd60e51b815260040161057090611827565b60006105c882610f2e565b905080601060008282546105dc919061180f565b9091555050600154600254604051631a4ca37b60e21b81526001600160a01b03928316926369328dec92610619929116908590309060040161185a565b6020604051808303816000875af1158015610638573d6000803e3d6000fd5b505050506040513d601f19601f8201168201806040525081019061065c919061187d565b5060025460405163a9059cbb60e01b81526001600160a01b039091169063a9059cbb9061068f9033908590600401611896565b6020604051808303816000875af11580156106ae573d6000803e3d6000fd5b505050506040513d601f19601f820116820180604052508101906106d291906118af565b6106ee5760405162461bcd60e51b8152600401610570906118d1565b60075460405163c349026360e01b815260048101849052602481018390526001600160a01b039091169063c349026390604401600060405180830381600087803b15801561073b57600080fd5b505af115801561074f573d6000803e3d6000fd5b50505050600060115411801561077b5750600a54601154610770919061180f565b61077861109d565b10155b156107df57600754604051630852cd8d60e31b8152600481018490526001600160a01b03909116906342966c6890602401600060405180830381600087803b1580156107c657600080fd5b505af11580156107da573d6000803e3d6000fd5b505050505b5050565b60095481600d546107f4919061180f565b11156108425760405162461bcd60e51b815260206004820152601b60248201527f5661726961626c6520706f6f6c206c696d6974207265616368656400000000006044820152606401610570565b6002546040516323b872dd60e01b81526001600160a01b03909116906323b872dd90610876903390309086906004016118fa565b6020604051808303816000875af1158015610895573d6000803e3d6000fd5b505050506040513d601f19601f820116820180604052508101906108b991906118af565b6108d55760405162461bcd60e51b8152600401610570906118d1565b6007546000906001600160a01b031663669e0ac233846108f361109d565b6108fb610cd0565b6040516001600160e01b031960e087901b1681526001600160a01b0390941660048501526024840192909252604483015260a06064830152600860a4830152675661726961626c6560c01b60c4830152608482015260e4016020604051808303816000875af1158015610972573d6000803e3d6000fd5b505050506040513d601f19601f82011682018060405250810190610996919061187d565b905081600d60008282546109aa919061180f565b909155506107df90506115e9565b6006546040516331a9108f60e11b81526004810183905233916001600160a01b031690636352211e90602401602060405180830381865afa158015610a01573d6000803e3d6000fd5b505050506040513d601f19601f82011682018060405250810190610a2591906117ab565b6001600160a01b031614610a4b5760405162461bcd60e51b8152600401610570906117c8565b6000601154118015610a735750600a54601154610a68919061180f565b610a7061109d565b10155b610a8f5760405162461bcd60e51b815260040161057090611827565b600080610a9b83610d81565b90925090506000610aac828461180f565b90508215610b485782600e6000828254610ac6919061180f565b9091555050600154600254604051631a4ca37b60e21b81526001600160a01b03928316926369328dec92610b03929116908790309060040161185a565b6020604051808303816000875af1158015610b22573d6000803e3d6000fd5b505050506040513d601f19601f82011682018060405250810190610b46919061187d565b505b60025460405163a9059cbb60e01b81526001600160a01b039091169063a9059cbb90610b7a9033908590600401611896565b6020604051808303816000875af1158015610b99573d6000803e3d6000fd5b505050506040513d601f19601f82011682018060405250810190610bbd91906118af565b610bd95760405162461bcd60e51b8152600401610570906118d1565b60065460405163c349026360e01b815260048101869052602481018390526001600160a01b039091169063c349026390604401600060405180830381600087803b158015610c2657600080fd5b505af1158015610c3a573d6000803e3d6000fd5b505050506000601154118015610c665750600a54601154610c5b919061180f565b610c6361109d565b10155b15610cca57600654604051630852cd8d60e31b8152600481018690526001600160a01b03909116906342966c6890602401600060405180830381600087803b158015610cb157600080fd5b505af1158015610cc5573d6000803e3d6000fd5b505050505b50505050565b6001546002546040516335ea6a7560e01b81526000926001600160a01b03908116926335ea6a7592610d08929091169060040161172a565b6101e060405180830381865afa158015610d26573d6000803e3d6000fd5b505050506040513d601f19601f82011682018060405250810190610d4a91906119e4565b604001516001600160801b0316905090565b6000806000610d6a84610d81565b9092509050610d79818361180f565b949350505050565b60065460405163609c0cdb60e11b815260048101839052600091829182916001600160a01b03169063c13819b690602401606060405180830381865afa158015610dcf573d6000803e3d6000fd5b505050506040513d601f19601f82011682018060405250810190610df39190611b07565b905060006040518060e001604052806011548152602001610e1261109d565b8152600a54602082015260185460ff161515604082015260165460608201526017546080820152600b5460a090910152601554601254600c54600e549394506001600160a01b039092169263d545c4839286928692909190610e726110ad565b6040518763ffffffff1660e01b8152600401610e9396959493929190611bb7565b6040805180830381865afa158015610eaf573d6000803e3d6000fd5b505050506040513d601f19601f82011682018060405250810190610ed39190611777565b935093505050915091565b600060115460001415610ef15750600090565b600a54601154610f01919061180f565b610f0961109d565b1015610f2757610f22610f1a61109d565b601154611642565b905090565b50600a5490565b60075460405163609c0cdb60e11b81526004810183905260009182916001600160a01b039091169063c13819b690602401606060405180830381865afa158015610f7c573d6000803e3d6000fd5b505050506040513d601f19601f82011682018060405250810190610fa09190611b07565b905060006040518060e001604052806011548152602001610fbf61109d565b8152600a54602082015260185460ff161515604082015260165460608201526017546080820152600b5460a090910152601554601254600d546010549394506001600160a01b03909216926376fe5ace928692869290919061101f6110ad565b600954600e546040518963ffffffff1660e01b8152600401611048989796959493929190611c08565b602060405180830381865afa158015611065573d6000803e3d6000fd5b505050506040513d601f19601f82011682018060405250810190610d79919061187d565b611091611667565b61109b60006116c1565b565b600060145442610f22919061180f565b600154604051632fe4a15f60e21b815260009182916001600160a01b039091169063bf92857c906110e290309060040161172a565b60c060405180830381865afa1580156110ff573d6000803e3d6000fd5b505050506040513d601f19601f820116820180604052508101906111239190611c69565b50505050509050806402540be40061113b9190611cb3565b91505090565b60085481600c54611152919061180f565b11156111955760405162461bcd60e51b8152602060048201526012602482015271141bdbdb081b1a5b5a5d081c995858da195960721b6044820152606401610570565b6002546040516323b872dd60e01b81526001600160a01b03909116906323b872dd906111c9903390309086906004016118fa565b6020604051808303816000875af11580156111e8573d6000803e3d6000fd5b505050506040513d601f19601f8201168201806040525081019061120c91906118af565b6112285760405162461bcd60e51b8152600401610570906118d1565b60025460015460405163095ea7b360e01b81526001600160a01b039283169263095ea7b39261125e929116908590600401611896565b6020604051808303816000875af115801561127d573d6000803e3d6000fd5b505050506040513d601f19601f820116820180604052508101906112a191906118af565b6112de5760405162461bcd60e51b815260206004820152600e60248201526d105c1c1c9bdd994819985a5b195960921b6044820152606401610570565b60015460025460405163617ba03760e01b81526001600160a01b039182166004820152602481018490523060448201526000606482015291169063617ba03790608401600060405180830381600087803b15801561133b57600080fd5b505af115801561134f573d6000803e3d6000fd5b50505050600061135d61109d565b905060006016548261136f9190611cd2565b9050600061137d8483611cb3565b90508060176000828254611391919061180f565b9091555050600654600b5460405163334f056160e11b8152336004820152602481018790526044810186905260a06064820152600560a482015264119a5e195960da1b60c482015260848101919091526000916001600160a01b03169063669e0ac29060e4016020604051808303816000875af1158015611416573d6000803e3d6000fd5b505050506040513d601f19601f8201168201806040525081019061143a919061187d565b905084600c600082825461144e919061180f565b9091555061145c90506115e9565b5050505050565b61146b611667565b6001600160a01b0381166114d05760405162461bcd60e51b815260206004820152602660248201527f4f776e61626c653a206e6577206f776e657220697320746865207a65726f206160448201526564647265737360d01b6064820152608401610570565b6114d9816116c1565b50565b60185461010090046001600160a01b031633146115315760405162461bcd60e51b815260206004820152601360248201527229b2b73232b91034b9903737ba1037bbb732b960691b6044820152606401610570565b6011546115cf576018805460ff19166001179055600061154f6110ad565b600154600254604051631a4ca37b60e21b81529293506001600160a01b03918216926369328dec926115899216908590309060040161185a565b6020604051808303816000875af11580156115a8573d6000803e3d6000fd5b505050506040513d601f19601f820116820180604052508101906115cc919061187d565b50505b80601460008282546115e1919061180f565b909155505050565b600954600d541480156115ff5750600854600c54145b801561160b5750601154155b1561109b5761161861109d565b601155601054600e546116296110ad565b611633919061180f565b61163d919061180f565b601255565b60008183111561165d576116568284611cd2565b9050611661565b5060005b92915050565b6000546001600160a01b0316331461109b5760405162461bcd60e51b815260206004820181905260248201527f4f776e61626c653a2063616c6c6572206973206e6f7420746865206f776e65726044820152606401610570565b600080546001600160a01b038381166001600160a01b0319831681178455604051919092169283917f8be0079c531659141344cd1fd0a4f28419497f9722a3daafe3b4186f6b6457e09190a35050565b60006020828403121561172357600080fd5b5035919050565b6001600160a01b0391909116815260200190565b6001600160a01b03811681146114d957600080fd5b60006020828403121561176557600080fd5b81356117708161173e565b9392505050565b6000806040838503121561178a57600080fd5b505080516020909101519092909150565b80516117a68161173e565b919050565b6000602082840312156117bd57600080fd5b81516117708161173e565b60208082526017908201527629b2b73232b91034b9903737ba1027232a1037bbb732b960491b604082015260600190565b634e487b7160e01b600052601160045260246000fd5b60008219821115611822576118226117f9565b500190565b602080825260199082015278131bd8dac8191d5c985d1a5bdb881b9bdd081c995858da1959603a1b604082015260600190565b6001600160a01b0393841681526020810192909252909116604082015260600190565b60006020828403121561188f57600080fd5b5051919050565b6001600160a01b03929092168252602082015260400190565b6000602082840312156118c157600080fd5b8151801515811461177057600080fd5b6020808252600f908201526e151c985b9cd9995c8819985a5b1959608a1b604082015260600190565b6001600160a01b039384168152919092166020820152604081019190915260600190565b6040516101e0810167ffffffffffffffff8111828210171561195057634e487b7160e01b600052604160045260246000fd5b60405290565b60006020828403121561196857600080fd5b6040516020810181811067ffffffffffffffff8211171561199957634e487b7160e01b600052604160045260246000fd5b6040529151825250919050565b80516001600160801b03811681146117a657600080fd5b805164ffffffffff811681146117a657600080fd5b805161ffff811681146117a657600080fd5b60006101e082840312156119f757600080fd5b6119ff61191e565b611a098484611956565b8152611a17602084016119a6565b6020820152611a28604084016119a6565b6040820152611a39606084016119a6565b6060820152611a4a608084016119a6565b6080820152611a5b60a084016119a6565b60a0820152611a6c60c084016119bd565b60c0820152611a7d60e084016119d2565b60e0820152610100611a9081850161179b565b90820152610120611aa284820161179b565b90820152610140611ab484820161179b565b90820152610160611ac684820161179b565b90820152610180611ad88482016119a6565b908201526101a0611aea8482016119a6565b908201526101c0611afc8482016119a6565b908201529392505050565b600060608284031215611b1957600080fd5b6040516060810181811067ffffffffffffffff82111715611b4a57634e487b7160e01b600052604160045260246000fd5b80604052508251815260208301516020820152604083015160408201528091505092915050565b8051825260208101516020830152604081015160408301526060810151151560608301526080810151608083015260a081015160a083015260c081015160c08301525050565b8651815260208088015190820152604080880151908201526101c08101611be16060830188611b71565b856101408301528461016083015283610180830152826101a0830152979650505050505050565b885181526020808a0151908201526040808a0151908201526102008101611c32606083018a611b71565b876101408301528661016083015285610180830152846101a0830152836101c0830152826101e08301529998505050505050505050565b60008060008060008060c08789031215611c8257600080fd5b865195506020870151945060408701519350606087015192506080870151915060a087015190509295509295509295565b6000816000190483118215151615611ccd57611ccd6117f9565b500290565b600082821015611ce457611ce46117f9565b50039056fea2646970667358221220b4e8a198e732cea8ae2d3ab5d5e75b822cd038e0341d36ea11f19b431d2f450864736f6c634300080a003360806040526000600b553480156200001657600080fd5b5060405162002e3438038062002e3483398101604081905262000039916200016f565b604080518082018252600c81526b141bdcda5d1a5bdb8813919560a21b6020808301918252835180850190945260048452634c494c4160e01b9084015281519192916200008991600091620000c9565b5080516200009f906001906020840190620000c9565b5050600c80546001600160a01b0319166001600160a01b03939093169290921790915550620001de565b828054620000d790620001a1565b90600052602060002090601f016020900481019282620000fb576000855562000146565b82601f106200011657805160ff191683800117855562000146565b8280016001018555821562000146579182015b828111156200014657825182559160200191906001019062000129565b506200015492915062000158565b5090565b5b8082111562000154576000815560010162000159565b6000602082840312156200018257600080fd5b81516001600160a01b03811681146200019a57600080fd5b9392505050565b600181811c90821680620001b657607f821691505b60208210811415620001d857634e487b7160e01b600052602260045260246000fd5b50919050565b612c4680620001ee6000396000f3fe608060405234801561001057600080fd5b506004361061012c5760003560e01c80636352211e116100ad578063b88d4fde11610071578063b88d4fde14610273578063c13819b614610286578063c3490263146102bb578063c87b56dd146102ce578063e985e9c5146102e157600080fd5b80636352211e1461021f578063669e0ac21461023257806370a082311461024557806395d89b4114610258578063a22cb4651461026057600080fd5b806323b872dd116100f457806323b872dd146101c05780632f745c59146101d357806342842e0e146101e657806342966c68146101f95780634f6ccce71461020c57600080fd5b806301ffc9a71461013157806306fdde0314610159578063081812fc1461016e578063095ea7b31461019957806318160ddd146101ae575b600080fd5b61014461013f366004611b8e565b6102f4565b60405190151581526020015b60405180910390f35b610161610305565b6040516101509190611c03565b61018161017c366004611c16565b610397565b6040516001600160a01b039091168152602001610150565b6101ac6101a7366004611c4b565b6103be565b005b600b545b604051908152602001610150565b6101ac6101ce366004611c75565b6104d9565b6101b26101e1366004611c4b565b61050a565b6101ac6101f4366004611c75565b6105a0565b6101ac610207366004611c16565b6105bb565b6101b261021a366004611c16565b6105f1565b61018161022d366004611c16565b610684565b6101b2610240366004611d3d565b6106b9565b6101b2610253366004611dba565b61075a565b6101616107e0565b6101ac61026e366004611dd5565b6107ef565b6101ac610281366004611e11565b6107fe565b610299610294366004611c16565b610836565b6040805182518152602080840151908201529181015190820152606001610150565b6101ac6102c9366004611e8d565b610893565b6101616102dc366004611c16565b6108ea565b6101446102ef366004611eaf565b6108f5565b60006102ff82610923565b92915050565b60606000805461031490611ee2565b80601f016020809104026020016040519081016040528092919081815260200182805461034090611ee2565b801561038d5780601f106103625761010080835404028352916020019161038d565b820191906000526020600020905b81548152906001019060200180831161037057829003601f168201915b5050505050905090565b60006103a282610948565b506000908152600460205260409020546001600160a01b031690565b60006103c982610684565b9050806001600160a01b0316836001600160a01b0316141561043c5760405162461bcd60e51b815260206004820152602160248201527f4552433732313a20617070726f76616c20746f2063757272656e74206f776e656044820152603960f91b60648201526084015b60405180910390fd5b336001600160a01b0382161480610458575061045881336108f5565b6104ca5760405162461bcd60e51b815260206004820152603d60248201527f4552433732313a20617070726f76652063616c6c6572206973206e6f7420746f60448201527f6b656e206f776e6572206f7220617070726f76656420666f7220616c6c0000006064820152608401610433565b6104d4838361096d565b505050565b6104e333826109db565b6104ff5760405162461bcd60e51b815260040161043390611f1d565b6104d4838383610a3a565b60006105158361075a565b82106105775760405162461bcd60e51b815260206004820152602b60248201527f455243373231456e756d657261626c653a206f776e657220696e646578206f7560448201526a74206f6620626f756e647360a81b6064820152608401610433565b506001600160a01b03919091166000908152600660209081526040808320938352929052205490565b6104d4838383604051806020016040528060008152506107fe565b600c546001600160a01b031633146105e55760405162461bcd60e51b815260040161043390611f6a565b6105ee81610b99565b50565b60006105fc60085490565b821061065f5760405162461bcd60e51b815260206004820152602c60248201527f455243373231456e756d657261626c653a20676c6f62616c20696e646578206f60448201526b7574206f6620626f756e647360a01b6064820152608401610433565b6008828154811061067257610672611fa1565b90600052602060002001549050919050565b6000818152600260205260408120546001600160a01b0316806102ff5760405162461bcd60e51b815260040161043390611fb7565b600c546000906001600160a01b031633146106e65760405162461bcd60e51b815260040161043390611f6a565b600b546106f38782610ba2565b6106fe848785610bbc565b600b805490600061070e83611fff565b90915550506040805160608101825287815260208082018881526000838501818152868252600d9093529390932091518255915160018201559051600290910155905095945050505050565b60006001600160a01b0382166107c45760405162461bcd60e51b815260206004820152602960248201527f4552433732313a2061646472657373207a65726f206973206e6f7420612076616044820152683634b21037bbb732b960b91b6064820152608401610433565b506001600160a01b031660009081526003602052604090205490565b60606001805461031490611ee2565b6107fa338383610e1f565b5050565b61080833836109db565b6108245760405162461bcd60e51b815260040161043390611f1d565b61083084848484610eea565b50505050565b61085a60405180606001604052806000815260200160008152602001600081525090565b506000908152600d6020908152604091829020825160608101845281548152600182015492810192909252600201549181019190915290565b600c546001600160a01b031633146108bd5760405162461bcd60e51b815260040161043390611f6a565b6000828152600d60205260408120600281018054919284926108e090849061201a565b9091555050505050565b60606102ff82610f1d565b6001600160a01b03918216600090815260056020908152604080832093909416825291909152205460ff1690565b60006001600160e01b03198216632483248360e11b14806102ff57506102ff82611026565b6109518161104b565b6105ee5760405162461bcd60e51b815260040161043390611fb7565b600081815260046020526040902080546001600160a01b0319166001600160a01b03841690811790915581906109a282610684565b6001600160a01b03167f8c5be1e5ebec7d5bd14f71427d1e84f3dd0314c0f7b2291e5b200ac8c7c3b92560405160405180910390a45050565b6000806109e783610684565b9050806001600160a01b0316846001600160a01b03161480610a0e5750610a0e81856108f5565b80610a325750836001600160a01b0316610a2784610397565b6001600160a01b0316145b949350505050565b826001600160a01b0316610a4d82610684565b6001600160a01b031614610a735760405162461bcd60e51b815260040161043390612032565b6001600160a01b038216610ad55760405162461bcd60e51b8152602060048201526024808201527f4552433732313a207472616e7366657220746f20746865207a65726f206164646044820152637265737360e01b6064820152608401610433565b610ae28383836001611068565b826001600160a01b0316610af582610684565b6001600160a01b031614610b1b5760405162461bcd60e51b815260040161043390612032565b600081815260046020908152604080832080546001600160a01b03199081169091556001600160a01b038781168086526003855283862080546000190190559087168086528386208054600101905586865260029094528285208054909216841790915590518493600080516020612bf183398151915291a4505050565b6105ee81611074565b6107fa8282604051806020016040528060008152506110b4565b60405164119a5e195960da1b60208201526000906025016040516020818303038152906040528051906020012084604051602001610bfa9190612093565b604051602081830303815290604052805190602001201415610c25575067016345785d8a0000610c8c565b604051675661726961626c6560c01b60208201526028016040516020818303038152906040528051906020012084604051602001610c639190612093565b604051602081830303815290604052805190602001201415610c8c575069d3c21bcecceda10000005b6000610ca8610ca3670de0b6b3a7640000866120c5565b6110e7565b90506000610cd467016345785d8a0000610cca670de0b6b3a7640000886120d9565b610ca391906120c5565b90506000610cf0610ce685600a6120ed565b610ca390876120c5565b90506000610d0d85610d0381600a6120ed565b610cca90896120d9565b905060008484604051602001610d2492919061210c565b604051602081830303815290604052905060008383604051602001610d4a92919061210c565b604051602081830303815290604052905060008a83604051602001610d70929190612148565b604051602081830303815290604052905060008b8385604051602001610d9893929190612185565b60405160208183030381529060405290506000610ddd83610db884611184565b604051602001610dc9929190612974565b604051602081830303815290604052611184565b9050600081604051602001610df29190612a2c565b6040516020818303038152906040529050610e0f600b54826112ea565b5050505050505050505050505050565b816001600160a01b0316836001600160a01b03161415610e7d5760405162461bcd60e51b815260206004820152601960248201527822a9219b99189d1030b8383937bb32903a379031b0b63632b960391b6044820152606401610433565b6001600160a01b03838116600081815260056020908152604080832094871680845294825291829020805460ff191686151590811790915591519182527f17307eab39ab6107e8899845ad3d59bd9653f200f220920489ca2b5937696c31910160405180910390a3505050565b610ef5848484610a3a565b610f01848484846113ad565b6108305760405162461bcd60e51b815260040161043390612a71565b6060610f2882610948565b6000828152600a602052604081208054610f4190611ee2565b80601f0160208091040260200160405190810160405280929190818152602001828054610f6d90611ee2565b8015610fba5780601f10610f8f57610100808354040283529160200191610fba565b820191906000526020600020905b815481529060010190602001808311610f9d57829003601f168201915b505050505090506000610fd860408051602081019091526000815290565b9050805160001415610feb575092915050565b81511561101d578082604051602001611005929190612ac3565b60405160208183030381529060405292505050919050565b610a32846114ab565b60006001600160e01b0319821663780e9d6360e01b14806102ff57506102ff8261151f565b6000908152600260205260409020546001600160a01b0316151590565b6108308484848461156f565b61107d816116a3565b6000818152600a60205260409020805461109690611ee2565b1590506105ee576000818152600a602052604081206105ee91611aa5565b6110be8383611734565b6110cb60008484846113ad565b6104d45760405162461bcd60e51b815260040161043390612a71565b606060006110f48361183d565b600101905060008167ffffffffffffffff81111561111457611114611cb1565b6040519080825280601f01601f19166020018201604052801561113e576020820181803683370190505b5090508181016020015b600019016f181899199a1a9b1b9c1cb0b131b232b360811b600a86061a8153600a85049450846111775761117c565b611148565b509392505050565b8051606090806111a4575050604080516020810190915260008152919050565b600060036111b383600261201a565b6111bd91906120c5565b6111c89060046120ed565b905060006111d782602061201a565b67ffffffffffffffff8111156111ef576111ef611cb1565b6040519080825280601f01601f191660200182016040528015611219576020820181803683370190505b5090506000604051806060016040528060408152602001612bb1604091399050600181016020830160005b868110156112a5576003818a01810151603f601282901c8116860151600c83901c8216870151600684901c831688015192909316870151600891821b60ff94851601821b92841692909201901b91160160e01b835260049092019101611244565b5060038606600181146112bf57600281146112d0576112dc565b613d3d60f01b6001198301526112dc565b603d60f81b6000198301525b505050918152949350505050565b6112f38261104b565b6113565760405162461bcd60e51b815260206004820152602e60248201527f45524337323155524953746f726167653a2055524920736574206f66206e6f6e60448201526d32bc34b9ba32b73a103a37b5b2b760911b6064820152608401610433565b6000828152600a60209081526040909120825161137592840190611adf565b506040518281527ff8e1a15aba9398e019f0b49df1a4fde98ee17ae345cb5f6b5e2c27f5033e8ce79060200160405180910390a15050565b60006001600160a01b0384163b156114a057604051630a85bd0160e11b81526001600160a01b0385169063150b7a02906113f1903390899088908890600401612af2565b6020604051808303816000875af192505050801561142c575060408051601f3d908101601f1916820190925261142991810190612b2f565b60015b611486573d80801561145a576040519150601f19603f3d011682016040523d82523d6000602084013e61145f565b606091505b50805161147e5760405162461bcd60e51b815260040161043390612a71565b805181602001fd5b6001600160e01b031916630a85bd0160e11b149050610a32565b506001949350505050565b60606114b682610948565b60006114cd60408051602081019091526000815290565b905060008151116114ed5760405180602001604052806000815250611518565b806114f7846110e7565b604051602001611508929190612ac3565b6040516020818303038152906040525b9392505050565b60006001600160e01b031982166380ac58cd60e01b148061155057506001600160e01b03198216635b5e139f60e01b145b806102ff57506301ffc9a760e01b6001600160e01b03198316146102ff565b60018111156115de5760405162461bcd60e51b815260206004820152603560248201527f455243373231456e756d657261626c653a20636f6e7365637574697665207472604482015274185b9cd9995c9cc81b9bdd081cdd5c1c1bdc9d1959605a1b6064820152608401610433565b816001600160a01b03851661163a5761163581600880546000838152600960205260408120829055600182018355919091527ff3f7a9fe364faab93b216da50a3214154f22a0a2b415b23a84c8169e8b636ee30155565b61165d565b836001600160a01b0316856001600160a01b03161461165d5761165d8582611915565b6001600160a01b03841661167957611674816119b2565b61169c565b846001600160a01b0316846001600160a01b03161461169c5761169c8482611a61565b5050505050565b60006116ae82610684565b90506116be816000846001611068565b6116c782610684565b600083815260046020908152604080832080546001600160a01b03199081169091556001600160a01b038516808552600384528285208054600019019055878552600290935281842080549091169055519293508492600080516020612bf1833981519152908390a45050565b6001600160a01b03821661178a5760405162461bcd60e51b815260206004820181905260248201527f4552433732313a206d696e7420746f20746865207a65726f20616464726573736044820152606401610433565b6117938161104b565b156117b05760405162461bcd60e51b815260040161043390612b4c565b6117be600083836001611068565b6117c78161104b565b156117e45760405162461bcd60e51b815260040161043390612b4c565b6001600160a01b038216600081815260036020908152604080832080546001019055848352600290915280822080546001600160a01b031916841790555183929190600080516020612bf1833981519152908290a45050565b60008072184f03e93ff9f4daa797ed6e38ed64bf6a1f0160401b831061187c5772184f03e93ff9f4daa797ed6e38ed64bf6a1f0160401b830492506040015b6d04ee2d6d415b85acef810000000083106118a8576d04ee2d6d415b85acef8100000000830492506020015b662386f26fc1000083106118c657662386f26fc10000830492506010015b6305f5e10083106118de576305f5e100830492506008015b61271083106118f257612710830492506004015b60648310611904576064830492506002015b600a83106102ff5760010192915050565b600060016119228461075a565b61192c9190612b83565b60008381526007602052604090205490915080821461197f576001600160a01b03841660009081526006602090815260408083208584528252808320548484528184208190558352600790915290208190555b5060009182526007602090815260408084208490556001600160a01b039094168352600681528383209183525290812055565b6008546000906119c490600190612b83565b600083815260096020526040812054600880549394509092849081106119ec576119ec611fa1565b906000526020600020015490508060088381548110611a0d57611a0d611fa1565b6000918252602080832090910192909255828152600990915260408082208490558582528120556008805480611a4557611a45612b9a565b6001900381819060005260206000200160009055905550505050565b6000611a6c8361075a565b6001600160a01b039093166000908152600660209081526040808320868452825280832085905593825260079052919091209190915550565b508054611ab190611ee2565b6000825580601f10611ac1575050565b601f0160209004906000526020600020908101906105ee9190611b63565b828054611aeb90611ee2565b90600052602060002090601f016020900481019282611b0d5760008555611b53565b82601f10611b2657805160ff1916838001178555611b53565b82800160010185558215611b53579182015b82811115611b53578251825591602001919060010190611b38565b50611b5f929150611b63565b5090565b5b80821115611b5f5760008155600101611b64565b6001600160e01b0319811681146105ee57600080fd5b600060208284031215611ba057600080fd5b813561151881611b78565b60005b83811015611bc6578181015183820152602001611bae565b838111156108305750506000910152565b60008151808452611bef816020860160208601611bab565b601f01601f19169290920160200192915050565b6020815260006115186020830184611bd7565b600060208284031215611c2857600080fd5b5035919050565b80356001600160a01b0381168114611c4657600080fd5b919050565b60008060408385031215611c5e57600080fd5b611c6783611c2f565b946020939093013593505050565b600080600060608486031215611c8a57600080fd5b611c9384611c2f565b9250611ca160208501611c2f565b9150604084013590509250925092565b634e487b7160e01b600052604160045260246000fd5b600067ffffffffffffffff80841115611ce257611ce2611cb1565b604051601f8501601f19908116603f01168101908282118183101715611d0a57611d0a611cb1565b81604052809350858152868686011115611d2357600080fd5b858560208301376000602087830101525050509392505050565b600080600080600060a08688031215611d5557600080fd5b611d5e86611c2f565b94506020860135935060408601359250606086013567ffffffffffffffff811115611d8857600080fd5b8601601f81018813611d9957600080fd5b611da888823560208401611cc7565b95989497509295608001359392505050565b600060208284031215611dcc57600080fd5b61151882611c2f565b60008060408385031215611de857600080fd5b611df183611c2f565b915060208301358015158114611e0657600080fd5b809150509250929050565b60008060008060808587031215611e2757600080fd5b611e3085611c2f565b9350611e3e60208601611c2f565b925060408501359150606085013567ffffffffffffffff811115611e6157600080fd5b8501601f81018713611e7257600080fd5b611e8187823560208401611cc7565b91505092959194509250565b60008060408385031215611ea057600080fd5b50508035926020909101359150565b60008060408385031215611ec257600080fd5b611ecb83611c2f565b9150611ed960208401611c2f565b90509250929050565b600181811c90821680611ef657607f821691505b60208210811415611f1757634e487b7160e01b600052602260045260246000fd5b50919050565b6020808252602d908201527f4552433732313a2063616c6c6572206973206e6f7420746f6b656e206f776e6560408201526c1c881bdc88185c1c1c9bdd9959609a1b606082015260800190565b6020808252601f908201527f43616c6c6572206973206e6f742074686520506f6f6c20636f6e747261637400604082015260600190565b634e487b7160e01b600052603260045260246000fd5b602080825260189082015277115490cdcc8c4e881a5b9d985b1a59081d1bdad95b88125160421b604082015260600190565b634e487b7160e01b600052601160045260246000fd5b600060001982141561201357612013611fe9565b5060010190565b6000821982111561202d5761202d611fe9565b500190565b60208082526025908201527f4552433732313a207472616e736665722066726f6d20696e636f72726563742060408201526437bbb732b960d91b606082015260800190565b60008151612089818560208601611bab565b9290920192915050565b600082516120a5818460208701611bab565b9190910192915050565b634e487b7160e01b600052601260045260246000fd5b6000826120d4576120d46120af565b500490565b6000826120e8576120e86120af565b500690565b600081600019048311821515161561210757612107611fe9565b500290565b6000835161211e818460208801611bab565b601760f91b908301908152835161213c816001840160208801611bab565b01600101949350505050565b6000835161215a818460208801611bab565b6101d160f51b9083019081528351612179816002840160208801611bab565b01600201949350505050565b7f3c7376672077696474683d2734303027206865696768743d273233382720766981527f6577426f783d273020302034303020323338272066696c6c3d276e6f6e65272060208201527f786d6c6e733d27687474703a2f2f7777772e77332e6f72672f323030302f737660408201527f67273e3c726563742077696474683d2734303027206865696768743d2732333860608201527f272066696c6c3d277768697465272f3e3c6720636c69702d706174683d27757260808201527f6c2823636c6970305f305f3129273e3c726563742077696474683d273430302760a08201527f206865696768743d27323338272066696c6c3d277768697465272f3e3c6c696e60c08201527f652078313d27302e35272078323d27302e35272079323d27323338272073747260e08201527f6f6b653d27626c61636b272f3e3c6c696e652078313d273339392e35272078326101008201527f3d273339392e35272079323d2732333827207374726f6b653d27626c61636b276101208201527f2f3e3c6c696e652079313d273233372e35272078323d27343030272079323d276101408201527f3233372e3527207374726f6b653d27626c61636b272f3e3c6c696e652079313d6101608201527f27302e35272078323d27343030272079323d27302e3527207374726f6b653d276101808201527f626c61636b272f3e3c746578742066696c6c3d27626c61636b2720786d6c3a736101a08201527f706163653d27707265736572766527207374796c653d2777686974652d7370616101c08201527f63653a207072652720666f6e742d66616d696c793d27496e7465722720666f6e6101e08201527f742d73697a653d27323527206c65747465722d73706163696e673d2730656d276102008201527f3e3c747370616e20783d2733312720793d273136312e303931273e55736572206102208201527f4465706f7369743c2f747370616e3e3c2f746578743e3c746578742066696c6c6102408201527f3d27626c61636b2720786d6c3a73706163653d277072657365727665272073746102608201527f796c653d2777686974652d73706163653a207072652720666f6e742d66616d696102808201527f6c793d27496e7465722720666f6e742d73697a653d27323527206c65747465726102a08201527f2d73706163696e673d2730656d273e3c747370616e20783d2733312720793d276102c08201526818989a17181c98939f60b91b6102e0820152600061296b6127b16127ab6126dc6126d661252d6102e988018b612077565b7f3c2f747370616e3e3c2f746578743e3c746578742066696c6c3d27626c61636b81527f2720786d6c3a73706163653d27707265736572766527207374796c653d27776860208201527f6974652d73706163653a207072652720666f6e742d66616d696c793d27496e7460408201527f65722720666f6e742d73697a653d27333027206c65747465722d73706163696e60608201527f673d2730656d273e3c747370616e20783d2733312720793d2734382e3930393160808201527f273e546f6b656e2050726f746f636f6c204d617475726974793c2f747370616e60a08201527f3e3c2f746578743e3c746578742066696c6c3d27626c61636b2720786d6c3a7360c08201527f706163653d27707265736572766527207374796c653d2777686974652d73706160e08201527f63653a207072652720666f6e742d66616d696c793d27496e7465722720666f6e6101008201527f742d73697a653d27323527206c65747465722d73706163696e673d2730656d276101208201527f3e3c747370616e20783d273330322720793d273131342e303931273e0000000061014082015261015c0190565b88612077565b7f25203c2f747370616e3e3c2f746578743e3c746578742066696c6c3d27626c6181527f636b2720786d6c3a73706163653d27707265736572766527207374796c653d2760208201527f77686974652d73706163653a207072652720666f6e742d66616d696c793d274960408201527f6e7465722720666f6e742d73697a653d27323527206c65747465722d7370616360608201527f696e673d2730656d273e3c747370616e20783d273330382720793d273136312e608082015264181c98939f60d91b60a082015260a50190565b85612077565b7f3c2f747370616e3e3c2f746578743e3c746578742066696c6c3d27234646333581527f33352720786d6c3a73706163653d27707265736572766527207374796c653d2760208201527f77686974652d73706163653a207072652720666f6e742d66616d696c793d274960408201527f6e7465722720666f6e742d73697a653d27313527206c65747465722d7370616360608201527f696e673d2730656d273e3c747370616e20783d273136322720793d273231362e60808201527f343535273e6c696c612e66696e616e63653c2f747370616e3e3c2f746578743e60a08201527f3c2f673e3c7265637420783d27302e352720793d27302e35272077696474683d60c08201527f2733393927206865696768743d2732333727207374726f6b653d27626c61636b60e08201527f272f3e3c646566733e3c636c6970506174682069643d27636c6970305f305f316101008201527f273e3c726563742077696474683d2734303027206865696768743d27323338276101208201527f2066696c6c3d277768697465272f3e3c2f636c6970506174683e3c2f64656673610140820152661f1e17b9bb339f60c91b6101608201526101670190565b95945050505050565b693d913730b6b2911d101160b11b8152825160009061299a81600a850160208801611bab565b7f222c20226465736372697074696f6e223a20224c696c6120506f736974696f6e600a918401918201527f204e4654222c2022696d616765223a2022646174613a696d6167652f7376672b602a8201526a1e1b5b0ed8985cd94d8d0b60aa1b604a8201528351612a11816055840160208801611bab565b61227d60f01b60559290910191820152605701949350505050565b7f646174613a6170706c69636174696f6e2f6a736f6e3b6261736536342c000000815260008251612a6481601d850160208701611bab565b91909101601d0192915050565b60208082526032908201527f4552433732313a207472616e7366657220746f206e6f6e20455243373231526560408201527131b2b4bb32b91034b6b83632b6b2b73a32b960711b606082015260800190565b60008351612ad5818460208801611bab565b835190830190612ae9818360208801611bab565b01949350505050565b6001600160a01b0385811682528416602082015260408101839052608060608201819052600090612b2590830184611bd7565b9695505050505050565b600060208284031215612b4157600080fd5b815161151881611b78565b6020808252601c908201527f4552433732313a20746f6b656e20616c7265616479206d696e74656400000000604082015260600190565b600082821015612b9557612b95611fe9565b500390565b634e487b7160e01b600052603160045260246000fdfe4142434445464748494a4b4c4d4e4f505152535455565758595a6162636465666768696a6b6c6d6e6f707172737475767778797a303132333435363738392b2fddf252ad1be2c89b69c2b068fc378daa952ba7f163c4a11628f55a4df523b3efa2646970667358221220874d7f0542074c9d64f149b0e2c1b9c418a121a2f302a04644910cc40f91aab564736f6c634300080a0033",
  "linkReferences": {},
  "deployedLinkReferences": {}
}